:02000002B0004C
:1040000000400B0054650B00000006000C00050288
:084010000401A60F00000000EE
:04401800F05F0B004A
:10401C0009480A49884208B505D0094A824202D0AB
:10402C00121A01F023FF0748074A0021121A01F067
:10403C002BFF014808BD00BFA0E50320A8640B00BE
:10404C0024E6032024E60320EDE7032070B5074E99
:10405C00074C01F0C5FCA41BA4080025AC4200D100
:10406C0070BD56F8043B98470135F7E750640B00D8
:10407C0078640B0000F03AB808B500F061F8BDE8C0
:10408C00084001F065BC00F08FBD00F08DBD00F064
:10409C0093BD0078B0FA80F040097047012303709B
:1040AC007047000038B584690A4B036005467CB143
:1040BC006368013B63605BB9236820469B68984743
:1040CC00A368013BA3601BB923682046DB689847B3
:1040DC00284638BDEC610B0010B50446FFF7E2FF33
:1040EC0020461C21FFF7D3FF204610BD08B5032145
:1040FC00042001F0E5FC064800F0B9F8044800F093
:10410C00EFF8BDE8084002481E2100F025BB00BFB7
:10411C009CE60320F8B5094E04460D461746AC4202
:10412C0006DCA1B23A46304600F086FA0134F6E7D6
:10413C00BDE8F840014800F0D3B800BF9CE603206E
:10414C0038B5114D114C2B782370042001F0E2FC92
:10415C00002814BF012300232B7014D0217891B9AF
:10416C000B4800F0ACFA30B9BDE838404FF40042CF
:10417C002E21FFF7CFBF064800F015FBBDE83840F5
:10418C00034800F0ADB838BD88E60320B0E6032044
:10419C009CE6032010B51949194800F0ABFF194AE9
:1041AC00194B12681A60194A194812685A60194A50
:1041BC0012689A60184A1268DA60184A12681A6112
:1041CC00174A12685A61174A12689A6101F070FA1C
:1041DC00154801F06DFA154B0022C3E90022A2F537
:1041EC0080329A60022000F05BFCBDE81040104861
:1041FC00022303222E2100F061B800BF1F600B00C8
:10420C008CE603205CE6032040E60320ACE50320AB
:10421C0024E60320B4E50320A4E50320A0E5032055
:10422C00A8E50320B0E503206CE6032060E603203C
:10423C009CE6032038B50446C0680D4608B100F072
:10424C00BBFCA379062B0CBF0420032010FB05F04C
:10425C0080B2A08000F0A8FCE06028B1A288002108
:10426C0001F012FE658038BDA0806080FBE710B5C0
:10427C0004460121C07901F023FCE079002101F012
:10428C0030FC0123237010BD37B5037805460C466E
:10429C001BB1C079002101F013FC2B78EC715BB1E0
:1042AC00A0B20121019001F00BFC0198002103B098
:1042BC00BDE8304001F015BC03B030BD70B5002531
:1042CC00044616468371C0E9035505700572FFF765
:1042DC00B1FF20463146FFF7D7FF204670BD0000E6
:1042EC00C368002B00F0A4812DE9F04F8379023BC9
:1042FC00DBB2042B9CBFBF4A52F8234085B0054665
:10430C0088BF322400F074FA2B69C01AA042F9D38A
:10431C00B94CAE88D4F800351BB9D4F86035002BF5
:10432C007EDBB64CD4F8003523B9D4F86035002BBD
:10433C00C0F26E81B24CD4F80035002B00F04481F1
:10434C00EB79B04AB04C1268190102EB0313575CBD
:10435C00AE495B78D1F8FC2042F08072C1F8FC20A9
:10436C00226803F01F0343EA471301273A432260F4
:10437C00A988D5F80C80D4F804909F40002944D02B
:10438C004FF0000E72464FF0A04118F801CB0820F8
:10439C00802663689B1A462BFBD96268D1F80835D6
:1043AC001CEA060F43EA0703C1F808352FD06368EF
:1043BC009B1A282BFBD9D1F80C35013843EA07039B
:1043CC004FEA5606C1F80C35E3D1AB880EF1010E5D
:1043DC001FFA8EFE7345D8D84FF4307103FB01F1F0
:1043EC0063689B1A462BFBD96368A3EB09098945C3
:1043FC00C0F0E4804FF4967000F0F2F9A988D5F87B
:10440C000C80D4F804900029BAD10A46E8E7636816
:10441C009B1A112BCFD863689B1A112BF7D9CAE7BB
:10442C00D4F86435002BBFF67CAFD4F86835002B7C
:10443C00BFF677AFD4F86C35002BBFF672AF3601F0
:10444C00331D1846009300F0AFFB00283FF478AF03
:10445C00AB88002B00F0ED80EA68013B12FA83F781
:10446C0002F1FF3E002348F2060248F20D011EF84D
:10447C0001CF1CF0800F0CBF93468B461CF0400FF5
:10448C000CBF16460E461CF0200F0CBF90468846FB
:10449C0003F10109CDF80880019603F102081FFA17
:1044AC0089F9019E20F813B01FFA88F820F81960DA
:1044BC00029E20F8186003F103081CF0100F1FFA7D
:1044CC0088F80CBF93468B4620F818B003F104080B
:1044DC001CF0080F1FFA88F80CBF93468B4620F887
:1044EC0018B003F105081CF0040F1FFA88F80CBF74
:1044FC0093468B4620F818B003F1080A03F106081E
:10450C0007339BB21CF0020F1FFA88F80CBF9346BE
:10451C008B46CDF80CA01CF0010F20F818B015BF7D
:10452C0020F8131020F813201FFA8AF3BDF80C3072
:10453C0077459CD1591C023389B29BB249005B0070
:10454C004FF400474752009AC7522E4B56081F682B
:10455C0000221423C4F80425C4F80C25C4F808352B
:10456C00C4F81425C4F81025C4F82005C4F8246533
:10457C00C4F82825C4F82C25EB7907EB031C1B0188
:10458C000121FE5C9CF8013003F01F0343EA461343
:10459C00C4F86035C4F80015C4F81021A160D4F833
:1045AC001031002BFBD000234FF0FF32C4F8103138
:1045BC00C4F80035C4F8602500F0FEFA00F018F9D4
:1045CC00286105B0BDE8F08FD4F86035002BBFF63C
:1045DC00B7AED4F86435002BBFF6B2AED4F868355C
:1045EC00002BBFF6ADAED4F86C35002BBFF6A8AEE1
:1045FC0025E700BFDC600B0000C00140001002404A
:10460C0000200240B4E60320001000E000ED00E0C2
:10461C00D4F86435002BBFF68DAED4F86835002B7A
:10462C00BFF688AED4F86C35002BBFF683AE06E728
:10463C0070470423022183E743888B42F0B52DD9C0
:10464C00067AC2F30743C2F30724D5B23EB17343D3
:10465C0074437543C3F30723C4F307242D0A90F85E
:10466C0006C0C768BCF1060F0CBF042603264E43D8
:10467C00ACF1020CB919BCF1060F1DD8DFE80CF037
:10468C00041C08040F040400BC554B708D7005E02D
:10469C00FE2B28BFFE23BB554D708C70F0BDBB5557
:1046AC004C708D70037A120E13B9D2B2CA70F5E742
:1046BC005A43C2F30722F9E7BB554C70E6E7F7B54E
:1046CC0043888B4246D98479C668062C0CBF0425D6
:1046DC0003254D437219A71E5378715D9278062FEE
:1046EC0034D8DFE807F0043309040D040400090290
:1046FC0041EA0343134305E0120242EA0142F9E79F
:10470C0073591BBA027A0193EAB1062C01BF9DF8CA
:10471C0007301B02B3FBF2F38DF807309DF8043021
:10472C001B02B3FBF2F38DF804309DF805301B022D
:10473C00B3FBF2F38DF805309DF806301B02B3FB8A
:10474C00F2F38DF80630019803B0F0BD1B0243EA7A
:10475C000143CFE70020F7E7037A4A1CD2B2934219
:10476C0070B51FD0013B13F0FF03C4680CD0FF29B8
:10477C001FBF110201F1FF31B1FBF3F39BB204BF78
:10478C004FF6FF71B1FBF3F325468688291B89B2DE
:10479C008E4206D929785943C1F3072105F8011B2C
:1047AC00F3E7027270BD8288C068002101F06CBB17
:1047BC0008B500F02DF8014B186008BDB4E60320D5
:1047CC0008B5024B1B685B6C019308BD48020300E3
:1047DC0008B5024B1B685B68019308BD1802030007
:1047EC0008B5024B1B68DB68019308BD1802030077
:1047FC0008B5024B1B681B69019308BD1802030026
:10480C0008B5024B1B685B69019308BD18020300D5
:10481C0008B5024B1B681B68019308BD2C020300F2
:10482C0008B5024B1B689B68019308BD2C02030062
:10483C0008B5024B1B68DB68019308BD2C02030012
:10484C0008B5024B1B681B69019308BD2C020300C1
:10485C0008B5024B1B685B69019308BD2C02030071
:10486C0008B5024B1B681B6A019308BD28020300A4
:10487C0008B5024B1B685B6A019308BD2802030054
:10488C0008B5024B1B689B6A019308BD2802030004
:10489C0008B5024B1B68DB6A019308BD28020300B4
:1048AC0008B5024B1B681B6B019308BD2802030063
:1048BC0008B5024B1B685B6B019308BD2802030013
:1048CC0008B5024B1B681B6C019308BD2802030042
:1048DC0008B5024B1B685B69019308BD6C020300B1
:1048EC0008B5024B1B685B69019308BD64020300A9
:1048FC0008B5024B1B681B6A019308BD64020300D8
:10490C0008B5024B1B689B6A019308BD6402030047
:10491C0008B5024B1B689B68019308BD6802030035
:10492C0008B5024B1B68DB68019308BD68020300E5
:10493C0008B5024B1B689B69019308BD3802030044
:10494C0008B5024B1B68DB69019308BD38020300F4
:10495C0008B5024B1B681B6A019308BD38020300A3
:10496C0008B5024B1B689B6A019308BD3802030013
:10497C0008B5024B1B681B6B019308BD3802030082
:10498C0008B5024B1B689B6B019308BD38020300F2
:10499C0008B5024B1B68DB69019308BD30020300AC
:1049AC0008B5024B1B681B6A019308BD300203005B
:1049BC0008B5024B1B68DB68019308BD3C02030081
:1049CC0008B5024B1B681B69019308BD3C02030030
:1049DC0008B5024B1B685B69019308BD3C020300E0
:1049EC0008B5024B1B689B69019308BD3C02030090
:1049FC0008B5024B1B68DB69019308BD3C02030040
:104A0C0008B5024B1B681B6A019308BD3C020300EE
:104A1C0008B5024B1B689B6A019308BD3C0203005E
:104A2C0008B5024B1B681B6C019308BD3C020300CC
:104A3C0008B5024B1B681B68019308BD4C020300B0
:104A4C0008B5024B1B681B69019308BD4C0203009F
:104A5C0008B5024B1B685B69019308BD4C0203004F
:104A6C0008B5024B1B689B69019308BD4C020300FF
:104A7C0008B5024B1B68DB69019308BD4C020300AF
:104A8C0008B5024B1B681B6A019308BD4C0203005E
:104A9C0008B5024B1B681B6D019308BD6002030037
:104AAC0008B5024B1B685B68019308BD200203002C
:104ABC0008B5034B1B68D3F88830019308BD000080
:104ACC002002030008B5034B1B68D3F89430019304
:104ADC0008BD00002002030008B5024B1B68DB6B0D
:104AEC00019308BD4402030008B5024B1B685B68C8
:104AFC00019308BD4002030008B5024B1B689B687C
:104B0C00019308BD4002030008B5024B1B68DB682B
:104B1C00019308BD4002030008B5024B1B681B69DA
:104B2C00019308BD4002030008B5024B1B685B698A
:104B3C00019308BD4002030008B5024B1B689B693A
:104B4C00019308BD4002030008B5024B1B68DB69EA
:104B5C00019308BD4002030008B5024B1B681B6A99
:104B6C00019308BD4002030008B5024B1B681B6B88
:104B7C00019308BD4002030008B5024B1B685B6B38
:104B8C00019308BD4002030008B5024B1B681B6C67
:104B9C00019308BD4002030008B5024B1B685B6C17
:104BAC00019308BD4002030008B5024B1B681B684B
:104BBC00019308BD1C02030008B5024B1B685B681F
:104BCC00019308BD1C02030008B5024B1B689B68CF
:104BDC00019308BD1C02030008B5024B1B68DB6B7C
:104BEC00019308BD1C02030008B5024B1B681B6C2B
:104BFC00019308BD1C02030008B5024B1B685B6CDB
:104C0C00019308BD1C020300024800230360FFF758
:104C1C00D7BD00BFB8E60320002240681146FFF75D
:104C2C009BBF002240681146FFF7A6BF40680022D8
:104C3C00FFF79ABF4068002281F00101FFF784BFA3
:104C4C00002340681A461946FFF776BF00234068D8
:104C5C001A461946FFF768BF002240681146FFF755
:104C6C005BBF002240681146FFF746BF4068002238
:104C7C000221FFF749BF002340681A46FFF734BFF3
:104C8C00024B03225A60024A1A607047BCE60320AA
:104C9C0000610B007047F8B5064615460C468F1898
:104CAC00BC4206D0336814F8011B9B683046984709
:104CBC00F6E72846F8BD007C0022FFF7D1BD007C4A
:104CCC000021FFF7D5BD007C0021FFF7D9BD007C8A
:104CDC000021FFF7DDBD007C0021FFF7E1BD10B521
:104CEC0014210446FFF7D3F9204610BD38B504460D
:104CFC0015464FF47A730022C4E90123094B217441
:104D0C00084623602946FFF7DBFDBF3008D16B69ED
:104D1C00DB0705D56868FFF74FFFE868FFF74CFF26
:104D2C00204638BD3C610B00704710B51821044675
:104D3C00FFF7ADF9204610BDF0B5037D062B8DB005
:104D4C000E4600F104074FF0000412D000F10805E4
:104D5C0015F8011D0A22304600F059F9AF420444FF
:104D6C0019D0002CF4D02E21304600F04DF904441B
:104D7C00EEE72F236A4639460A208DF80040FFF7EC
:104D8C00AFFD684601F0C0F833680246DB6869463F
:104D9C0030469847044620460DB0F0BD10B5054B83
:104DAC000446112240F8043B002101F06DF8204626
:104DBC0010BD00BF64610B000346074A10B543F8F1
:104DCC00042B01F1100251F8044B43F8044B9142AF
:104DDC00F9D10A781A7010BD64610B00037D042BA5
:104DEC0004D14068003818BF01207047062B07D14A
:104DFC0043683BB983682BB9C3681BB90069F1E7F9
:104E0C00002070470120704710B59DF8084044EA17
:104E1C00032343EA024242EA016104234160037521
:104E2C0010BD000007B5064B0360CB7800938B7860
:104E3C004A780978FFF7E8FF03B05DF804FB00BF80
:104E4C0064610B00014B024A1A607047C4E60320F0
:104E5C0070610B00002340681A46FFF745BE40689E
:104E6C0000220221FFF750BE002240681146FFF7D6
:104E7C0043BE002240681146FFF74EBE0023406837
:104E8C001A461946FFF750BE002340681A461946C9
:104E9C00FFF752BE40680021FFF776BE4068002144
:104EAC00FFF77ABE4068002281F00101FFF74CBE8B
:104EBC0040680022FFF758BE002240681146FFF7F9
:104ECC005BBE002240681146FFF746BE2DE9F04359
:104EDC0095B014460D460746FFF760FF00211C22D3
:104EEC000DA8009100F0D0FF40230C9320466B4698
:104EFC000CAA0021FFF714FD044600284BD10246F2
:104F0C0001216868FFF708FE022180462246686886
:104F1C00FFF702FE009E81462146002E3BD0002961
:104F2C0039D17368022B03D00A2B11D0F669F4E740
:104F3C00B8F1000FFAD0716906A8043107ADFFF77C
:104F4C0071FF0FCD3C1D0FC42B6823704146EDE75C
:104F5C00B9F1000FEAD07469102201A800F094FF97
:104F6C0006238DF8143001AD04F1080318341868C9
:104F7C0059682A4603C20833A3421546F7D101A942
:104F8C0006A807ADFFF718FF0FCD3C1D0FC42B680B
:104F9C0023704946CAE70098FFF7BAFC384615B0AB
:104FAC00BDE8F083024B034A1A6000225A60704736
:104FBC00C8E603207C610B00F8B506460D468F1839
:104FCC000024BD420CD0336815F8011B9B68304699
:104FDC009847031E01DB1C44F3E7002C08BF1C465A
:104FEC002046F8BD13B50446084659B1019100F0AE
:104FFC008BFF23680199DB680246204602B0BDE8AE
:10500C001040184702B010BD03689B68184730B5B4
:10501C008BB00023012A8DF8243098BF0A2209ACEA
:10502C000D46B1FBF2F101FB125303F0FF03092B08
:10503C0094BF30333733DBB2AA4204F8013DEFD9C9
:10504C002146FFF7CFFF0BB030BD0000014B002213
:10505C009A607047D0E6032010B5044608462170CC
:10506C00FFF796FC00236360204610BD10B5044684
:10507C00006808B1FFF7A0FD0023C4E901332360E9
:10508C0010BD38B504460D4600680131FFF79CFD94
:10509C0010B1C4E90005012038BD10B50368044601
:1050AC0023B143688B4201D3012010BD2046FFF78A
:1050BC00E8FF0028F9D0A368002BF5D12268137003
:1050CC00F2E737B50D46114601920446FFF7E5FFAE
:1050DC00019A28B92046FFF7C9FF204603B030BD1E
:1050EC00A2602946206800F0C1FE2268A368002156
:1050FC00D154F2E7002313B5C0E9003304468360B2
:10510C00037341B10846019100F0FEFE019902467D
:10511C002046FFF7D6FF204602B010BD054B0222F9
:10512C001A60054B054A9A600020C3E90000FFF79E
:10513C00B7BC00BFECE60320E0E603200000FFFF55
:10514C0013B503688DF80710DC6B01224FF0FF33A9
:10515C000DF10701A04702B010BD10B40368DC6B61
:10516C004FF0FF33A4465DF8044B604713B513466C
:10517C0002688DF80710D46B0DF107010122A047CE
:10518C0002B010BD10B54369B3F88620B3F8843073
:10519C009A42044608D06369B3F88420511CA3F8E2
:1051AC0084101344187910BD03681B6998470028B4
:1051BC00F1D14FF0FF30F6E7704743691868C043F0
:1051CC00C00F704770470000064B994210B500F1B4
:1051DC000C0405D0084600F031FD002808BF00245F
:1051EC00204610BDF0600B0010B5AC210446FEF754
:1051FC004EFF204610BDAC21FEF749BF2DE9F04112
:10520C004FF0000886B01C46C0F8048005460E46D8
:10521C0017464146102202A800F036FE631C09D046
:10522C004FF47A73B4FBF3F203FB1244CDE902287A
:10523C005C430494686910230093006802AB41F24C
:10524C00050240F6FF71FFF773FB002807DAFFF742
:10525C00C3FC03686B60002006B0BDE8F081686990
:10526C00002300683A463146FFF782FB031EEEDB53
:10527C001846F1E730B587B0044601AD6846FFF734
:10528C00D1FD0FCD04340FC42B68237007B030BD93
:10529C0070B54D69054B04468C3544F8043B064605
:1052AC000FCD0FC42B682370304670BD64610B00AA
:1052BC002DE9F0439846036893B00D460024DB6A51
:1052CC0006461746984728466B46224621460094C8
:1052DC00FFF726FB0546002863D1009B002B4BD023
:1052EC005B69002B48D006A8FFF758FD009B5C6952
:1052FC006378022B04D1211D06A8FFF7BBFF26E023
:10530C000A2B24D11122294601A800F0BDFDA36867
:10531C00002B38D004F108030DF1040C1834186874
:10532C005968624603C20833A3429446F7D1062358
:10533C0001A90CA88DF81430FFF73EFD0DF1340CCB
:10534C00BCE80F0007AC0FC4DCF80030237006A8D3
:10535C00FFF744FD80B1336807ADD3F82090124BB2
:10536C000C930FCD0DAC0FC42B6823703A464346FB
:10537C000CA93046C84705460098FFF7C9FA2846DD
:10538C0013B0BDE8F083E368002BC3D14FF6FF7078
:10539C00D4F81090FFF7ACFA8145BBD104F114019D
:1053AC00AAE72546E8E700BF64610B0038B54369FE
:1053BC001A68002A054610DAB3F88620B3F8843050
:1053CC009A420AD103681B699847044628B92B688E
:1053DC002846DB6A9847204638BD0120FCE710B50B
:1053EC004369B3F88620B3F884309A42044605D05A
:1053FC006369B3F884201344187910BD03681B69E2
:10540C0098470028F4D14FF0FF30F6E7F8B5436920
:10541C001746B3F88620B3F884309A4205460E46F8
:10542C0016D06969B1F88430B1F88640E41ABC42F0
:10543C0028BF3C46043322461944304600F016FD82
:10544C006A69B2F884302344A2F884302046F8BD4F
:10545C0003681B6998470028E3D14FF0FF34F5E748
:10546C0042690023A2F884304269A2F88630704762
:10547C002DE9F0411F4603680C46DB6A8AB00546ED
:10548C0016469847237DD5F81480042B0CBF0220B8
:10549C000A2006220121FFF773FAC8F800006B6995
:1054AC001B68002B08DA2B682846DB6A0024984717
:1054BC0020460AB0BDE8F0812846FFF7D1FFB7B10E
:1054CC00002303A9F8B20393ADF81030FFF700FAEC
:1054DC000028E8D1686906230093006803AB41F209
:1054EC000B0240F6FF71FFF723FA0028DBD11C22D8
:1054FC00002103A800F0C8FC237D042B1DD14FF420
:10550C0007733046ADF80C30FFF7FAF9ADF80E0022
:10551C006068FFF7EDF904906B691C22186803A909
:10552C00FFF716FA0028BED104340FCC6D698C3508
:10553C000FC523682B700124BAE740F61C233046B4
:10554C00ADF80C30FFF7DCF905AEADF80E00231DFD
:10555C0004F1140718685968324603C20833BB4279
:10556C001646F7D1D8E7000030B54269B2F886305C
:10557C008BB004462BB1B2F884209A4201D1FFF7CC
:10558C006FFF61690868002818DBB1F886507F2D21
:10559C0014D804310823C5F180022944FFF7E0F93F
:1055AC00002813DD6369B3F886200AB9A3F88420B8
:1055BC006369B3F886201044A3F886006369B3F8D6
:1055CC008600B3F88430C01A0BB030BDFFF704FB73
:1055DC0003680B2BF2D0FFF7FFFA03680B2BEDD00F
:1055EC0020230025CDE90235FFF7F6FA0368019375
:1055FC00084B0949009302AA2B463220FFF748FAC0
:10560C0063691868FFF79CF963694FF0FF321A6001
:10561C00D4E700BFB7610B00B0610B0010B5436954
:10562C0004461868002801DBFFF78AF963694FF01C
:10563C00FF321A606069112200218C3000F024FCCA
:10564C002046BDE81040FFF70BBF10B50023044601
:10565C000160C0F884308830FFF7A0FB204610BDF5
:10566C0073B500234FF47A72C0E901320E4A03611C
:10567C00026043610446AC200191FEF704FD051E57
:10568C0005F10C0608D00123C5E90133074B01993C
:10569C002B603046FFF7D9FF2046C4E90565FFF7BC
:1056AC00DFFE02B070BD00BFEC610B00D0610B00DF
:1056BC0010B54FF0FF310446FFF7D2FF204610BD66
:1056CC0010B504460068002801DBFFF739F92046C5
:1056DC0010BD0C30FFF7F4BF024B1A68024B1A6076
:1056EC00704700BFB8E50320F0E603207047417413
:1056FC00704708B5007CFFF78BF920EAE07008BD15
:10570C0008B5007CFFF75CF920EAE07008BD08B52D
:10571C00007CFFF765F940EAE07008BD08B5007C35
:10572C00FFF756F940EAE07008BD007CFFF760B95E
:10573C0037B5457C04462DB1207C03B0BDE8304024
:10574C00FFF736B9007C0191FFF762F90028019947
:10575C00F2DC284603B030BD10B514210446FEF728
:10576C0096FC204610BD000010B54FF47A73044629
:10577C00084611460022C4E90123044B236001238F
:10578C0020746374FFF74CF9204610BD54620B0073
:10579C00417470477047704708B50021007CFFF7D3
:1057AC005FF940EAE07008BD08B50121007CFFF705
:1057BC0057F940EAE07008BD08B5007CFFF748F9DE
:1057CC0020EAE07008BD08B5007CFFF739F920EA43
:1057DC00E07008BD13B50446007C0191FFF738F961
:1057EC000028019901DC607C20B1207CFFF740F996
:1057FC0020EAE07002B010BD007CFFF741B910B593
:10580C0014210446FEF743FC204610BD10B54FF49E
:10581C007A73044608460021C4E90113044B236043
:10582C000123207463741146FFF702F9204610BD62
:10583C0084620B0010B514220446002100F024FBF6
:10584C00204610BD10B50F4C88B003A8FFF7F2FF2F
:10585C002178BFF35B8F11F001010FD1204601912C
:10586C00FEF717FC019948B103AA0748FFF7CEFFD2
:10587C002046FEF713FC054800F0F2FA024808B087
:10588C0010BD00BFF4E60320F8E60320A1570B007F
:10589C00002240681146FFF73FB9002240681146CC
:1058AC00FFF75AB9002240681146FFF765B9406806
:1058BC000022FFF759B94068002281F00101FFF77F
:1058CC0043B9002340681A461946FFF735B900233F
:1058DC0040681A461946FFF727B90022406811465E
:1058EC00FFF70AB9406800220221FFF70DB9002327
:1058FC0040681A46FFF7F8B8024B04225A60024A75
:10590C001A6070470CE70320B4620B00014B18605F
:10591C00704700BFBCE5032008B50B4B43B1FFF744
:10592C0091FF03681B699847002801DDAFF30080E5
:10593C00064B43B100F05CF903681B6998470028DB
:10594C0001DDAFF3008008BD000000000000000086
:10595C0008B5FFF7E1FFFEF753FF014B186008BDD8
:10596C0028E703200548064A064908B5121A00F034
:10597C007DFA054B054A1A6008BD00BF00F40320F0
:10598C0004F40320A4640B0000F403201E1C279ACB
:10599C0007B5002300931A466FF07701FFF792F8D2
:1059AC0003B05DF804FB000007B543880A2B08D050
:1059BC00502B0BD1094B1B684BB103B05DF804EBBA
:1059CC001847FFF7E5FF03B05DF804FB00230093D5
:1059DC001A466FF07701FFF775F8F4E718E7032024
:1059EC0010B512480021FFF707F9114B1A68114B3B
:1059FC009A42114B0CBF012200221A7001D0FFF702
:105A0C00B1FFFEF7E5FE044600F046FA0B4B13B16E
:105A1C002046AFF3008000210848FFF75DF8BDE891
:105A2C00104007480021FFF743B800BF19590B007D
:105A3C0000F403201E1C279A14E70320000000002A
:105A4C00B5590B00232813B502D9002002B010BDA4
:105A5C00A0F10B03022B1AD8174C2178BFF35B8FE4
:105A6C0011F001010BD120460191FEF712FB0199B7
:105A7C0028B11248FFF7F0FA2046FEF70FFB0F4B48
:105A8C001878FEF78DFF0028DFD10120DEE7012812
:105A9C0009D800F06DF80021007CFEF709FF80F0BA
:105AAC000100C0B2D2E709380128EED800F0A0F806
:105ABC00007CFEF7A5FFF2E71CE7032020E703209C
:105ACC00232838B504460D460AD8FF2908D0FFF71D
:105ADC00B9FF28B129462046BDE83840FEF7A0BEE4
:105AEC0038BD38B504460D46FEF7A2FEFF2810D08F
:105AFC00062804D84D2323FA00F0C30709D4204606
:105B0C00FFF7A0FF28B129462046BDE83840FEF734
:105B1C0097BE38BD10B50446FEF78AFE031FDBB2F4
:105B2C00012B08D92046FFF78DFF20B12046BDE898
:105B3C001040FEF78DBE002010BD704738B50A4BE3
:105B4C0003600123044643610849202000F074F8E7
:105B5C00202560600549A560284600F06DF8C4E971
:105B6C000305204638BD00BF18000100E8620B0099
:105B7C0030B50E4D2978BFF35B8F11F0010487B05F
:105B8C0011D12846FEF785FA68B16846FFF7D6FFB3
:105B9C006A4621460648FFF7A9F82846FEF77EFA22
:105BAC00044800F05DF9024807B030BD2CE7032033
:105BBC0030E70320475B0B007047000038B5044604
:105BCC0014252A46002100F05FF92580402507495D
:105BDC0025812846258200F02FF80449606028466C
:105BEC0000F02AF8E060204638BD00BFE8620B00E8
:105BFC0030B50E4D2978BFF35B8F11F0010487B0DF
:105C0C0011D12846FEF745FA68B101A8FFF7D6FF77
:105C1C0001AA21460648FFF7A7FD2846FEF73EFAE3
:105C2C00044800F01DF9024807B030BD44E70320DA
:105C3C0048E70320C55B0B00FEF727BA014900F0CB
:105C4C00F9B800BF04630B007FB500241023CDE925
:105C5C000234036815469E6912686B46CDE9004410
:105C6C00B0479DF8043003F00603062B03BF009BDE
:105C7C002B600120204604B070BD0098904214BFE8
:105C8C00012006207047000010B5034B036004464A
:105C9C0000F0CDF8204610BD44630B0010B504464F
:105CAC00FFF7F2FF20460821FEF7F1F9204610BD60
:105CBC002DE9F0411F46DDE90834DDF818809845E0
:105CCC000646154607D1079900F0B4F818B165716E
:105CDC000020BDE8F0813946304600F0ABF80028D2
:105CEC00F6D00123C4F800802571A371F0E738B514
:105CFC0015461C4600F09EF820B10823E3600623ED
:105D0C002560237138BD73B505460C4601921E46BD
:105D1C0000F090F850B9032E08D82368019A5B69FB
:105D2C002946204602B0BDE87040184702B070BD4D
:105D3C0010B5034B03600446FFF7A6FF204610BDC9
:105D4C00A4630B0010B50446FFF7F2FF20460C21AC
:105D5C00FEF79DF9204610BDF7B5089F9742054602
:105D6C000E4614460AD0A86802680897156A314690
:105D7C002246AC4603B0BDE8F0406047194601939B
:105D8C0000F058F8019B0028EDD0062003B0F0BDC0
:105D9C002DE9F14F0D461946DDE90A4BDDE90CA65C
:105DAC0081461746984600F045F890B1002D3460B6
:105DBC00377109DB61198A450CBF06210121B171CC
:105DCC00002001B0BDE8F08F0235F9D10123B37189
:105DDC00F6E7544506D15946484600F02BF808B171
:105DEC007771EDE7D9F808000368CDE90CA6CDE989
:105DFC000A4BDC693A4643462946A44601B0BDE845
:105E0C00F04F60472DE9F04107460C4615461E46FB
:105E1C00FFF76DFF48B9B86803689F692A46334697
:105E2C002146BC46BDE8F0416047BDE8F0817047B3
:105E3C0000207047814208B50ED0406803782A2BA9
:105E4C000CD049680B782A2B08BF013100F052F8AE
:105E5C00B0FA80F0400908BD0120FCE70020FAE709
:105E6C00002301461A46184600F056B80A449142DF
:105E7C0000F1FF3300D1704710B511F8014B03F856
:105E8C00014F9142F9D110BD02440346934200D117
:105E9C00704703F8011BF9E738B5104B1D68AB6B65
:105EAC000446B3B91820FEF77FFE0246A86320B95A
:105EBC000B4B0C484221FEF797FE0B490B4BC0E9EC
:105ECC0000130B4B83600B23838100210120C2E95B
:105EDC000401AB6B00221C615A6138BDBCE5032088
:105EEC00DD630B00F4630B000E33CDAB34126DE6A7
:105EFC00ECDE050010F8012B11F8013B012A28BF3C
:105F0C009A42F7D0D01A7047034613F8012B002A97
:105F1C00FBD1181A013870472DE9F843DFF8B88027
:105F2C000646D8F800001F460D46914600F056F87C
:105F3C00254B1C6834B9254C1C60254B13B11B68D0
:105F4C00C4F8883063681F2B07DDD8F8000000F018
:105F5C0047F84FF0FF30BDE8F8834EB3D4F8880013
:105F6C0088B91C4B23B9D8F8000000F038F8F0E7DA
:105F7C004FF48470FEF718FE0028F4D00023C0E91B
:105F8C004033C4F88800636840F8239001229A409B
:105F9C0000EB8301D0F800311343C0F80031022E1E
:105FAC00C1F8807002BFD0F804311343C0F804313B
:105FBC006368D8F800005A1C0233626044F823501E
:105FCC0000F00EF80020C6E7E8E703205CE70320AA
:105FDC0000000000B54B0B0020E603207047704713
:105FEC00704700001D400B0059400B0081400B0016
:105FFC0085400B00000000004E6F204368616E6707
:10600C0065202D2043616E63656C6C696E6720435F
:10601C004D440A007B226F6E223A747275652C22F5
:10602C00736174223A002C22627269223A002C228B
:10603C00687565223A007B226F6E223A66616C733A
:10604C00657D0053656E64696E6720436F6D6D618D
:10605C006E6420746F2048756500505554202F6174
:10606C0070692F002F6C69676874732F002F73741D
:10607C0061746520485454502F312E31006B656586
:10608C00702D616C69766500486F73743A2000431B
:10609C006F6E74656E742D4C656E6774683A200073
:1060AC00436F6E74656E742D547970653A20746507
:1060BC0078742F706C61696E3B6368617273657480
:1060CC003D5554462D380046726F6D20487565005D
:1060DC002C01000018000000F40100002C0100004D
:1060EC005000000000000000000000000000000054
:1060FC0000000000834C0B00794C0B006F4C0B0024
:10610C00654C0B00594C0B004D4C0B00A14E0B0079
:10611C00A94E0B00414C0B00394C0B002F4C0B00C3
:10612C00254C0B00D94E0B000000000000000000B5
:10613C00A14C0B00EB4C0B00C34C0B00A34C0B0005
:10614C00CB4C0B00D34C0B00DB4C0B00E34C0B008B
:10615C000000000000000000454D0B00354D0B0009
:10616C00374D0B0061707000000000000000000053
:10617C00614E0B006B4E0B00754E0B007F4E0B00EF
:10618C00894E0B00954E0B00A14E0B00A94E0B0037
:10619C00B14E0B00BD4E0B00C54E0B00CF4E0B008D
:1061AC00D94E0B00776972696E6700726563762051
:1061BC006572726F72203D202564000000000000A3
:1061CC0000000000D1510B00F5510B00DF560B0005
:1061DC0003520B00D5510B00000000000000000022
:1061EC00B1400B00E5400B004D510B0067510B000B
:1061FC0075550B0091510B00EB530B00C5510B0067
:10620C007D540B00BD520B0019540B0029560B008A
:10621C00B9530B00C7510B0079510B0009520B00FD
:10622C009D520B0025592D256D2D25645425483A7A
:10623C00254D3A2553257A0061736374696D6500A9
:10624C000000000000000000F9560B0065570B0021
:10625C003D570B00C54F0B000D570B0029570B007A
:10626C001B570B0037570B00FB560B00FF560B0050
:10627C000000000000000000A3570B000B580B009F
:10628C00E1570B00C54F0B00D3570B00A5570B0064
:10629C00B5570B0005580B00C5570B009D570B004D
:1062AC000000000000000000FB580B00F1580B0030
:1062BC00E7580B009D580B00DB580B00CF580B0018
:1062CC00A14E0B00A94E0B00C3580B00BB580B0082
:1062DC00B1580B00A7580B00D94E0B00005374316A
:1062EC00395F53705F6D616B655F73686172656474
:1062FC005F7461670000000044630B00E9620B00EF
:10630C00A4630B0018630B00C8630B004E31305FA5
:10631C005F637878616269763131375F5F636C6196
:10632C0073735F747970655F696E666F450000000A
:10633C00000000000C630B00955C0B00A95C0B00CB
:10634C003D5E0B003D5E0B00135D0B00555C0B00BE
:10635C00FB5C0B00BD5C0B00875C0B00A4630B00AB
:10636C0074630B000C630B004E31305F5F63787805
:10637C00616269763132305F5F73695F636C617340
:10638C00735F747970655F696E666F45000000001D
:10639C000000000068630B003D5D0B00515D0B00BD
:1063AC003D5E0B003D5E0B00135D0B00555C0B005E
:1063BC00115E0B009D5D0B00655D0B0044630B00D3
:1063CC00D0630B00537439747970655F696E666FB6
:1063DC00005245454E54206D616C6C6F6320737593
:1063EC0063636565646564002F746D702F6A656EF8
:1063FC006B696E732D4743432D31302D7069706579
:10640C006C696E652D34385F323032303131323454
:10641C005F313630363138303633392F7372632F63
:10642C006E65776C69622F6E65776C69622F6C692B
:10643C0062632F7374646C69622F72616E642E6375
:10644C0000000000A1410B00BD470B00154C0B00D8
:10645C008D4C0B00514E0B00B14F0B0059500B00E3
:10646C0029510B00E5560B0005590B0000000000EC
:04647C00000000001C
:10648000040000001400000003000000474E550007
:106490009C4B7C96DCFCF0C554DD905A10478F86EF
:0464A0001B78DD7612
:0464A40000000000F4
:1064A800C8AF0000E45700008CB900008813000052
:1064B80050C300001027000044620B00C0E5032011
:1064C80000000000000000000000000000000000C4
:1064D80000000000000000000000000000000000B4
:1064E80000000000000000000000000000000000A4
:1064F8000000000000000000000000000000000094
:106508000000000000000000000000000000000083
:106518000000000000000000000000000000000073
:04652800ECE7032079
:10652C00FFFFFFFF00000102030405060708090A2C
:10653C000B0C0D0E0F101112131415161718191A27
:08654C001B1C1D1E1F2028006E
:04655400785634122F
:04000003B000401CED
:00000001FF
