:02000002B0004C
:1040000000400B0020990B00000006000C00050288
:084010000401A60F00000000EE
:04401800E8890B0028
:1040200009480A49884208B505D0094A824202D0A7
:10403000121A04F01DFC0748074A0021121A04F066
:1040400025FC014808BD00BF4CE1032058940B003B
:10405000ECE50320ECE50320EDE7032070B5074E07
:10406000074C02F057FCA41BA4080025AC4200D169
:1040700070BD56F8043B98470135F7E700940B00F4
:1040800028940B0000F054B808B500F08DF8BDE896
:10409000084002F0F7BB01F00FBC01F00DBC01F0CD
:1040A00013BC000008B5034A03490C2001F068FB6B
:1040B000FEE700BF11540B00FC890B000078B0FA3A
:1040C00080F0400970470123037070470EB403B5B8
:1040D00003AB002153F8042B019301F06AFE02B0F8
:1040E0005DF804EB03B0704738B584690A4B036090
:1040F00005467CB16368013B63605BB92368204679
:104100009B689847A368013BA3601BB923682046BE
:10411000DB689847284638BD88910B0010B50446E7
:10412000FFF7E2FF20461C21FFF7B9FF204610BD34
:1041300010B51848184C00F0F4FE164800F02AFF9D
:104140001E21144801F01FF902F0D0FC01F080FCA0
:104150003C220221204600F0EFFD204600F004FD45
:104160002046012100F017FB2046012100F018FB3A
:1041700000221146204600F00BFB08492046FFF7BD
:10418000A5FF20460649FFF7A1FF2046BDE81040E5
:1041900000F062BD94E6032058E60320E98A0B0094
:1041A000F48A0B00000000002DE9F0472DED028B92
:1041B000694D6A4E2B783370042002F045FC684B41
:1041C000684C003818BF012028700021188802F0C0
:1041D00070FC654B1860236818442B782060002B16
:1041E00000F0A5803578002D40F0A1805F48294679
:1041F00001F07CF8002800F09A805C48DFF890A17C
:1042000001F0E8F8594800F0C5FE01F011F9584BEB
:10421000D3F80080DAF80030C01A404540F28780B9
:10422000206803F0A5FF064640460F4603F0A0FFB6
:10423000504BDFF86081002204F014F802460B4670
:104240003046394604F038F904F0BCFAC8F80000EA
:1042500003F0B0FF9FED381B41EC100B02F0C0FDE6
:1042600098ED008A18EE100A57EC106B03F0A2FFCD
:1042700033A3D3E90023804689463046394603F00C
:10428000F1FF424606460F464B464046494603F07C
:10429000E9FF2DA3D3E9002303F0E4FF02460B4618
:1042A0003046394603F026FEDFED337A68EE277A92
:1042B000064617EE900A0F4603F07CFF02460B46B7
:1042C0003046394603F018FE21A3D3E9002303F05A
:1042D00013FE04F077FA9FED297A294B07EE900A36
:1042E000F4EEC77AF1EE10FA18601ADB254800F0F8
:1042F0003BFC2448012100F04EFA2248012100F045
:104300004FFA2A461F48294600F042FA1E491D4826
:10431000FFF7DCFE1D491B48FFF7D8FE194800F0E7
:104320009BFC0023236001F083F8CAF80000BDEC79
:10433000028BBDE8F08700BF0000000000000840CD
:104340009A9999999999F13F6666666666660E40F4
:10435000D7A3703D0AD7E33F50E60320A8E6032029
:1043600064E1032090E603207CE6032094E603202A
:1043700068E10320000024400000024400803B4527
:1043800054E6032058E60320E98A0B00F48A0B0068
:10439000B0E60320ACE6032010B51B491B4801F032
:1043A00043FE1B4A1B4B12681A601B4A1B481268CB
:1043B0005A601B4A12689A601A4A1268DA601A4AEE
:1043C00012681A61194A12685A61194A12689A6188
:1043D00002F008F9174802F005F90021164800F02C
:1043E000ADFB164B0022C3E90022A2F580329A6091
:1043F000022001F0D5F9BDE8104011480223032244
:104400002E2100F0B5BD00BF048B0B0080E6032019
:1044100024E6032008E6032058E10320ECE503200E
:1044200060E1032050E103204CE1032054E103202C
:104430005CE1032034E6032058E6032028E603204D
:1044400094E603202DE9F04F85B01F46BDF9388072
:10445000BDF83C30A8EB0209A7EB010AB9F1000F47
:10446000B8BFC9F10009BAF1000FB8BFCAF1000A1C
:10447000D14583460C46154604DD3A462C46474650
:104480000D469046BC4205DD2A46454690462246EA
:104490003C4617463E1BB2B20092A8EB050282EAE8
:1044A000E271A1EBE271C6F3C03202FA86F645452D
:1044B000B4BF01224FF0FF32019176100292BC424C
:1044C0001CDCDBF800200393D145D2F81080C7BF75
:1044D000294622462A4621465846C047019A039B50
:1044E000B61AB1B236B2002E05DA029A1544009A15
:1044F00056182DB236B2013424B2E0E705B0BDE85B
:10450000F08F2DE9F347BDF82C800768BDF928909E
:10451000CDF800800446FF6916468A461D46B84716
:104520002368CDF8008009F1FF323244DF6951463B
:104530002B46204612B2B8472368CDF800809F6909
:1045400032464B4651462046B8476B1E03EB0A01E4
:104550002368CDF828809D6932464B4609B2204633
:10456000AC4602B0BDE8F047604737B5013B1344A5
:104570000468BDF8185001951BB2009364690B469E
:10458000A04703B030BD37B5BDF818500468CDE979
:104590000025013B0B4464691BB2A04703B030BD4A
:1045A0002DE9F347BDF92890BDF82C8005469246C9
:1045B0000C46CE18B4420BDA2B68CDF800809F6908
:1045C00021464B46524628460134B84724B2F1E70B
:1045D00002B0BDE8F08713B502680191B0F90E1082
:1045E0000091546AB0F90C3000221146A04702B085
:1045F00010BD704730B54281C2814FF0FF320024B8
:10460000054D4261012244600560018181810461A0
:104610000283827630BD00BF08900B002DE9F04F79
:104620002DED028B8DB007460491BDF86010059109
:10463000BDF864100691B0F90C1004989DF868500C
:10464000814252DDB7F90E1091424EDD062111FB79
:104650000504002C49DD02EBC504002C45DD03EB0D
:1046600083030B9393B2079308339BB20891002402
:104670000993052C1CBF2C4B0B9A079E16BF1B19C8
:1046800000239B5C0393049AABB20A9304FB05F3EB
:1046900013FA82F31BB204EB020A08EE103AB0469A
:1046A0000FFA85F90FFA8AFA039BDB072FD5012D44
:1046B0003B681FD1D3F810B0059B32B25146384643
:1046C000D847039B5B0803930A9B01369844099BD8
:1046D000B6B2B3421FFA88F8E6D1089B013B013419
:1046E00013F0FF0364B20893C3D10DB0BDEC028B8D
:1046F000BDE8F08F059ACDE9009218EE101AD3F8B4
:1047000024B00FFA88F24B463846D847D9E7DDE99E
:1047100005239342D5D0012D3B6803D1D3F810B0C7
:10472000069BCAE7069AE6E7058B0B0030B50A2917
:1047300085B0044607D1027E638A03EBC20363821D
:104740000023238221E00D291FD0037E0293C38A18
:104750000193838A0093B0F912200B46B0F9101030
:10476000FFF75CFF207E238A00EB400103EB41034F
:10477000A17E1BB20246238239B1B4F90C106FF04E
:10478000050505FB00118B42D6DC012005B030BDCC
:10479000018242827047012938BF012101767047AA
:1047A000C18281827047407E7047B0F90C0070472B
:1047B000B0F90E0070470000F0B5457EBDF814401A
:1047C000022D69D0032D00F09980012D6CD105894F
:1047D000D2432A4412B2002A5DDBB0F90850954258
:1047E00059DD0029BEBF5B181BB20021B0F90A00D9
:1047F000CD188542C4BF431A1BB2002B4BDDC1F359
:10480000C400DFF820C102EBC01211F00701DBB2D7
:104810000CEB02001AD0C1F10805404EEDB2AB42DC
:10482000775D3FBFA5EB030EFF2646FA0EF6374035
:104830001CF80260012C0CBF3E43BE43AB420CF897
:10484000026028D308390B44DBB28030072B19D91A
:10485000012C4FF0FF3518BF0025EDB200F18001AB
:104860001A46083AD2B2072A01F8805C01F18001A9
:10487000F7D8A3F10802C2F3C402013200EBC21060
:1048800003F007033BB1264AD25C0378012C0CBF2E
:10489000134393430370F0BD4589D2432A44CD1896
:1048A0000189491B12B209B2002AF4DBB0F90A509F
:1048B0009542F0DD0029BEBF5B181BB20021B0F9A4
:1048C0000870CE18BE42C4BF6B1A1BB2002BE2DDCB
:1048D000D010802510FB05111248014402F007009A
:1048E00001228240012CD2B20B440CD18B42D2D097
:1048F00011F8010B104301F8010CF7E7CD184189BD
:10490000491B09B267E7D243D2B28B42C3D011F838
:10491000010B104001F8010CF7E700BF74E1032020
:104920006CE103207CE10320F0B5457EBDF8144026
:10493000022D34D0032D00F09B80012D37D1D518E6
:104940000289521B12B20029C0F29180B0F90A50BC
:104950008D4240F38C80002ABEBF9B181BB2002200
:10496000B0F90870D618BE42C4BFAB1A1BB2002BF8
:104970007DDDC810802510FB05224548024401F06A
:10498000070001218140012CC9B2134475D19A421C
:104990006DD012F8010B084302F8010CF7E7058906
:1049A000C9432944D5184289521B09B212B20029C1
:1049B0005DDBB0F908508D4259DD002ABEBF9B185F
:1049C0001BB20022B0F90A00D5188542C4BF831A71
:1049D0001BB2002B4BDDC2F3C400DFF8B4C001EB07
:1049E000C01112F00702DBB20CEB01001AD0C2F1C9
:1049F0000805284EEDB2AB42775D3FBFA5EB030E35
:104A0000FF2646FA0EF637401CF80160012C0CBF59
:104A10003E43BE43AB420CF8016028D3083A13442E
:104A2000DBB28030072B19D9012C4FF0FF3518BFAE
:104A30000025EDB200F180011A46083AD2B2072AE9
:104A400001F8805C01F18001F7D8A3F10802C2F3FC
:104A5000C402013200EBC21003F007033BB10E4A5F
:104A6000D25C0378012C0CBF134393430370F0BD59
:104A70004589C943294409B265E7C943C9B29A4285
:104A8000F5D012F8010B084002F8010CF7E700BF5F
:104A90007CE1032074E103206CE1032070470000F7
:104AA000F8B50D1E064614461F462DDBFFF77DFEAA
:104AB000A84229DD002C27DB3046FFF779FEA04213
:104AC00022DD3046FFF76FFE02281ED0032825D0D6
:104AD000012804D13389E2431A442C4615B2002C34
:104AE0002246B8BFE21DD210802112FB01550E49AB
:104AF000012204F007044B5702FA04F464B297420F
:104B00000CBF2343A3434B55F8BD3189728901394A
:104B1000E4434D1B14442DB224B2E0E77389013BFA
:104B20005B1B25461CB2DAE77CE1032010B524218B
:104B30000446FFF7B4FA204610BD000038B5402205
:104B400004460D468021FFF755FD064B2360FF23E9
:104B500084F8213063774FF6FF73E38384F82050A5
:104B6000204638BD40900B0002484FF4806200217F
:104B700003F08CBE7CE1032013B50B4C2178BFF30E
:104B80005B8F11F001010BD120460191FFF796FADE
:104B9000019928B1054801F049F92046FFF793FA39
:104BA000024802B010BD00BFB4E60320B8E60320FF
:104BB00007B590F8223043B10191FFF7DDFF01996D
:104BC00003B05DF804EB01F0E5B90B46817F407F4F
:104BD000012203B05DF804EB01F049BF38B590F94C
:104BE0001D30013304460D461DD090F921000121EE
:104BF00080B201F010FF94F91F00002180B201F093
:104C00000AFF94F92100002180B201F004FF294637
:104C10002046FFF7CDFF94F921000121BDE838407F
:104C200080B201F0F8BE01F061FF94F91B1000F0B2
:104C300019FF01F05BFF036800219B68984701F0B2
:104C400055FF036829469B68984701F04FFFBDE870
:104C5000384000F00EBF0000F8B521210446FFF7F0
:104C6000BDFF00212046FFF7B9FF7F212046FFF757
:104C7000B5FF22212046FFF7B1FF00212046FFF7B4
:104C8000ADFF07212046FFF7A9FF94F91D30294FFA
:104C900001332AD094F92100012180B201F0BBFE3A
:104CA00094F91F00012180B201F0B5FE94F92100B2
:104CB000002180B201F0AFFE012000F0A9FB4FF40B
:104CC0008065013D17F8011B2046ADB2FFF770FF6C
:104CD000002DF6D1012000F09BFB94F92100012169
:104CE000BDE8F84080B201F096BE002501F0FEFE5E
:104CF00094F91B1000F0B6FE01F0F8FE03684021A5
:104D00009B68984705F11006B6B201F0EFFE036804
:104D1000795D9B6898476B1C9DB2AE42F5D101F05E
:104D2000E5FE00F0A6FEB6F5806F00D1F8BD354671
:104D3000DCE700BF7CE1032038B590F91D30017736
:104D4000013304460D46C27600F0C98090F91F0079
:104D5000012180B201F04EFE94F92100012180B2C0
:104D600001F048FE94F82230002B00F0A68094F960
:104D70002100012180B201F04EFEFFF7FDFE01216E
:104D800001F072F8FFF7F8FE102101F0DDF8FFF7EF
:104D9000F3FE002101F07CF8FFF7EEFE01F050F881
:104DA00094F92000012180B201F024FE94F9200042
:104DB000012180B201F02FFE012000F0B5FD94F931
:104DC0002000002180B201F026FE0A2000F0ACFD98
:104DD00094F92000012180B201F01DFE2046AE2191
:104DE000FFF7FCFE2046D521FFF7F8FE2046802184
:104DF000FFF7F4FE2046A821FFF7F0FE20463F21F2
:104E0000FFF7ECFE2046D321FFF7E8FE2046002105
:104E1000FFF7E4FE20464021FFF7E0FE8D2120460B
:104E2000FFF7DCFE012D0CBF102114212046FFF7F7
:104E3000D5FE20462021FFF7D1FE20460021FFF7B6
:104E4000CDFE2046A121FFF7C9FE2046C821FFF76D
:104E5000C5FE2046DA21FFF7C1FE20461221FFF7EA
:104E6000BDFE81212046FFF7B9FE012D0CBF9F2119
:104E7000CF212046FFF7B2FED9212046FFF7AEFE34
:104E8000012D0CBF2221F1212046FFF7A7FE20466D
:104E9000DB21FFF7A3FE20464021FFF79FFE2046BF
:104EA000A421FFF79BFE2046A621FFF797FE204690
:104EB000AF21BDE83840FFF791BE94F91D000121F4
:104EC00080B201F097FD94F91E00012180B201F03B
:104ED00091FD94F82230002B3FF462AF47E701F0D8
:104EE00005FE00F0B5FD5BE738B50446C0680D4629
:104EF00008B100F0E9FCA379062B0CBF04200320C5
:104F000010FB05F080B2A08000F0D6FCE06028B174
:104F1000A288002103F0BAFC658038BDA0806080C3
:104F2000FBE710B504460121C07901F063FDE0798B
:104F3000002101F070FD0123237010BD37B5037807
:104F400005460C461BB1C079002101F053FD2B78BA
:104F5000EC715BB1A0B20121019001F04BFD019811
:104F6000002103B0BDE8304001F055BD03B030BDB5
:104F700070B50025044616468371C0E903550570D7
:104F80000572FFF7B1FF20463146FFF7D7FF2046F5
:104F900070BD0000C368002B00F0A4812DE9F04F24
:104FA0008379023BDBB2042B9CBFBF4A52F82340FB
:104FB00085B0054688BF322400F032FA2B69C01A4A
:104FC000A042F9D3B94CAE88D4F800351BB9D4F857
:104FD0006035002B7EDBB64CD4F8003523B9D4F80D
:104FE0006035002BC0F26E81B24CD4F80035002B36
:104FF00000F04481EB79B04AB04C1268190102EB21
:105000000313575CAE495B78D1F8FC2042F0807204
:10501000C1F8FC20226803F01F0343EA471301276D
:105020003A432260A988D5F80C80D4F804909F40B8
:10503000002944D04FF0000E72464FF0A04118F8FE
:1050400001CB0820802663689B1A462BFBD9626837
:10505000D1F808351CEA060F43EA0703C1F8083502
:105060002FD063689B1A282BFBD9D1F80C35013857
:1050700043EA07034FEA5606C1F80C35E3D1AB8883
:105080000EF1010E1FFA8EFE7345D8D84FF4307121
:1050900003FB01F163689B1A462BFBD96368A3EB02
:1050A00009098945C0F0E4804FF4967000F0B0F92A
:1050B000A988D5F80C80D4F804900029BAD10A4602
:1050C000E8E763689B1A112BCFD863689B1A112BF2
:1050D000F7D9CAE7D4F86435002BBFF67CAFD4F813
:1050E0006835002BBFF677AFD4F86C35002BBFF6D0
:1050F00072AF3601331D1846009300F0DDFB002827
:105100003FF478AFAB88002B00F0ED80EA68013BFC
:1051100012FA83F702F1FF3E002348F2060248F23A
:105120000D011EF801CF1CF0800F0CBF93468B467B
:105130001CF0400F0CBF16460E461CF0200F0CBF93
:105140009046884603F10109CDF80880019603F1E5
:1051500002081FFA89F9019E20F813B01FFA88F897
:1051600020F81960029E20F8186003F103081CF073
:10517000100F1FFA88F80CBF93468B4620F818B022
:1051800003F104081CF0080F1FFA88F80CBF9346BF
:105190008B4620F818B003F105081CF0040F1FFA25
:1051A00088F80CBF93468B4620F818B003F1080A24
:1051B00003F1060807339BB21CF0020F1FFA88F8B0
:1051C0000CBF93468B46CDF80CA01CF0010F20F8C5
:1051D00018B015BF20F8131020F813201FFA8AF317
:1051E000BDF80C3077459CD1591C023389B29BB273
:1051F00049005B004FF400474752009AC7522E4BBC
:1052000056081F6800221423C4F80425C4F80C258E
:10521000C4F80835C4F81425C4F81025C4F82005CE
:10522000C4F82465C4F82825C4F82C25EB7907EBCD
:10523000031C1B010121FE5C9CF8013003F01F03DD
:1052400043EA4613C4F86035C4F80015C4F81021C9
:10525000A160D4F81031002BFBD000234FF0FF32B7
:10526000C4F81031C4F80035C4F8602500F02CFBF8
:1052700000F0D6F8286105B0BDE8F08FD4F86035AD
:10528000002BBFF6B7AED4F86435002BBFF6B2AE34
:10529000D4F86835002BBFF6ADAED4F86C35002BD2
:1052A000BFF6A8AE25E700BF70900B0000C001401C
:1052B0000010024000200240C0E60320001000E081
:1052C00000ED00E0D4F86435002BBFF68DAED4F8C5
:1052D0006835002BBFF688AED4F86C35002BBFF6CE
:1052E00083AE06E770470423022183E7F7B54388BE
:1052F0008B4246D98479C668062C0CBF0425032549
:105300004D437219A71E5378715D9278062F34D8D9
:10531000DFE807F0043309040D040400090241EA40
:105320000343134305E0120242EA0142F9E77359CD
:105330001BBA027A0193EAB1062C01BF9DF807302F
:105340001B02B3FBF2F38DF807309DF804301B020B
:10535000B3FBF2F38DF804309DF805301B02B3FB6C
:10536000F2F38DF805309DF806301B02B3FBF2F323
:105370008DF80630019803B0F0BD1B0243EA0143EB
:10538000CFE70020F7E7037A4A1CD2B2934270B508
:105390001FD0013B13F0FF03C4680CD0FF291FBFCF
:1053A000110201F1FF31B1FBF3F39BB204BF4FF6E1
:1053B000FF71B1FBF3F325468688291B89B28E4223
:1053C00006D929785943C1F3072105F8011BF3E7F2
:1053D000027270BD8288C068002103F057BA0000D5
:1053E00008B500F02DF8014B186008BDC0E6032099
:1053F00008B5024B1B685B6C019308BD48020300B3
:1054000008B5024B1B685B68019308BD18020300D6
:1054100008B5024B1B68DB68019308BD1802030046
:1054200008B5024B1B681B69019308BD18020300F5
:1054300008B5024B1B685B69019308BD18020300A5
:1054400008B5024B1B681B68019308BD2C020300C2
:1054500008B5024B1B689B68019308BD2C02030032
:1054600008B5024B1B68DB68019308BD2C020300E2
:1054700008B5024B1B681B69019308BD2C02030091
:1054800008B5024B1B685B69019308BD2C02030041
:1054900008B5024B1B68DB6C019308BD2C020300AE
:1054A00008B5024B1B68DB68019308BD28020300A6
:1054B00008B5024B1B689B69019308BD28020300D5
:1054C00008B5024B1B68DB69019308BD2802030085
:1054D00008B5024B1B681B6A019308BD2802030034
:1054E00008B5024B1B685B6A019308BD28020300E4
:1054F00008B5024B1B689B6A019308BD2802030094
:1055000008B5024B1B68DB6A019308BD2802030043
:1055100008B5024B1B681B6B019308BD28020300F2
:1055200008B5024B1B685B6B019308BD28020300A2
:1055300008B5024B1B681B6C019308BD28020300D1
:1055400008B5024B1B685B69019308BD6C02030040
:1055500008B5024B1B685B69019308BD6402030038
:1055600008B5024B1B681B6A019308BD6402030067
:1055700008B5024B1B689B6A019308BD64020300D7
:1055800008B5024B1B689B68019308BD68020300C5
:1055900008B5024B1B68DB68019308BD6802030075
:1055A00008B5024B1B689B69019308BD38020300D4
:1055B00008B5024B1B68DB69019308BD3802030084
:1055C00008B5024B1B681B6A019308BD3802030033
:1055D00008B5024B1B689B6A019308BD38020300A3
:1055E00008B5024B1B681B6B019308BD3802030012
:1055F00008B5024B1B689B6B019308BD3802030082
:1056000008B5024B1B681B68019308BD30020300FC
:1056100008B5024B1B689B68019308BD300203006C
:1056200008B5024B1B68DB68019308BD300203001C
:1056300008B5024B1B681B69019308BD30020300CB
:1056400008B5024B1B685B69019308BD300203007B
:1056500008B5024B1B68DB69019308BD30020300EB
:1056600008B5024B1B681B6A019308BD300203009A
:1056700008B5024B1B685B6A019308BD300203004A
:1056800008B5024B1B681B6C019308BD3002030078
:1056900008B5024B1B685B6C019308BD3002030028
:1056A00008B5024B1B68DB68019308BD3C02030090
:1056B00008B5024B1B681B69019308BD3C0203003F
:1056C00008B5024B1B685B69019308BD3C020300EF
:1056D00008B5024B1B689B69019308BD3C0203009F
:1056E00008B5024B1B68DB69019308BD3C0203004F
:1056F00008B5024B1B681B6A019308BD3C020300FE
:1057000008B5024B1B689B6A019308BD3C0203006D
:1057100008B5024B1B681B6C019308BD3C020300DB
:1057200008B5024B1B681B68019308BD4C020300BF
:1057300008B5024B1B681B69019308BD4C020300AE
:1057400008B5024B1B685B69019308BD4C0203005E
:1057500008B5024B1B689B69019308BD4C0203000E
:1057600008B5024B1B68DB69019308BD4C020300BE
:1057700008B5024B1B681B6A019308BD4C0203006D
:1057800008B5024B1B685B6B019308BD6002030008
:1057900008B5024B1B681B6D019308BD6002030036
:1057A00008B5024B1B685B68019308BD200203002B
:1057B00008B5024B1B685B69019308BD200203001A
:1057C00008B5034B1B68D3F88830019308BD00006F
:1057D0002002030008B5034B1B68D3F894300193F3
:1057E00008BD00002002030008B5024B1B68DB6BFC
:1057F000019308BD4402030008B5024B1B685B68B7
:10580000019308BD4002030008B5024B1B689B686A
:10581000019308BD4002030008B5024B1B68DB681A
:10582000019308BD4002030008B5024B1B681B69C9
:10583000019308BD4002030008B5024B1B685B6979
:10584000019308BD4002030008B5024B1B689B6929
:10585000019308BD4002030008B5024B1B68DB69D9
:10586000019308BD4002030008B5024B1B681B6A88
:10587000019308BD4002030008B5024B1B681B6B77
:10588000019308BD4002030008B5024B1B685B6B27
:10589000019308BD4002030008B5024B1B681B6C56
:1058A000019308BD4002030008B5024B1B685B6C06
:1058B000019308BD4002030008B5024B1B681B683A
:1058C000019308BD1C02030008B5024B1B685B680E
:1058D000019308BD1C02030008B5024B1B689B68BE
:1058E000019308BD1C02030008B5024B1B685B6AEC
:1058F000019308BD1C02030008B5024B1B68DB6B5B
:10590000019308BD1C02030008B5024B1B681B6C09
:10591000019308BD1C02030008B5024B1B685B6CB9
:10592000019308BD1C0203000021FFF741BF0000E6
:10593000024800230360FFF75BBD00BFC4E60320FD
:10594000002240681146FFF78FBF002240681146D1
:10595000FFF79ABF40680022FFF78EBF4068002221
:1059600081F00101FFF778BF002340681A4619460D
:10597000FFF76ABF002340681A461946FFF75CBF6D
:10598000002240681146FFF74FBF002240681146D1
:10599000FFF73ABF406800220221FFF73DBF002316
:1059A00040681A46FFF728BF024B03225A60024A9A
:1059B0001A607047C8E6032094900B007047F8B552
:1059C000064615460C468F18BC4206D0336814F8BC
:1059D000011B9B6830469847F6E72846F8BD007CD7
:1059E0000022FFF775BD007C0021FFF779BD007C28
:1059F0000021FFF77DBD007C0021FFF781BD007C09
:105A00000021FFF785BD10B514210446FEF747FBC2
:105A1000204610BD38B5044615464FF47A7300226F
:105A2000C4E90123094B2174084623602946FFF786
:105A30007FFDBF3008D16B69DB0705D56868FFF7CC
:105A400043FFE868FFF740FF204638BDD0900B00C9
:105A50000023007C1A461946FFF722BD007C002275
:105A6000FFF726BDC9B2FFF7F9BF007C0022FFF7A0
:105A700027BD0121FFF7F9BF704710B51821044673
:105A8000FEF70DFB204610BDF0B5037D062B8DB053
:105A90000E4600F104074FF0000412D000F1080593
:105AA00015F8011D0A22304600F065F9AF420444A2
:105AB00019D0002CF4D02E21304600F04DF90444CA
:105AC000EEE72F236A4639460A208DF80040FFF79B
:105AD0003FFD684602F01AFF33680246DB686946FC
:105AE00030469847044620460DB0F0BD10B5054B32
:105AF0000446112240F8043B002102F0C7FE204674
:105B000010BD00BFF8900B000346074A10B543F8DC
:105B1000042B01F1100251F8044B43F8044B91425D
:105B2000F9D10A781A7010BDF8900B00037D042B90
:105B300004D14068003818BF01207047062B07D1F8
:105B400043683BB983682BB9C3681BB90069F1E7A7
:105B5000002070470120704710B59DF8084044EAC6
:105B6000032343EA024242EA0161042341600375D0
:105B700010BD000007B5064B0360CB7800938B780F
:105B80004A780978FFF7E8FF03B05DF804FB00BF2F
:105B9000F8900B00014B024A1A607047D0E60320D0
:105BA00004910B00002340681A46FFF725BE4068A9
:105BB00000220221FFF730BE002240681146FFF7A5
:105BC00023BE002240681146FFF72EBE0023406826
:105BD0001A461946FFF730BE002340681A46194698
:105BE000FFF732BE40680021FFF756BE4068002133
:105BF000FFF75ABE4068002281F00101FFF72CBE7A
:105C000040680022FFF738BE002240681146FFF7C7
:105C10003BBE002240681146FFF726BE2DE9F04347
:105C200095B014460D460746FFF760FF00211C2281
:105C30000DA8009102F02AFE40230C9320466B46EB
:105C40000CAA0021FFF7A4FC044600284BD1024611
:105C500001216868FFF7E8FD022180462246686856
:105C6000FFF7E2FD009E81462146002E3BD0002931
:105C700039D17368022B03D00A2B11D0F669F4E7EF
:105C8000B8F1000FFAD0716906A8043107ADFFF72B
:105C900071FF0FCD3C1D0FC42B6823704146EDE70B
:105CA000B9F1000FEAD07469102201A802F0EEFDEC
:105CB00006238DF8143001AD04F108031834186878
:105CC00059682A4603C20833A3421546F7D101A9F1
:105CD00006A807ADFFF718FF0FCD3C1D0FC42B68BA
:105CE00023704946CAE70098FFF74AFC384615B0CA
:105CF000BDE8F083024B034A1A6000225A607047E5
:105D0000D4E6032010910B00F8B506460D468F1817
:105D10000024BD420CD0336815F8011B9B68304647
:105D20009847031E01DB1C44F3E7002C08BF1C4608
:105D30002046F8BD13B50446084659B1019102F05A
:105D4000E5FD23680199DB680246204602B0BDE804
:105D50001040184702B010BD03689B68184738B55B
:105D60000D210546FFF7F8FF0A2104462846FFF7F4
:105D7000F3FF204438BD30B58BB00023012A8DF8E5
:105D8000243098BF0A2209AC0D46B1FBF2F101FBA9
:105D9000125303F0FF03092B94BF30333733DBB2C8
:105DA000AA4204F8013DEFD92146FFF7C3FF0BB02B
:105DB00030BD2DE9F04186B000AF05460E46381DD6
:105DC000142114463B60FFF78FFD13280ED8391DB0
:105DD0002846FFF7AFFF04461EB12846FFF7BFFF76
:105DE000044420461837BD46BDE8F08100F10803A1
:105DF00023F00703E846ADEB030D2246411C3B6848
:105E00006846FFF771FD69462846FFF793FF044691
:105E1000C546E1E7014B00229A607047DCE60320AB
:105E20000021FFF735BC0021FFF72ABC10B504465E
:105E300008462170FFF70CFC00236360204610BD6C
:105E400013B504460078FFF7EEFF58B920780190AB
:105E50004FF6FF71FFF7D4FB019802B0BDE8104088
:105E6000FFF7DEBF02B010BD13B504460078019104
:105E7000FFF7D9FF019948B920780190FFF7C8FBD7
:105E8000019802B0BDE81040FFF7CABF02B010BDD4
:105E900013B5044600780191FFF7C5FF019948B991
:105EA00020780190FFF7BCFB019802B0BDE81040DC
:105EB000FFF7B6BF02B010BD400830B5186000242F
:105EC00018688842E5B206D90134082C02D040088F
:105ED0001860F5E70725024B5B5D137030BD00BF0E
:105EE00044910B002DE9F04188B00023044600786E
:105EF00002930E461746FFF796FF054600BB94F83F
:105F000000800146142203A802F0C0FC0B232A469D
:105F100003A94046ADF80C30FFF7AAFB04988DF8B2
:105F2000075002AB0DF1070207FB06F1FFF7C4FFB4
:105F300020789DF80710FFF77BFB2078FFF770FFB4
:105F4000029808B0BDE8F08138B5044600780D46E7
:105F5000FFF769FF0346D0B9616899B10C4A12F89E
:105F6000010B854202D00133082BF8D10133DBB29B
:105F70000122D9402046FFF7B5FF2078BDE8384020
:105F8000FFF74EBF20782946FFF752FBF5E738BDF3
:105F900044910B0008B50078FFF752FBC0B208BD72
:105FA00010B50446006808B1FFF78EFC0023C4E971
:105FB0000133236010BD38B504460D460068013139
:105FC000FFF78AFC10B1C4E90005012038BD10B507
:105FD0000368044623B143688B4201D3012010BDFE
:105FE0002046FFF7E8FF0028F9D0A368002BF5D181
:105FF00022681370F2E737B50D4611460192044648
:10600000FFF7E5FF019A28B92046FFF7C9FF2046B0
:1060100003B030BDA2602946206802F029FC226846
:10602000A3680021D154F2E7002313B5C0E900337F
:1060300004468360037341B10846019102F066FC97
:10604000019902462046FFF7D6FF204602B010BD58
:10605000054B02221A60054B054A9A600020C3E9ED
:106060000000FFF79DBB00BFF8E60320ECE603202D
:106070000000FFFF13B503688DF80710DC6B0122E9
:106080004FF0FF330DF10701A04702B010BD10B46F
:106090000368DC6B4FF0FF33A4465DF8044B6047A8
:1060A00013B5134602688DF80710D46B0DF1070184
:1060B0000122A04702B010BD10B54369B3F8862095
:1060C000B3F884309A42044608D06369B3F8842058
:1060D000511CA3F884101344187910BD03681B6980
:1060E00098470028F1D14FF0FF30F6E77047436939
:1060F0001868C043C00F704770470000064B9942B4
:1061000010B500F10C0405D0084600F055FD00283C
:1061100008BF0024204610BD84900B0010B5AC21B0
:106120000446FDF7BCFF204610BDAC21FDF7B7BF0C
:106130002DE9F0414FF0000886B01C46C0F80480FD
:1061400005460E4617464146102202A802F09EFB65
:10615000631C09D04FF47A73B4FBF3F203FB1244CF
:10616000CDE902285C430494686910230093006819
:1061700002AB41F2050240F6FF71FFF711FA002869
:1061800007DAFFF7B9FB03686B60002006B0BDE8D3
:10619000F0816869002300683A463146FFF720FA2B
:1061A000031EEEDB1846F1E730B587B0044601ADBB
:1061B0006846FFF7DFFC0FCD04340FC42B68237053
:1061C00007B030BD70B54D69054B04468C3544F8B9
:1061D000043B06460FCD0FC42B682370304670BDBC
:1061E000F8900B002DE9F0439846036893B00D46F4
:1061F0000024DB6A06461746984728466B46224627
:1062000021460094FFF7C4F90546002863D1009B9E
:10621000002B4BD05B69002B48D006A8FFF766FC2B
:10622000009B5C696378022B04D1211D06A8FFF74F
:10623000BBFF26E00A2B24D11122294601A802F037
:1062400025FBA368002B38D004F108030DF1040CE2
:10625000183418685968624603C20833A34294464A
:10626000F7D1062301A90CA88DF81430FFF74CFCD8
:106270000DF1340CBCE80F0007AC0FC4DCF80030A3
:10628000237006A8FFF752FC80B1336807ADD3F83E
:106290002090124B0C930FCD0DAC0FC42B682370C4
:1062A0003A4643460CA93046C84705460098FFF7D2
:1062B00067F9284613B0BDE8F083E368002BC3D12B
:1062C0004FF6FF70D4F81090FFF74AF98145BBD123
:1062D00004F11401AAE72546E8E700BFF8900B0097
:1062E00038B543691A68002A054610DAB3F88620E3
:1062F000B3F884309A420AD103681B699847044670
:1063000028B92B682846DB6A9847204638BD01200B
:10631000FCE710B54369B3F88620B3F884309A429D
:10632000044605D06369B3F884201344187910BD7E
:1063300003681B6998470028F4D14FF0FF30F6E757
:10634000F8B543691746B3F88620B3F884309A420B
:1063500005460E4616D06969B1F88430B1F886401A
:10636000E41ABC4228BF3C46043322461944304656
:1063700002F07EFA6A69B2F884302344A2F88430CD
:106380002046F8BD03681B6998470028E3D14FF009
:10639000FF34F5E742690023A2F884304269A2F88D
:1063A000863070472DE9F0411F4603680C46DB6AD2
:1063B0008AB0054616469847237DD5F81480042BED
:1063C0000CBF02200A2006220121FFF711F9C8F8AC
:1063D00000006B691B68002B08DA2B682846DB6A13
:1063E0000024984720460AB0BDE8F0812846FFF710
:1063F000D1FFB7B1002303A9F8B20393ADF8103071
:10640000FFF79EF80028E8D168690623009300682A
:1064100003AB41F20B0240F6FF71FFF7C1F8002811
:10642000DBD11C22002103A802F030FA237D042BCB
:106430001DD14FF407733046ADF80C30FFF798F8D4
:10644000ADF80E006068FFF78BF804906B691C22B2
:10645000186803A9FFF7B4F80028BED104340FCCA4
:106460006D698C350FC523682B700124BAE740F69F
:106470001C233046ADF80C30FFF77AF805AEADF8C6
:106480000E00231D04F1140718685968324603C230
:106490000833BB421646F7D1D8E7000030B5426951
:1064A000B2F886308BB004462BB1B2F884209A4201
:1064B00001D1FFF76FFF61690868002818DBB1F8A8
:1064C00086507F2D14D804310823C5F18002294459
:1064D000FFF77EF8002813DD6369B3F886200AB958
:1064E000A3F884206369B3F886201044A3F88600DB
:1064F0006369B3F88600B3F88430C01A0BB030BDBE
:10650000FFF7FAF903680B2BF2D0FFF7F5F90368F0
:106510000B2BEDD020230025CDE90235FFF7ECF958
:1065200003680193084B0949009302AA2B463220C5
:10653000FFF72EF963691868FFF73AF863694FF0BF
:10654000FF321A60D4E700BF53910B004C910B004F
:1065500010B5436904461868002801DBFFF728F8E6
:1065600063694FF0FF321A606069112200218C309C
:1065700002F08CF92046BDE81040FFF70BBF10B5C4
:10658000002304460160C0F884308830FFF7AEFA7B
:10659000204610BD73B500234FF47A72C0E9013272
:1065A0000E4A0361026043610446AC200191FDF78D
:1065B00072FD051E05F10C0608D00123C5E9013363
:1065C000074B01992B603046FFF7D9FF2046C4E9FD
:1065D0000565FFF7DFFE02B070BD00BF88910B00BC
:1065E0006C910B0010B54FF0FF310446FFF7D2FF5E
:1065F000204610BD10B504460068002801DBFEF7F8
:10660000D7FF204610BD0C30FFF7F4BF024B1A68CD
:10661000024B1A60704700BF7CE50320FCE60320B4
:1066200070474174704708B5007CFFF769F820EAAD
:10663000E07008BD08B5007CFFF73AF820EAE0708A
:1066400008BD08B5007CFFF743F840EAE07008BDDC
:1066500008B5007CFFF734F840EAE07008BD007C24
:10666000FFF73EB837B5457C04462DB1207C03B01A
:10667000BDE83040FFF714B8007C0191FFF740F807
:1066800000280199F2DC284603B030BD10B5142172
:106690000446FDF704FD204610BD000010B54FF480
:1066A0007A730446084611460022C4E90123044BCC
:1066B0002360012320746374FFF72AF8204610BD7D
:1066C000F0910B00417470477047704708B5002186
:1066D000007CFFF73DF840EAE07008BD08B50121F5
:1066E000007CFFF735F840EAE07008BD08B5007C93
:1066F000FFF726F820EAE07008BD08B5007CFFF738
:1067000017F820EAE07008BD13B50446007C01913B
:10671000FFF716F80028019901DC607C20B1207C8D
:10672000FFF71EF820EAE07002B010BD007CFFF712
:106730001FB810B514210446FDF7B1FC204610BD6A
:1067400010B54FF47A73044608460021C4E90113DA
:10675000044B23600123207463741146FEF7E0FFAD
:10676000204610BD20920B0010B5142204460021D3
:1067700002F08CF8204610BD10B50F4C88B003A86D
:10678000FFF7F2FF2178BFF35B8F11F001010FD10A
:1067900020460191FDF792FC019948B103AA0748F0
:1067A000FFF7CEFF2046FDF78EFC054802F05AF8B1
:1067B000024808B010BD00BF00E7032004E7032033
:1067C000C9660B00002240681146FFF72DB8002271
:1067D00040681146FFF748B8002240681146FFF7AD
:1067E00053B840680022FFF747B84068002281F0A4
:1067F0000101FFF731B8002340681A461946FFF738
:1068000023B8002340681A461946FFF715B800223E
:1068100040681146FEF7F8BF406800220221FEF7EB
:10682000FBBF002340681A46FEF7E6BF024B042276
:106830005A60024A1A60704718E7032050920B0012
:10684000014B1860704700BF84E5032008B50B4B6F
:1068500043B1FFF791FF03681B699847002801DDEA
:10686000AFF30080064B43B100F080F903681B6969
:106870009847002801DDAFF3008008BD000000004C
:106880000000000008B5FFF7E1FFFEF7D1FD014B66
:10689000186008BD28E703200548064A064908B5E0
:1068A000121A01F0E5FF054B054A1A6008BD00BF4A
:1068B00000F4032004F4032054940B0000F403209C
:1068C0001E1C279A07B5002300931A466FF0770124
:1068D000FEF780FF03B05DF804FB000007B54388B6
:1068E0000A2B08D0502B0BD1094B1B684BB103B0BE
:1068F0005DF804EB1847FFF7E5FF03B05DF804FB14
:10690000002300931A466FF07701FEF763FFF4E768
:1069100024E7032010B512480021FEF7FDFF114BBC
:106920001A68114B9A42114B0CBF012200221A70B7
:1069300001D0FFF7B1FFFEF763FD044601F0AEFFA3
:106940000B4B13B12046AFF3008000210848FEF73F
:106950004BFFBDE8104007480021FEF731BF00BFE4
:1069600041680B0000F403201E1C279A20E7032037
:1069700000000000DD680B00232813B502D90020B9
:1069800002B010BDA0F10B03022B1AD8174C2178CE
:10699000BFF35B8F11F001010BD120460191FDF790
:1069A0008DFB019928B11248FFF740FA2046FDF708
:1069B0008AFB0F4B1878FEF753FE0028DFD1012029
:1069C000DEE7012809D800F091F80021007CFEF7ED
:1069D000A7FD80F00100C0B2D2E709380128EED847
:1069E00000F0C4F8007CFEF783FEF2E7B4E6032073
:1069F000B8E60320232838B504460D460AD8FF29F7
:106A000008D0FFF7B9FF28B129462046BDE8384035
:106A1000FEF71EBD38BD38B504460D46FEF720FD15
:106A2000FF2810D0062804D84D2323FA00F0C3070E
:106A300009D42046FFF7A0FF28B129462046BDE82B
:106A40003840FEF715BD38BD10B50446FEF708FD09
:106A5000031FDBB2012B08D92046FFF78DFF20B1C1
:106A60002046BDE81040FEF70BBD002010BD2DE90B
:106A7000F04190461F46072406460D46C4F1070123
:106A8000B8F1000F12D147FA01F101F001013046CF
:106A9000FFF7C1FF01212846FFF7BDFF002128466F
:106AA000FFF7B9FF013CE9D2BDE8F08147FA04F1F4
:106AB000EBE7FEF7EDBC704738B50A4B03600123E6
:106AC000044643610849202000F074F820256060E6
:106AD0000549A560284600F06DF8C4E90305204685
:106AE00038BD00BF1800010084920B0030B50E4D78
:106AF0002978BFF35B8F11F0010487B011D12846CC
:106B0000FDF7DCFA68B16846FFF7D6FF6A46214612
:106B10000648FEF77FFF2846FDF7D5FA044801F046
:106B2000A1FE024807B030BD2CE7032030E7032068
:106B3000B76A0B007047000038B5044614252A4692
:106B4000002101F0A3FE2580402507492581284624
:106B5000258200F02FF804496060284600F02AF8EA
:106B6000E060204638BD00BF84920B0030B50E4D6A
:106B70002978BFF35B8F11F0010487B011D128464B
:106B8000FDF79CFA68B101A8FFF7D6FF01AA2146DC
:106B90000648FFF783FD2846FDF795FA044801F003
:106BA00061FE024807B030BD44E7032048E70320F8
:106BB000356B0B00FDF771BA014900F0F9B800BF61
:106BC000A0920B007FB500241023CDE902340368A6
:106BD00015469E6912686B46CDE90044B0479DF8A2
:106BE000043003F00603062B03BF009B2B6001203B
:106BF000204604B070BD0098904214BF01200620CA
:106C00007047000010B5034B0360044600F0CDF858
:106C1000204610BDE0920B0010B50446FFF7F2FFCE
:106C200020460821FDF73BFA204610BD2DE9F04132
:106C30001F46DDE90834DDF81880984506461546FC
:106C400007D1079900F0B4F818B165710020BDE8CC
:106C5000F0813946304600F0ABF80028F6D0012329
:106C6000C4F800802571A371F0E738B515461C46BD
:106C700000F09EF820B10823E3600623256023710D
:106C800038BD73B505460C4601921E4600F090F8DB
:106C900050B9032E08D82368019A5B69294620461B
:106CA00002B0BDE87040184702B070BD10B5034B8C
:106CB00003600446FFF7A6FF204610BD40930B007B
:106CC00010B50446FFF7F2FF20460C21FDF7E7F967
:106CD000204610BDF7B5089F974205460E4614465C
:106CE0000AD0A86802680897156A31462246AC4661
:106CF00003B0BDE8F04060471946019300F058F832
:106D0000019B0028EDD0062003B0F0BD2DE9F14F26
:106D10000D461946DDE90A4BDDE90CA6814617460A
:106D2000984600F045F890B1002D3460377109DBCA
:106D300061198A450CBF06210121B171002001B003
:106D4000BDE8F08F0235F9D10123B371F6E7544560
:106D500006D15946484600F02BF808B17771EDE7A7
:106D6000D9F808000368CDE90CA6CDE90A4BDC6927
:106D70003A4643462946A44601B0BDE8F04F604775
:106D80002DE9F04107460C4615461E46FFF76DFFFC
:106D900048B9B86803689F692A4633462146BC460D
:106DA000BDE8F0416047BDE8F081704700207047C2
:106DB000814208B50ED0406803782A2B0CD0496870
:106DC0000B782A2B08BF013101F096FDB0FA80F054
:106DD000400908BD0120FCE70020FAE700000000A0
:106DE000F8B52DED028B57EC106B55EC114B00F004
:106DF000CBF8634BB0EE408AF0EE608A93F9003036
:106E000001332AD022462B462046294601F0C4FCF5
:106E100018BB32463B463046394601F0BDFC0028DF
:106E200044D1002200233046394601F083FCD8B11A
:106E3000002200232046294601F07CFC00283DD199
:106E400045EC104B00F010FF38B1204629460022D7
:106E5000002301F079FC00285CD1B0EE480AF0EE86
:106E6000680ABDEC028BF8BDB0EE480AF0EE680A85
:106E700000F0FAFE58B351EC180B0022002301F089
:106E800059FC0028E9D047EC106B00F0EDFE00281B
:106E9000E3D045EC104B00F0E7FE0028DDD0FEF714
:106EA0002BFD22239FED2E8B0360D6E7204629463B
:106EB0000022002301F03EFC0028CED09FED2A8B5B
:106EC000B0EE480AF0EE680ABDEC028BF8BD47EC64
:106ED000106B00F0C9FE0028CDD045EC104B00F03F
:106EE000C3FE0028C7D053EC182B18EE100A194621
:106EF00001F052FC20BBFEF7FFFC034622221A6081
:106F0000304639460022002301F01EFC48B99FEDAF
:106F1000188BA2E7FEF7F0FC21239FED178B03608F
:106F20009BE745EC104B00F0B3FE224651EC100BF2
:106F30002B4601F0FFFB0028E9D19FED0F8B8CE77A
:106F4000FEF7DAFC002200232121016010461946D9
:106F500001F0B2FA41EC180B7FE700BFAFF30080FD
:106F60000000000000000000000000000000F03FF2
:106F7000000000000000F07F000000000000F0FFB3
:106F800080E50320000000002DE9F04F57EC116B65
:106F90002DED0C8B27F0004A5AEA060287B03DD04F
:106FA00055EC104B724925F00048884510EE102A28
:106FB000A9462CDC11EE103ABB4636D08A4526DCB9
:106FC0006B498A4521D0B9F1000F39DB00210091CE
:106FD000002B51D1664B9A4500F0A280654B9A4533
:106FE00000F0B080BBF1804F00F0C084624B9B4545
:106FF00042D1B9F1000F3FDB45EC104B07B0BDECBF
:107000000C8BBDE8F04F00F059BD002BDBD008F130
:10701000404808F5801858EA020309D19FED500B4B
:1070200007B0BDEC0C8BBDE8F08F0CB9C245C7DDD5
:10703000524807B0BDEC0C8BBDE8F04F00F020BE0D
:107040004F498A4500F38580A1F154718A450FDDCF
:107050004FEA2A51A1F2FF31142940F39B84C1F178
:10706000340123FA01F000FA01F1994200F0ED84B5
:1070700000210091002BB1D045EC104B029200F0A2
:10708000E9FD029A5ABBB8F1000F04D0394B29F040
:1070900040429A4223D1BBF1000F07DA53EC102B88
:1070A0003449002001F008FA41EC100BB9F1000F4F
:1070B000B6DA009B08F1404808F5801858EA030347
:1070C00040F08D8453EC102B1046194600F012FF4F
:1070D00002460B4601F0F0F941EC100BA0E7009AD4
:1070E0004FEAD973013B0493134335D0254B9A459E
:1070F0004CDD03F104739A45234B40F3DB83984541
:1071000040F36083BBF1000F40F3608316A3D3E923
:1071100000231046194601F0A5F841EC100B7FE75B
:1071200008F1404303F5801313433FF477AF164B48
:10713000984540F37A83BBF1000FC0F2478347ECD8
:10714000106B6DE7BBF1000FC0F21A8445EC104BD9
:1071500066E7022100913BE722462B46B4E700BFD9
:10716000000000000000F03F9C7500883CE4377E82
:107170000000F07F0000F03F0000E03F7C930B0038
:10718000FFFF3F430000E041FFFFEF3FE44B09EA10
:107190000303002253B951EC100BE24B01F062F8EB
:1071A00041EC100B10EE908A6FF034024FEA285336
:1071B000A3F2FF339A18DC4B0592C8F3130848F08A
:1071C0007F54984544F4401407DDD84B984540F36C
:1071D000148401320592A4F580149FEDB96B9FEDE4
:1071E000BA7B53EC162BB0EE47CAF0EE67CA002507
:1071F000B0EE47DAF0EE67DA5BEC10ABA346504630
:10720000594643EC1A2B00F075FE53EC1A2B8046BE
:1072100089465046594600F06FFE02460B46002054
:10722000C34901F049F941EC1B0B404653EC1B2BC1
:10723000494601F017F841EC180B0A460146CDE922
:1072400002120021029164104BEC19AB44F000547F
:10725000DDE902AB04F500230020591904460D4670
:1072600002460B465046594600F0FCFF02460B46CC
:107270004046494600F03EFE53EC1A2B80468946B4
:107280002046294600F036FE02460B4651EC190B0B
:1072900000F030FE52465B4600F0E4FF02460B462B
:1072A0004046494600F026FE53EC1B2B00F0DAFF67
:1072B00053EC182B41EC190B51EC180B00F0D2FFDA
:1072C00083A3D3E9002304460D4600F0CBFF82A33D
:1072D000D3E9002300F010FE22462B4600F0C2FF47
:1072E0007FA3D3E9002300F007FE22462B4600F0DF
:1072F000B9FF7DA3D3E9002300F0FEFD22462B4613
:1073000000F0B0FF7AA3D3E9002300F0F5FD224698
:107310002B4600F0A7FF78A3D3E9002300F0ECFD93
:107320002246804689462B462046294600F09AFF91
:1073300002460B464046494600F094FF524604463A
:107340000D465B4651EC180B00F0D6FD53EC192BA3
:1073500000F088FF22462B4600F0CEFD52468046C4
:1073600089465B465046594600F07CFF02460B4674
:1073700043EC1A2B6F4B002200F0BEFD42464B46F9
:1073800000F0BAFD00240D4622462B4650465946D1
:1073900000F068FF674B82468B4600222046294654
:1073A00000F0A8FD53EC1A2B00F0A4FD02460B469A
:1073B0004046494600F09EFD53EC182B00F052FF6A
:1073C00022462B4604460D4651EC190B00F04AFFAD
:1073D00002460B462046294600F08EFD804689462F
:1073E00042464B465046594600F086FD44A3D3E939
:1073F0000023002004460D4600F034FF524641ECC5
:10740000190B5B462046294600F074FD02460B46E8
:107410004046494600F06EFD3BA3D3E9002300F04F
:1074200021FF02460B462046294614461D4638A336
:10743000D3E9002300F016FF02460B4620462946FA
:1074400000F05AFD53EC1D2B00F056FD80460598C8
:10745000894600F09DFE424682468B464B4651ECE3
:10746000190B00F049FD53EC1C2B00F045FD524672
:107470005B4600F041FD52465B46002004460D4647
:1074800000F038FD53EC1C2B00F034FD53EC192BAD
:1074900000F030FD02460B464046494600F02AFD0A
:1074A000009B049A013B134382468B4640F0B68111
:1074B0009FED197BB0EE478AF0EE678A3CE000BF93
:1074C000000000000000F03F00000000000000008D
:1074D000EF4E454A287ECA3F65DBC9934A86CD3FB9
:1074E00001411DA96074D13F4D268F515555D53F9F
:1074F000FFAB6FDBB66DDB3F033333333333E33F37
:10750000000000E009C7EE3FFD033ADC09C7EE3F8B
:10751000F5015B14E02F3EBE000000000000F0BF4C
:107520000000F07F000040438E98030079B60B0006
:107530000000F03F000008400023CDE90067009301
:10754000DDE90089304642464B46394600F0D2FC20
:1075500022462B4600F086FE32463B4606460F4644
:107560005046594600F07EFE02460B4630463946EC
:1075700000F0C2FC42464B4606460F4620462946CE
:1075800000F070FE04460D462B4630463946224632
:1075900000F0B2FCC24B9942804689468A4640F3CD
:1075A000188101F13F4303F5E003034340F00782F4
:1075B000A3A3D3E900233046394600F09DFC0246E0
:1075C0000B46404649469046994622462B4600F0D7
:1075D00091FC02460B464046494601F0D3F800288C
:1075E00040F0ED81CAF30A534FF48012A3F2FE3348
:1075F00042FA03F35344AB49C3F30A52A2F2FF32F7
:1076000041FA02FCC3F3130141F48011C2F11402E8
:1076100041FA02F2002023EA0C01BAF1000F0092B5
:107620000B46024602DA009949420091204629465B
:1076300000F060FC009B1B05029302460B460446CB
:107640000D463046394600F057FC89464FF0000899
:107650007DA3D3E900234046494600F003FE2246BD
:107660002B4682468B464046494600F043FC024684
:107670000B463046394600F03DFC75A3D3E90023A4
:1076800000F0F0FD74A3D3E9002304460D46404604
:10769000494600F0E7FD02460B462046294600F029
:1076A0002BFC06460F4632463B465046594600F0F4
:1076B00023FC52465B4604460D4600F01BFC024686
:1076C0000B463046394600F015FC22468046894676
:1076D0002B462046294600F0C5FD61A3D3E90023CF
:1076E00006460F4600F0BEFD5FA3D3E9002300F07D
:1076F00001FC32463B4600F0B5FD5DA3D3E9002313
:1077000000F0FAFB32463B4600F0ACFD5AA3D3E949
:10771000002300F0EFFB32463B4600F0A3FD58A3E8
:10772000D3E9002300F0E8FB32463B4600F09AFD27
:1077300002460B462046294600F0DCFB06460F4673
:1077400032463B462046294600F08CFD02460B4659
:107750003046394616461F4600224FF0804300F05F
:10776000C9FB02460B463046394600F0A5FE4246AC
:1077700006460F464B462046294600F073FD42461A
:107780004B4600F0B9FB02460B463046394600F046
:10779000B1FB22462B4600F0ADFB02460B46002013
:1077A000414900F0A7FB029A0B461344B3F5801F32
:1077B000C0F24381194653EC182B00F053FD41EC05
:1077C000100B2DE4BBF1000FFFF6A0AC9FED2E0BCC
:1077D00026E4DFF8DCC021F00043634540F3E78096
:1077E000324B0B4403430AD122462B4600F082FB66
:1077F00032463B4600F0BCFF00283FF4F3AE24A322
:10780000D3E9002351EC180B00F02CFD20A3D3E9A1
:10781000002300F027FD41EC100B01E49FED1E7BDF
:10782000B0EE478AF0EE678A86E6BBF1000FCDDA4C
:1078300007F1004300EE106A00EE903AFFF7F0BB4C
:10784000FE822B654715973C00000000432EE63F63
:10785000EF39FAFE422EE63F396CA80C615C20BE7F
:10786000D0A4BE726937663EF16BD2C541BDBB3E46
:107870002CDE25AF6A56113F93BDBE166CC1663F24
:107880003E5555555555C53F00000000000000000D
:1078900059F3F8C21F6EA501000000000000F03F80
:1078A000FFFF8F40FFFF0F000000F03F00346F3FED
:1078B000FFCB9040984585DB7D4B98453FF722AC48
:1078C00051EC100B7A4B002200F014FB68A3D3E9B3
:1078D000002304460D4600F0C5FC67A3D3E900234E
:1078E00082468B462046294600F0BCFC714B41EC99
:1078F000180B00222046294600F0B4FC02460B4635
:107900005FA1D1E9000100F0F5FA22462B4600F014
:10791000A9FC02460B460020674900F0EBFA22461C
:10792000804689462B462046294600F09BFC0246AD
:107930000B464046494600F095FC53A3D3E900238B
:1079400000F090FC02460B4651EC180B00F0D2FA06
:107950008046894642464B465046594600F0CCFA8E
:10796000002052465B4604460D4691E522462B46D2
:107970002046294600F076FC41EC100BFFF750BB87
:107980004B49002022462B4600F096FD41EC100B9F
:10799000FFF746BB002B44D1C1F114014AFA01F0B4
:1079A00000FA01F151455AD00093FFF717BB424A44
:1079B00093425BDCDDE900120291009146E634A3BC
:1079C000D3E9002351EC180B00F04CFC30A3D3E9B1
:1079D000002300F047FC41EC100BFFF721BB009B9C
:1079E000012B7FF41DAB10EE901A10EE102A01F15E
:1079F000004343EC102BFFF713BB9FED277BB0EE4A
:107A000047CAF0EE67CA9FED267BB0EE47DAF0EE8C
:107A100067DA9FED257B4FF4802553EC172BFFF79A
:107A2000EBBB45EC104B009200F014F9009A002AD1
:107A30007FF492AB0092FFF726BB41EC100B00984D
:107A400000F0C2F951EC100BB5E600F00100C0F1F6
:107A500002010091002B3FF4C1AAFFF70DBB00F01B
:107A60000100C0F102030093FFF7B8BA1B15BBE594
:107A7000000000604715F73F44DF5DF80BAE543E51
:107A8000555555555555D53FFE822B654715F73F42
:107A90009C7500883CE4377E0000004003B8E23F5C
:107AA00006D0CF43EBFD4C3E000000000000F83F45
:107AB0000000F03F0000D03F0000E03F2DE9F04122
:107AC000634A55EC104BAA4300F09F80002D10EE46
:107AD00010CA2B4654DD291563D0C3F31303A1F25A
:107AE000FF37C90743F4801304D45B0003EBDC7356
:107AF0004FEA4C0C4FEADC72002602EB43037F1086
:107B00004FEA4C0C4FF0160E34464FF40012A118F9
:107B1000994202DC5B1A8C1816445B00BEF1010E20
:107B200003EBDC734FEA52024FEA4C0CEFD175467F
:107B300020204FF000420AE044D04FEADC710138C7
:107B400001EB43034FEA4C0C4FEA520243D0A342ED
:107B500002EB0E01F0DD002901EB020E0ADBA0466C
:107B60001B1B614588BF03F1FF33ACEB010C1544CF
:107B70004446E2E7BEF1000FF1DB04F10108EFE754
:107B800025F00042224338D0002D4ED129464FEA3D
:107B9000DC22153913464FEA4C5C002AF7D0D60296
:107BA00050D400205B00DD02044600F10100F9D54D
:107BB0001A4663460CFA00FCC0F12000C340091BC2
:107BC00013438AE76145B8D8002901EB020ED1DBE7
:107BD00098460023C9E753EA0C0310D168087110D6
:107BE000F30701F17F5101F5001148BF40F000405B
:107BF00001EB0753024643EC102BBDE8F0816A1CF1
:107C000016BF681C01364008E9E710EE102A10EE96
:107C1000100A2B46294600F025FB22462B4600F091
:107C20006BF941EC100BBDE8F08110EE102A2046F4
:107C3000294600F05FF902460B4600F03DFC41EC9E
:107C4000100BDAE7634620204FF0FF34B6E700BFA1
:107C50000000F07F51EC100B10EE102A21F00043D1
:107C600043EC102B704700BF82B08DED000B0198E4
:107C700040F0004000F58010C00F02B0704700BF18
:107C80009FED010B704700BF000000000000F87F6F
:107C9000F0B553EC102BC3F30A5CACF2FF3113299F
:107CA00010EE100A83B01C464FEAD37E3ADC00295E
:107CB00030DB424D45FA01FC03EA0C0515432DD09B
:107CC00003EA5C0318434FEA5C0C0CD024EA0C0C6A
:107CD0004FF48024132944FA01F10CBF4FF0004007
:107CE00000204CEA0104364901EBCE0E2346DEE9C2
:107CF000004502462946204600F0FEF8CDE9000185
:107D0000DDE9000122462B4600F0F4F841EC100BAF
:107D100003B0F0BD23F00041114324D143EC102BFC
:107D200003B0F0BD332908DDB1F5806FF6D11946F7
:107D300000F0E2F841EC100BF2E7ACF2134C4FF01C
:107D4000FF3121FA0CF10A42E8D010EA51024FEA61
:107D50005103C8D020EA03034FF0804040FA0CFCE6
:107D600043EA0C00BFE7C3F313031843144A43422A
:107D7000034302EBCE0E1B0B620C03F400235204F0
:107D800043EA02073B46DEE9006710EE102A304660
:107D9000394600F0B1F8CDE9000132463B46DDE955
:107DA000000100F0A7F804F0004421F00041024671
:107DB00041EA040343EC102B03B0F0BDFFFF0F00BA
:107DC00080930B000000000038B553EC102BC3F378
:107DD0000A5104469C4689BB10EE101A23F0004C51
:107DE0005CEA010129D0194600223D4B3D4D10EEC1
:107DF000100A00F037FAAC4202460B4616DB8C46FE
:107E0000C1F30A513639214440F2FE70814221DC2F
:107E1000002947DC11F1350F34DA4CF250318C4235
:107E200018DC002B26A1D1E9000144DB24A3D3E90F
:107E3000002300F017FA41EC100B38BD40F2FF7040
:107E40008142E0D110EE100A194600F055F841ECDD
:107E5000100B38BD002B1CA1D1E9000107DB1AA3D0
:107E6000D3E9002300F0FEF941EC100B38BD18A156
:107E7000D1E9000114A3D3E9002300F0F3F941ECA8
:107E8000100BF3E72CF0FF4C2CF4E00C36314CEAED
:107E90000153104619460022134B00F0E3F941EC60
:107EA000100B38BD2CF0FF4C2CF4E00C4CEA0153C5
:107EB00043EC102B38BD08A1D1E90001B6E700BFA3
:107EC00059F3F8C21F6EA5019C7500883CE4377E0B
:107ED0009C7500883CE437FE59F3F8C21F6EA581FB
:107EE00000005043B03CFFFF0000903C81F0004197
:107EF00002E000BF83F0004330B54FEA41044FEA8F
:107F0000430594EA050F08BF90EA020F1FBF54EA29
:107F1000000C55EA020C7FEA645C7FEA655C00F0C5
:107F2000E2804FEA5454D4EB5555B8BF6D420CDD96
:107F30002C4480EA020281EA030382EA000083EA19
:107F4000010180EA020281EA0303362D88BF30BDB9
:107F500011F0004F4FEA01314FF4801C4CEA11310F
:107F600002D0404261EB410113F0004F4FEA03336E
:107F70004CEA133302D0524263EB430394EA050FF9
:107F800000F0A780A4F10104D5F1200E0DDB02FA68
:107F90000EFC22FA05F2801841F1000103FA0EF2FC
:107FA000801843FA05F359410EE0A5F120050EF1C2
:107FB000200E012A03FA0EFC28BF4CF0020C43FAF3
:107FC00005F3C01851EBE37101F0004507D54FF000
:107FD000000EDCF1000C7EEB00006EEB0101B1F550
:107FE000801F1BD3B1F5001F0CD349085FEA300096
:107FF0004FEA3C0C04F101044FEA445212F5800FA1
:1080000080F09A80BCF1004F08BF5FEA500C50F13D
:10801000000041EB045141EA050130BD5FEA4C0C20
:10802000404141EB0101013C28BFB1F5801FE9D27D
:1080300091F0000F04BF01460020B1FA81F308BFA0
:108040002033A3F10B03B3F120020CDA0C3208DD6C
:1080500002F1140CC2F10C0201FA0CF021FA02F147
:108060000CE002F11402D8BFC2F1200C01FA02F1B7
:1080700020FA0CFCDCBF41EA0C019040E41AA2BFDC
:1080800001EB0451294330BD6FEA04041F3C1CDAA4
:108090000C340EDC04F11404C4F1200220FA04F0C4
:1080A00001FA02F340EA030021FA04F345EA03016E
:1080B00030BDC4F10C04C4F1200220FA02F001FA30
:1080C00004F340EA0300294630BD21FA04F02946B2
:1080D00030BD94F0000F83F4801306BF81F480114B
:1080E0000134013D4EE77FEA645C18BF7FEA655CBE
:1080F00029D094EA050F08BF90EA020F05D054EA90
:10810000000C04BF1946104630BD91EA030F1EBF94
:108110000021002030BD5FEA545C05D14000494198
:1081200028BF41F0004130BD14F580043CBF01F58B
:10813000801130BD01F0004545F0FE4141F4700171
:108140004FF0000030BD7FEA645C1ABF194610464C
:108150007FEA655C1CBF0B46024650EA013406BF4D
:1081600052EA033591EA030F41F4002130BD00BF0C
:1081700090F0000F04BF0021704730B54FF48064C9
:1081800004F132044FF000054FF0000150E700BF4A
:1081900090F0000F04BF0021704730B54FF48064A9
:1081A00004F1320410F0004548BF40424FF0000196
:1081B0003EE700BF42004FEAE2014FEA31014FEAD9
:1081C00002701FBF12F07F4393F07F4F81F0605128
:1081D000704732F07F4208BF704793F07F4F04BF73
:1081E00041F40021704730B54FF4607401F0004550
:1081F00021F000411CE700BF50EA010208BF7047B0
:1082000030B54FF000050AE050EA010208BF7047A0
:1082100030B511F0004502D5404261EB41014FF409
:10822000806404F132045FEA915C3FF4D8AE4FF011
:1082300003025FEADC0C18BF03325FEADC0C18BFF4
:10824000033202EBDC02C2F1200300FA03FC20FA45
:1082500002F001FA03FE40EA0E0021FA02F1144492
:10826000BDE600BF70B54FF0FF0C4CF4E06C1CEAAB
:1082700011541DBF1CEA135594EA0C0F95EA0C0F1C
:1082800000F0DEF82C4481EA030621EA4C5123EA8F
:108290004C5350EA013518BF52EA033541F48011BE
:1082A00043F4801338D0A0FB02CE4FF00005E1FB71
:1082B00002E506F00042E0FB03E54FF00006E1FBBB
:1082C00003569CF0000F18BF4EF0010EA4F1FF04FE
:1082D000B6F5007F64F5407404D25FEA4E0E6D413E
:1082E00046EB060642EAC62141EA55514FEAC5204F
:1082F00040EA5E504FEACE2EB4F1FD0C88BFBCF5CB
:10830000E06F1ED8BEF1004F08BF5FEA500E50F17B
:10831000000041EB045170BD06F0004646EA010141
:1083200040EA020081EA0301B4EB5C04C2BFD4EB73
:108330000C0541EA045170BD41F480114FF0000E6C
:10834000013C00F3AB8014F1360FDEBF002001F0DA
:10835000004170BDC4F10004203C35DA0C341BDC54
:1083600004F11404C4F1200500FA05F320FA04F026
:1083700001FA05F240EA020001F0004221F000415A
:1083800010EBD37021FA04F642EB06015EEA430ECD
:1083900008BF20EAD37070BDC4F10C04C4F12005FD
:1083A00000FA04F320FA05F001FA04F240EA0200B0
:1083B00001F0004110EBD37041F100015EEA430E81
:1083C00008BF20EAD37070BDC4F1200500FA05F2A1
:1083D0004EEA020E20FA04F301FA05F243EA020320
:1083E00021FA04F001F0004121FA04F220EA02002F
:1083F00000EBD3705EEA430E08BF20EAD37070BD75
:1084000094F0000F0FD101F00046400041EB010154
:1084100011F4801F08BF013CF7D041EA060195F036
:10842000000F18BF704703F00046520043EB0303F0
:1084300013F4801F08BF013DF7D043EA06037047DD
:1084400094EA0C0F0CEA135518BF95EA0C0F0CD0E8
:1084500050EA410618BF52EA4306D1D181EA03012E
:1084600001F000414FF0000070BD50EA410606BF28
:108470001046194652EA430619D094EA0C0F02D16D
:1084800050EA013613D195EA0C0F05D152EA0336B2
:108490001CBF104619460AD181EA030101F00041D0
:1084A00041F0FE4141F470014FF0000070BD41F019
:1084B000FE4141F4780170BD70B54FF0FF0C4CF4F3
:1084C000E06C1CEA11541DBF1CEA135594EA0C0F12
:1084D00095EA0C0F00F0A7F8A4EB050481EA030E5F
:1084E00052EA03354FEA013100F088804FEA033346
:1084F0004FF0805545EA131343EA12634FEA022214
:1085000045EA111545EA10654FEA00260EF00041D4
:108510009D4208BF964244F1FD0404F5407402D226
:108520005B084FEA3202B61A65EB03055B084FEAB7
:1085300032024FF480104FF4002CB6EB020E75EBB4
:10854000030E22BFB61A754640EA0C005B084FEADC
:108550003202B6EB020E75EB030E22BFB61A754659
:1085600040EA5C005B084FEA3202B6EB020E75EBA4
:10857000030E22BFB61A754640EA9C005B084FEA1C
:108580003202B6EB020E75EB030E22BFB61A754629
:1085900040EADC0055EA060E18D04FEA051545EA18
:1085A00016754FEA06164FEAC30343EA52734FEAC1
:1085B000C2025FEA1C1CC0D111F4801F0BD141EA3A
:1085C00000014FF000004FF0004CB6E711F4801F9F
:1085D00004BF01430020B4F1FD0C88BFBCF5E06F7F
:1085E0003FF6AFAEB5EB030C04BFB6EB020C5FEA8F
:1085F000500C50F1000041EB045170BD0EF0004EE4
:108600004EEA113114EB5C04C2BFD4EB0C0541EA15
:10861000045170BD41F480114FF0000E013C90E612
:1086200045EA060E8DE60CEA135594EA0C0F08BFD6
:1086300095EA0C0F3FF43BAF94EA0C0F0AD150EAD5
:1086400001347FF434AF95EA0C0F7FF425AF104668
:1086500019462CE795EA0C0F06D152EA03353FF490
:10866000FDAE1046194622E750EA410618BF52EA0D
:1086700043067FF4C5AE50EA41047FF40DAF52EAE1
:1086800043057FF4EBAE12E74FF0FF3C06E000BF7E
:108690004FF0010C02E000BF4FF0010C4DF804CD8B
:1086A0004FEA410C7FEA6C5C4FEA430C18BF7FEA4B
:1086B0006C5C1BD001B050EA410C0CBF52EA430C79
:1086C00091EA030F02BF90EA020F0020704710F1F9
:1086D000000F91EA030F58BF994208BF90422CBF88
:1086E000D8176FEAE37040F0010070474FEA410C81
:1086F0007FEA6C5C02D150EA013C07D14FEA430C9F
:108700007FEA6C5CD6D152EA033CD3D05DF8040B0F
:10871000704700BF8446104662468C461946634641
:1087200000E000BF01B5FFF7B7FF002848BF10F118
:10873000000F01BD4DF808EDFFF7F4FF0CBF01205D
:1087400000205DF808FB00BF4DF808EDFFF7EAFFD9
:1087500034BF012000205DF808FB00BF4DF808ED94
:10876000FFF7E0FF94BF012000205DF808FB00BF89
:108770004DF808EDFFF7CEFF94BF012000205DF813
:1087800008FB00BF4DF808EDFFF7C4FF34BF012020
:1087900000205DF808FB00BF4FEA410C7FEA6C5CEB
:1087A00002D150EA013C0AD14FEA430C7FEA6C5CEB
:1087B00002D152EA033C02D14FF0000070474FF063
:1087C000010070474FEA4102B2F1E04324BFB3F524
:1087D000001CDCF1FE5C0DD901F0004C4FEAC00238
:1087E0004CEA5070B2F1004F40EB830008BF20F01C
:1087F0000100704711F0804F21D113F13872BCBFD6
:1088000001F00040704741F480114FEA5252C2F12A
:108810001802C2F1200C10FA0CF320FA02F018BF73
:1088200040F001004FEAC1234FEAD32303FA0CFCC6
:1088300040EA0C0023FA02F34FEA4303CCE77FEA55
:10884000625307D150EA01331EBF4FF0FE4040F49F
:108850004000704701F0004040F0FE4040F400004E
:10886000704700BF002301461A46184600F056B86C
:108870000A44914200F1FF3300D1704710B511F85E
:10888000014B03F8014F9142F9D110BD0244034658
:10889000934200D1704703F8011BF9E738B5104B3C
:1088A0001D68AB6B0446B3B91820FDF705F8024606
:1088B000A86320B90B4B0C484221FDF725F80B4962
:1088C0000B4BC0E900130B4B83600B23838100210A
:1088D0000120C2E90401AB6B00221C615A6138BD62
:1088E00084E5032090930B00A7930B000E33CDABD0
:1088F00034126DE6ECDE050010F8012B11F8013B97
:10890000012A28BF9A42F7D0D01A7047034613F8BD
:10891000012B002AFBD1181A013870472DE9F843C2
:10892000DFF8B8800646D8F800001F460D4691468D
:1089300000F056F8254B1C6834B9254C1C60254BBB
:1089400013B11B68C4F8883063681F2B07DDD8F8A3
:10895000000000F047F84FF0FF30BDE8F8834EB359
:10896000D4F8880088B91C4B23B9D8F8000000F06F
:1089700038F8F0E74FF48470FCF79EFF0028F4D03D
:108980000023C0E94033C4F88800636840F82390AE
:1089900001229A4000EB8301D0F800311343C0F864
:1089A0000031022EC1F8807002BFD0F804311343A9
:1089B000C0F804316368D8F800005A1C02336260C2
:1089C00044F8235000F00EF80020C6E7E8E7032043
:1089D0005CE7032000000000B9580B00E8E5032025
:1089E000704770477047000021400B005D400B004E
:1089F00085400B0089400B000000000043616C6C57
:108A0000206F6E2070757265207669727475616C66
:108A1000004E6F204368616E6765202D2043616EB4
:108A200063656C6C696E6720434D440A007B226F5E
:108A30006E223A747275652C22736174223A002C8E
:108A400022627269223A002C22687565223A007B04
:108A5000226F6E223A66616C73657D0053656E64A9
:108A6000696E6720436F6D6D616E6420746F20487E
:108A7000756500505554202F6170692F002F6C6967
:108A8000676874732F002F737461746520485454A1
:108A9000502F312E31006B6565702D616C697665E4
:108AA00000486F73743A2000436F6E74656E742DC6
:108AB0004C656E6774683A2000436F6E74656E741F
:108AC0002D547970653A20746578742F706C6169E3
:108AD0006E3B636861727365743D5554462D380072
:108AE00046726F6D2048756500534D41525453488E
:108AF0004F500A00536D6F6B652064657465637435
:108B00006564210A0000000000003E5B4F5B3E3EB2
:108B10006B4F6B3E1C3E7C3E1C183C7E3C181C5729
:108B20007D571C1C5E7F5E1C00183C1800FFE7C3CD
:108B3000E7FF0018241800FFE7DBE7FF30483A069C
:108B40000E2629792926407F050507407F05253F08
:108B50005A3CE73C5A7F3E1C1C08081C1C3E7F14F4
:108B6000227F22145F5F005F5F06097F017F00663E
:108B700089956A606060606094A2FFA29408047E98
:108B8000040810207E201008082A1C08081C2A0847
:108B9000081E101010100C1E0C1E0C30383E383001
:108BA000060E3E0E06000000000000005F00000000
:108BB00007000700147F147F14242A7F2A1223132E
:108BC00008646236495620500008070300001C2242
:108BD00041000041221C002A1C7F1C2A08083E0874
:108BE0000800807030000808080808000060600075
:108BF00020100804023E5149453E00427F40007269
:108C0000494949462141494D331814127F102745DF
:108C10004545393C4A4949314121110907364949FD
:108C20004936464949291E0000140000004034001E
:108C300000000814224114141414140041221408D2
:108C400002015909063E415D594E7C1211127C7F8A
:108C5000494949363E414141227F4141413E7F4998
:108C60004949417F090909013E414151737F080883
:108C7000087F00417F41002040413F017F081422CE
:108C8000417F404040407F021C027F7F0408107FEC
:108C90003E4141413E7F090909063E4151215E7F27
:108CA00009192946264949493203017F01033F40FA
:108CB00040403F1F2040201F3F4038403F63140882
:108CC000146303047804036159494D43007F414113
:108CD000410204081020004141417F0402010204C6
:108CE0004040404040000307080020545478407F33
:108CF000284444383844444428384444287F38546D
:108D000054541800087E090218A4A49C787F080413
:108D1000047800447D40002040403D007F102844FE
:108D20000000417F40007C047804787C08040478CB
:108D30003844444438FC1824241818242418FC7C93
:108D400008040408485454542404043F44243C4078
:108D500040207C1C2040201C3C4030403C442810DB
:108D600028444C9090907C4464544C440008364114
:108D700000000077000000413608000201020402F2
:108D80003C2623263C1EA1A161123A4040207A389D
:108D90005454555921555579412154547841215500
:108DA00054784020545579400C1E52721239555552
:108DB0005559395454545939555454580000457C28
:108DC000410002457D420001457C40F0292429F004
:108DD000F0282528F07C545545002054547C547CC0
:108DE0000A097F4932494949323248484832324AB1
:108DF0004848303A4141217A3A42402078009DA0CB
:108E0000A07D39444444393D4040403D3C24FF244A
:108E100024487E4943662B2FFC2F2BFF0929F6207F
:108E2000C0887E090320545479410000447D4130BC
:108E300048484A32384040227A007A0A0A727D0D48
:108E400019317D2629292F28262929292630484D00
:108E50004020380808080808080808382F10C8AC4F
:108E6000BA2F102834FA00007B000008142A1422BC
:108E700022142A1408AA005500AAAA55AA55AA0025
:108E80000000FF00101010FF00141414FF00101059
:108E9000FF00FF1010F010F0141414FC001414F76D
:108EA00000FF0000FF00FF1414F404FC141417105A
:108EB0001F10101F101F1414141F00101010F000AA
:108EC0000000001F101010101F10101010F01000E4
:108ED0000000FF101010101010101010FF100000F4
:108EE00000FF140000FF00FF00001F10170000FC2F
:108EF00004F414141710171414F404F40000FF0001
:108F0000F714141414141414F700F7141414171489
:108F100010101F101F141414F4141010F010F0008F
:108F2000001F101F0000001F14000000FC140000B0
:108F3000F010F01010FF10FF141414FF1410101094
:108F40001F00000000F010FFFFFFFFFFF0F0F0F047
:108F5000F0FFFFFF0000000000FFFF0F0F0F0F0FDB
:108F600038444438447C2A2A3E147E020206060213
:108F70007E027E0263554941633844443C04407E8E
:108F8000201E2006027E020299A5E7A5991C2A4907
:108F90002A1C4C7201724C304A4D4D303048784892
:108FA00030BC625A463D3E494949007E0101017E7E
:108FB0002A2A2A2A2A44445F444440514A444040D1
:108FC000444A51400000FF0103E080FF0000080810
:108FD0006B6B083612362436060F090F0600001890
:108FE000180000001010003040FF0101001F0101B7
:108FF0001E00191D1712003C3C3C3C000000000004
:109000000000000000000000000000000000000060
:109010002D470B00095D0B00A5400B0045440B00DC
:109020006B450B0087450B0003450B00A1450B006A
:10903000D7450B00F3450B000000000000000000C6
:109040009D4A0B002D4B0B002D470B00095D0B00BB
:10905000A14A0B0045440B0029490B00B9470B00FE
:1090600003450B00A1450B00D7450B00F3450B0052
:109070002C01000018000000F40100002C01000089
:109080005000000000000000000000000000000090
:10909000000000009F590B0095590B008B590B00E5
:1090A00081590B0075590B0069590B00E55B0B00EA
:1090B000ED5B0B005D590B0055590B004B590B0034
:1090C00041590B001D5C0B00000000000000000077
:1090D000BD590B00075A0B00DF590B00BF590B009D
:1090E000E7590B00EF590B00F7590B00FF590B0024
:1090F0000000000000000000895A0B00795A0B00A4
:109100007B5A0B006170700000000000000000003E
:10911000A55B0B00AF5B0B00B95B0B00C35B0B00E7
:10912000CD5B0B00D95B0B00E55B0B00ED5B0B002F
:10913000F55B0B00015C0B00095C0B00135C0B0082
:109140001D5C0B0000081018202830387769726900
:109150006E670072656376206572726F72203D20C3
:10916000256400000000000000000000F9600B0012
:109170001D610B0007660B002B610B00FD600B00EF
:109180000000000000000000E9400B001D410B0042
:1091900075600B008F600B009D640B00B9600B00C5
:1091A00013630B00ED600B00A5630B00E5610B0082
:1091B00041630B0051650B00E1620B00EF600B0097
:1091C000A1600B0031610B00C5610B0025592D25F5
:1091D0006D2D25645425483A254D3A2553257A00AE
:1091E00061736374696D6500000000000000000099
:1091F00021660B008D660B0065660B00095D0B0098
:1092000035660B0051660B0043660B005F660B0072
:1092100023660B0027660B00000000000000000022
:10922000CB660B0033670B0009670B00095D0B0071
:10923000FB660B00CD660B00DD660B002D670B0097
:10924000ED660B00C5660B0000000000000000008A
:1092500023680B0019680B000F680B00C5670B0033
:1092600003680B00F7670B00E55B0B00ED5B0B0081
:10927000EB670B00E3670B00D9670B00CF670B00B0
:109280001D5C0B0000537431395F53705F6D616B6F
:10929000655F7368617265645F74616700000000F8
:1092A000E0920B0085920B0040930B00B4920B00F0
:1092B00064930B004E31305F5F637878616269764A
:1092C0003131375F5F636C6173735F747970655FB1
:1092D000696E666F4500000000000000A8920B0058
:1092E000056C0B00196C0B00AD6D0B00AD6D0B0028
:1092F000836C0B00C56B0B006B6C0B002D6C0B00B3
:10930000F76B0B0040930B0010930B00A8920B001F
:109310004E31305F5F637878616269763132305FF9
:109320005F73695F636C6173735F747970655F69A4
:109330006E666F45000000000000000004930B0003
:10934000AD6C0B00C16C0B00AD6D0B00AD6D0B0077
:10935000836C0B00C56B0B00816D0B000D6D0B005A
:10936000D56C0B00E0920B006C930B0053743974B6
:109370007970655F696E666F000000000000000094
:10938000000000000000304300000000000030C377
:109390005245454E54206D616C6C6F63207375634C
:1093A000636565646564002F746D702F6A656E6B0C
:1093B000696E732D4743432D31302D706970656C94
:1093C000696E652D34385F32303230313132345F7E
:1093D000313630363138303633392F7372632F6E71
:1093E00065776C69622F6E65776C69622F6C696254
:1093F000632F7374646C69622F72616E642E6300F4
:1094000099430B00E1530B0031590B00A9590B0094
:10941000955B0B00F55C0B00155E0B0051600B00BB
:109420000D660B002D680B0000000000000000001E
:10943000040000001400000003000000474E550027
:109440006EBADB5C9C9A9A3655AAB8250D91BD8FF1
:04945000F91ADD0523
:049454000000000014
:10945800C8AF0000E45700008CB900008813000072
:1094680050C30000102700000800000030750000FD
:10947800000103070F1F3F7F0080C0E0F0F8FCFEEB
:1094880000000000000000000000000000000000D4
:1094980000000000000000000000000000000000C4
:1094A80000000000000000000000000000000000B4
:1094B8000000000000000000000000000000008024
:1094C8008080000000000000000000000000000094
:1094D800008080C0C0000000000000000000000004
:1094E8000000000000000000000000000000000074
:1094F8000000000000000000000000000000000064
:109508000000000000000000000000000000000053
:109518000000000080C0E0F0F8FCF8E00000000067
:1095280000000000000000000000000000808080B3
:10953800808000808000000000808080808000FFA4
:10954800FFFF000000008080808000008080000015
:1095580080FFFF8080008080008080808000808085
:109568000000000000808000008C8E84000080F8DD
:10957800F8F8800000000000000000000000000073
:10958800F0F0F0F0F0F0F0F0F0F0F0F0E0E0C08093
:1095980000E0FCFEFFFFFF7FFFFFFFFFFF00000072
:1095A8000000000000000000000000FEFFC70101ED
:1095B800010183FFFF00007CFEC70101010183FF59
:1095C800FFFF0038FEC78301010183C7FFFF0000CA
:1095D80001FFFF010100FFFF0701010100007FFFFC
:1095E80080000000FFFF7F0000FFFFFF000001FF79
:1095F800FFFF010000000000000000000000000064
:10960800030F3F7F7FFFFFFFFFFFFFFFE7C7C78F06
:109618008F9FBFFFFFC3C0F0FFFFFFFFFFFCFCFCF5
:10962800FCFCFCFCFCF8F8F0F0E0C00001030303CC
:109638000303010303000000000103030303010106
:1096480003010000000103030303010103030000F9
:1096580000030300000003030000000000000001F5
:1096680003030303030100000001030100000003DA
:1096780003010000000000000000000000000000DE
:1096880000000080C0E0F0F9FFFFFFFFFF3F1F0F61
:1096980087C7F7FFFF1F1F3DFCF8F8F8F87C7DFF30
:1096A800FFFFFFFFFFFFFF7F3F0F07003030000085
:1096B80000000000000000000000000000000000A2
:1096C80000000000FEFEFC0000000000000000009A
:1096D80000000000000000000000000000E0C000E2
:1096E8000000000000000000000030300000000012
:1096F8000000000000000000000000000000000062
:1097080000C0FEFFFFFFFFFFFFFFFFFF7F7F3F1F40
:109718000F071F7FFFFFF8F8FFFFFFFFFFFEF8E0CE
:10972800000000010000000000000000FEFE000034
:1097380000FCFEFC0C06060EFCF80000F0F81C0EFF
:109748000606060CFFFFFF0000FEFE00000000FCFE
:10975800FEFC00183C7E66E6CE84000006FFFF068D
:1097680006FCFEFC0C0606060000FEFE0000C0F823
:10977800FC4E4646464E7C7840183C76E6CECC8079
:1097880000000000000000000000000000000000D1
:109798000000000001070F1F1F3F3F3F3F1F0F033F
:1097A8000000000000000000000000000F0F000093
:1097B800000F0F0F000000000F0F000003070E0C32
:1097C80018180C060F0F0F0000010F0E0C180C0FC5
:1097D800070100040E0C180C0F070000000F0F0003
:1097E800000F0F0F0000000000000F0F000000071F
:1097F800070C0C181C0C060600040E0C180C0F079E
:109808000000000000000000000000000000000050
:109818000000000000000000000000000000000040
:109828000000000000000000000000000000000030
:109838000000000000000000000000000000000020
:109848000000000000000000000000000000000010
:109858000000000000000000000000000000000000
:1098680000000000000000000000000000000000F0
:1098780000000000000000000000000000000000E0
:10988800E0910B00FF00000088E5032000000000C5
:1098980000000000000000000000000000000000C0
:1098A80000000000000000000000000000000000B0
:1098B80000000000000000000000000000000000A0
:1098C8000000000000000000000000000000000090
:1098D8000000000000000000000000000000000080
:1098E800000000000000000000000000ECE703207A
:1098F800FFFFFFFF00000102030405060708090A2D
:109908000B0C0D0E0F101112131415161718191A27
:089918001B1C1D1E1F2028006E
:04992000785634122F
:04000003B0004020E9
:00000001FF
