:02000002B0004C
:1040000000400B002C660B00000006000C000502AF
:084010000401A60F00000000EE
:0440180090600B00A9
:10401C0009480A49884208B505D0094A824202D0AB
:10402C00121A01F06BFF0748074A0021121A01F01F
:10403C0073FF014808BD00BF98E5032078650B00AD
:10404C0024E6032024E60320EDE7032070B5074E99
:10405C00074C01F037FDA41BA4080025AC4200D18D
:10406C0070BD56F8043B98470135F7E72C650B00FB
:10407C0050650B0000F080B908B500F0EFF9BDE811
:10408C00084001F0D7BC00F0A1BC00F09FBC00F0D0
:10409C00A5BC0078B0FA80F040097047012303708A
:1040AC00704770B50C1E064615460BDA0A2A09D164
:1040BC002D2100F0CBFE6142EAB23046BDE87040E3
:1040CC0000F0DDBE2146F7E70EB403B503AB0021CB
:1040DC0053F8042B019300F0F0FE02B05DF804EBF2
:1040EC0003B0704738B584690A4B036005467CB150
:1040FC006368013B63605BB9236820469B68984703
:10410C00A368013BA3601BB923682046DB68984772
:10411C00284638BDC8620B0010B50446FFF7E2FF15
:10412C0020461C21FFF7B3FF204610BD2DE9F041BE
:10413C008CB005460F4668467749DDF84880144632
:10414C001E4600F070FFDFF828E27449DEF80030FC
:10415C007348744ADFF81CC2AB4219D10B68BB42DE
:10416C0016D10368A34213D11368B34210D1DCF803
:10417C00003043450CD101F08BFB6B49FFF7A4FFDA
:10418C000024684600F004FF20460CB0BDE8F08126
:10419C00CEF800500F6004601660CCF80080002F41
:1041AC0000F0B5806149684600F06BFF694608A8CD
:1041BC0000F05CFF0A22414604A800F074FF04A939
:1041CC0008A800F0A7FF5A4900F0B0FF0146684666
:1041DC0000F03DFF04A800F0DBFE08A800F0D8FEBC
:1041EC00694608A800F042FF0A22314604A800F0F4
:1041FC005AFF04A908A800F08DFF4E4900F096FF65
:10420C000146684600F023FF04A800F0C1FE08A890
:10421C0000F0BEFE694608A800F028FF0A222146DD
:10422C0004A800F040FF04A908A800F073FF42495D
:10423C0000F07CFF0146684600F009FF04A800F07E
:10424C00A7FE08A800F0A4FE3C493D4800235022DC
:10425C0001F04CF80446002893D001F019FB3949C1
:10426C0000F003FE01F014FB009900F0FEFD36494E
:10427C00334800F0E7FD3549314800F0E3FD34499F
:10428C002F4800F0DFFD0A222D482946FFF709FFD1
:10429C0030492B4800F0E9FD2F49294800F0E5FD95
:1042AC002E49274800F0CEFD2449254800F0DDFDBD
:1042BC002B49234800F0C6FD0A220299204800F041
:1042CC00DEFD1F4800F0C5FD26491D4800F0CDFD60
:1042DC001B4800F0BEFD0099194800F0C6FD01F026
:1042EC00D7FA214900F0C1FD01F0D2FA1449044675
:1042FC0008A800F039FE0899204600F0B6FD08A881
:10430C0000F046FE0E4801F0A7F9012439E71749E1
:10431C00684600F0B6FE97E78B610B0090E6032031
:10432C0098E6032088E60320A4600B00C0600B0015
:10433C00D2600B00DA600B00ED600B00C0610B006B
:10434C0024E60320EF600B0006610B0097610B0065
:10435C0010610B0019610B0029610B0034610B001B
:10436C003B610B004C610B0073610B00E2600B00B6
:10437C008CE6032094E6032030B595B001F088FA62
:10438C004FF4165101F074FA2E4B0021188801F0ED
:10439C0009FC00F02FF92C4B1860002000F032F9CA
:1043AC0043F698250446002000F02CF9001B61F11F
:1043BC000001A84271F1000307D201F069FA01F083
:1043CC005BFA10B900F08AFAEDE701F061FA1F4CC4
:1043DC001F4D01F051FA00231A461946606800F08F
:1043EC00ADFA3822002106A801F096FD4C2301936A
:1043FC00184B02930A220023CDE90323194601AA84
:10440C006068059300F0BAFA002360681A461946F2
:10441C0000F074FA00226068114600F077FA28B1B7
:10442C0001F036FA2946FFF74FFEF3E74FF47A70A6
:10443C0000F004FB01F02CFA0749FFF745FE15B01C
:10444C0030BD00BFB0E50320B4E603200CE7032029
:10445C0087610B007C610B0089610B0037B5324B17
:10446C00324D1888324C002101F0ADFB314A2860E6
:10447C0013681844106000F0BDF82F4B1B68C01A6D
:10448C002E4B1B6898422DD900F0B4F82860FF25FC
:10449C00226800952B4601210520FFF747FE226874
:1044AC0000952B4601210420FFF740FE2268009561
:1044BC002B4601210320FFF739FE226800952B467D
:1044CC0001210220FFF732FE226800952B460121C4
:1044DC000120FFF72BFE01F0DBF91949FFF7F4FD82
:1044EC0003B030BDFF25226800952B460021052026
:1044FC00FFF71CFE226800952B4600210420FFF7D5
:10450C0015FE226800952B4600210320FFF70EFEB6
:10451C00226800952B4600210220FFF707FE226837
:10452C0000952B460021D3E7B0E503209CE6032041
:10453C005CE60320B0E60320B4E60320B4E50320D8
:10454C008C610B0008B51649164800F06CFD164A34
:10455C00164B12681A60164A164812685A60164AA8
:10456C0012689A60154A1268DA60154A12681A6164
:10457C00144A12685A61144A12689A6101F0B6F82A
:10458C00124801F0B3F8124B0022C3E90022A2F545
:10459C0080329A60BDE80840022000F07BB900BF71
:1045AC008B610B00A0E603205CE6032040E60320B1
:1045BC00A4E5032024E60320ACE503209CE50320BE
:1045CC0098E50320A0E50320A8E503206CE6032072
:1045DC0060E6032008B5024B1B685B6C019308BDB9
:1045EC004802030008B5024B1B685B68019308BDC9
:1045FC001802030008B5024B1B685B69019308BDE8
:10460C001802030008B5024B1B68DB6D019308BD53
:10461C001802030008B5024B1B689B68019308BD88
:10462C002C02030008B5024B1B68DB6C019308BD20
:10463C002C02030008B5024B1B681B6A019308BDD2
:10464C002802030008B5024B1B685B6A019308BD86
:10465C002802030008B5024B1B689B6A019308BD36
:10466C002802030008B5024B1B68DB6A019308BDE6
:10467C002802030008B5024B1B681B6B019308BD95
:10468C002802030008B5024B1B685B6B019308BD45
:10469C002802030008B5024B1B681B6C019308BD74
:1046AC002802030008B5024B1B685B69019308BD27
:1046BC006C02030008B5024B1B685B69019308BDD3
:1046CC006402030008B5024B1B681B6A019308BD0A
:1046DC006402030008B5024B1B689B6A019308BD7A
:1046EC006402030008B5024B1B689B68019308BD6C
:1046FC006802030008B5024B1B68DB68019308BD18
:10470C006802030008B5024B1B689B69019308BD46
:10471C003802030008B5024B1B68DB69019308BD26
:10472C003802030008B5024B1B681B6A019308BDD5
:10473C003802030008B5024B1B689B6A019308BD45
:10474C003802030008B5024B1B681B6B019308BDB4
:10475C003802030008B5024B1B689B6B019308BD24
:10476C003802030008B5024B1B68DB69019308BDD6
:10477C003002030008B5024B1B681B6A019308BD8D
:10478C003002030008B5024B1B68DB68019308BDBF
:10479C003C02030008B5024B1B681B69019308BD62
:1047AC003C02030008B5024B1B685B69019308BD12
:1047BC003C02030008B5024B1B689B69019308BDC2
:1047CC003C02030008B5024B1B68DB69019308BD72
:1047DC003C02030008B5024B1B681B6A019308BD21
:1047EC003C02030008B5024B1B689B6A019308BD91
:1047FC003C02030008B5024B1B681B6C019308BDFF
:10480C003C02030008B5024B1B681B68019308BDF2
:10481C004C02030008B5024B1B685B68019308BD92
:10482C004C02030008B5024B1B681B69019308BDC1
:10483C004C02030008B5024B1B685B69019308BD71
:10484C004C02030008B5024B1B689B69019308BD21
:10485C004C02030008B5024B1B68DB69019308BDD1
:10486C004C02030008B5024B1B681B6A019308BD80
:10487C004C02030008B5024B1B689B6A019308BDF0
:10488C004C02030008B5024B1B681B6D019308BD5D
:10489C006002030008B5024B1B685B68019308BDFE
:1048AC002002030008B5024B1B685B69019308BD2D
:1048BC002002030008B5034B1B68D3F88830019322
:1048CC0008BD00002002030008B5034B1B68D3F899
:1048DC009430019308BD00002002030008B5024B80
:1048EC001B689B68019308BD4402030008B5024B8A
:1048FC001B68DB6B019308BD4402030008B5024B37
:10490C001B685B68019308BD4002030008B5024BAD
:10491C001B689B68019308BD4002030008B5024B5D
:10492C001B68DB68019308BD4002030008B5024B0D
:10493C001B681B69019308BD4002030008B5024BBC
:10494C001B685B69019308BD4002030008B5024B6C
:10495C001B689B69019308BD4002030008B5024B1C
:10496C001B68DB69019308BD4002030008B5024BCC
:10497C001B681B6A019308BD4002030008B5024B7B
:10498C001B689B6A019308BD4002030008B5024BEB
:10499C001B681B6B019308BD4002030008B5024B5A
:1049AC001B685B6B019308BD4002030008B5024B0A
:1049BC001B681B6C019308BD4002030008B5024B39
:1049CC001B685B6C019308BD4002030008B5024BE9
:1049DC001B681B68019308BD1C02030008B5024B41
:1049EC001B685B68019308BD1C02030008B5024BF1
:1049FC001B689B68019308BD1C02030008B5024BA1
:104A0C001B685B6A019308BD1C02030008B5024BCE
:104A1C001B68DB6B019308BD1C02030008B5024B3D
:104A2C001B681B6C019308BD1C02030008B5024BEC
:104A3C001B685B6C019308BD1C0203000021FFF78F
:104A4C0031BF0000024800230360FFF7C3BD00BF65
:104A5C00B8E60320002240681146FFF787BF00220A
:104A6C0040681146FFF79ABF40680022FFF78EBFDF
:104A7C004068002281F00101FFF770BF00234068FD
:104A8C001A461946FFF762BF002340681A461946BA
:104A9C00FFF754BF002240681146FFF747BF0022C2
:104AAC0040681146FFF732BF406800220221FFF731
:104ABC0035BF002340681A46FFF720BF024B032284
:104ACC005A60024A1A607047BCE60320DC610B0096
:104ADC007047F8B5064615460C468F18BC4206D0F2
:104AEC00336814F8011B9B6830469847F6E7284654
:104AFC00F8BD007C0022FFF79DBD007C0021FFF774
:104B0C00A1BD007C0021FFF7A5BD007C0021FFF7B3
:104B1C00A9BD007C0021FFF7ADBD10B514210446E2
:104B2C00FFF7B5FA204610BD38B5044615464FF4CC
:104B3C007A730022C4E90123094B217408462360CF
:104B4C002946FFF7A7FDBF3008D16B69DB0705D5F8
:104B5C006868FFF743FFE868FFF740FF204638BD61
:104B6C0018620B00704710B518210446FFF78FFA36
:104B7C00204610BDF0B5037D062B8DB00E4600F11E
:104B8C0004074FF0000412D000F1080515F8011DC0
:104B9C000A22304600F073F9AF42044419D0002CBD
:104BAC00F4D02E21304600F051F90444EEE72F23C7
:104BBC006A4639460A208DF80040FFF77BFD6846AF
:104BCC0001F0F2F933680246DB68694630469847D3
:104BDC00044620460DB0F0BD10B5054B044611221D
:104BEC0040F8043B002101F097F9204610BD00BFAE
:104BFC0040620B000346074A10B543F8042B01F141
:104C0C00100251F8044B43F8044B9142F9D10A7845
:104C1C001A7010BD40620B00037D042B04D1406858
:104C2C00003818BF01207047062B07D143683BB9E9
:104C3C0083682BB9C3681BB90069F1E70020704782
:104C4C000120704710B59DF8084044EA032343EA5D
:104C5C00024242EA016104234160037510BD000069
:104C6C0007B5064B0360CB7800938B784A780978AC
:104C7C00FFF7E8FF03B05DF804FB00BF40620B00D8
:104C8C00014B024A1A607047C4E603204C620B00C9
:104C9C00002340681A46FFF731BE4068002202210B
:104CAC00FFF73CBE002240681146FFF72FBE0022E2
:104CBC0040681146FFF73ABE002340681A46194671
:104CCC00FFF73CBE002340681A461946FFF73EBE6C
:104CDC0040680021FFF76ABE40680021FFF76EBEF6
:104CEC004068002281F00101FFF738BE40680022C5
:104CFC00FFF74CBE002240681146FFF74FBE002262
:104D0C0040681146FFF732BE2DE9F04395B01446CA
:104D1C000D460746FFF760FF00211C220DA80091ED
:104D2C0001F0FAF840230C9320466B460CAA0021A4
:104D3C00FFF7E0FC044600284BD1024601216868CD
:104D4C00FFF7F4FD0221804622466868FFF7EEFD6E
:104D5C00009E81462146002E3BD0002939D1736834
:104D6C00022B03D00A2B11D0F669F4E7B8F1000F2F
:104D7C00FAD0716906A8043107ADFFF771FF0FCDAA
:104D8C003C1D0FC42B6823704146EDE7B9F1000FB1
:104D9C00EAD07469102201A801F0BEF806238DF840
:104DAC00143001AD04F108031834186859682A4608
:104DBC0003C20833A3421546F7D101A906A807ADD3
:104DCC00FFF718FF0FCD3C1D0FC42B68237049460D
:104DDC00CAE70098FFF786FC384615B0BDE8F083AB
:104DEC00024B034A1A6000225A607047C8E603203F
:104DFC0058620B00F8B506460D468F180024BD42CC
:104E0C000CD0336815F8011B9B6830469847031E7D
:104E1C0001DB1C44F3E7002C08BF1C462046F8BD00
:104E2C0013B50446084659B1019101F0BDF8236849
:104E3C000199DB680246204602B0BDE810401847D5
:104E4C0002B010BD08B5FFF7EBFF08BD03689B6807
:104E5C00184738B50D210546FFF7F8FF0A2104461F
:104E6C002846FFF7F3FF204438BD38B50546FFF759
:104E7C00D7FF04462846FFF7ECFF204438BD30B579
:104E8C008BB00023012A8DF8243098BF0A2209AC7C
:104E9C000D46B1FBF2F101FB125303F0FF03092B9A
:104EAC0094BF30333733DBB2AA4204F8013DEFD95B
:104EBC002146FFF7B5FF0BB030BD2DE9F04186B0B0
:104ECC0000AF05460E46381D142114463B60FFF713
:104EDC0095FD13280ED8391D2846FFF7A1FF04466F
:104EEC001EB12846FFF7B5FF044420461837BD46CF
:104EFC00BDE8F08100F1080323F00703E846ADEBB1
:104F0C00030D2246411C3B686846FFF777FD694656
:104F1C002846FFF785FF0446C546E1E7014B002212
:104F2C009A607047D0E6032010B5044608462170FD
:104F3C00FFF718FC00236360204610BD10B5044633
:104F4C00FFF758FBE060236820465B699847002810
:104F5C0008DAFFF74FFBE368C01AA3689842F2D354
:104F6C004FF0FF3010BD000038B50D460749044620
:104F7C0000F059F82846FFF7E1FF002804DBC1B226
:104F8C00204600F0BAF8F5E7204638BD8B610B00DF
:104F9C0010B504460068FFF721FD204610BD10B582
:104FAC000446006808B1FFF719FD0023C4E901337A
:104FBC00236010BD38B504460D4600680131FFF77B
:104FCC0015FD10B1C4E90005012038BD10B503680A
:104FDC00044623B143688B4201D3012010BD204607
:104FEC00FFF7E8FF0028F9D0A368002BF5D1226861
:104FFC001370F2E737B50D46114601920446FFF7E0
:10500C00E5FF019A28B92046FFF7C9FF204603B0F7
:10501C0030BDA2602946206800F070FF2268A368AA
:10502C000021D154F2E7002313B5C0E90033044644
:10503C008360037341B10846019100F0B5FF0199FB
:10504C0002462046FFF7D6FF204602B010BD88422C
:10505C0010B5044605D00B682BB18A681946FFF7CA
:10506C00C9FF204610BDFFF79AFFFAE710B50023E1
:10507C000446C0E9003383600373FFF7E8FF204662
:10508C0010BD13B5044659B10846019100F08CFFD0
:10509C00019902462046FFF7ADFF204602B010BD35
:1050AC00FFF77DFFF9E710B504468AB00023C4E989
:1050BC000033A3602373084601A900F083FC01A907
:1050CC002046FFF7DEFF20460AB010BD70B505463E
:1050DC000E4609B9002070BD6AB18468144421469B
:1050EC00FFF774FF0028F5D02868AB6831461844E8
:1050FC0000F052FFAC600120EDE707B500238DF8FE
:10510C000410012201A98DF80530FFF7DFFF03B071
:10511C005DF804FB10B58A6809680446FFF7D6FFF2
:10512C0010B92046FFF73BFF204610BD13B50446CF
:10513C0029B92046FFF733FF204602B010BD0846C0
:10514C00019100F031FF019902462046FFF7BEFFA6
:10515C000028EED0F0E70000054B02221A60054B48
:10516C00054A9A600020C3E90000FFF793BB00BF1B
:10517C00ECE60320E0E603200000FFFF13B5036814
:10518C008DF80710DC6B01224FF0FF330DF1070196
:10519C00A04702B010BD10B40368DC6B4FF0FF33B6
:1051AC00A4465DF8044B604713B5134602688DF8AE
:1051BC000710D46B0DF107010122A04702B010BDFE
:1051CC0010B54369B3F88620B3F884309A4204468C
:1051DC0008D06369B3F88420511CA3F884101344DD
:1051EC00187910BD03681B6998470028F1D14FF05E
:1051FC00FF30F6E7704743691868C043C00F70472B
:10520C0070470000064B994210B500F10C0405D014
:10521C00084600F05BFD002808BF0024204610BDA6
:10522C00CC610B0010B5AC210446FEF730FF2046D4
:10523C0010BDAC21FEF72BBF2DE9F0414FF000085B
:10524C0086B01C46C0F8048005460E4617464146FB
:10525C00102202A800F060FE631C09D04FF47A7390
:10526C00B4FBF3F203FB1244CDE902285C43049433
:10527C00686910230093006802AB41F2050240F606
:10528C00FF71FFF73FFA002807DAFFF7BFFB03684F
:10529C006B60002006B0BDE8F081686900230068EF
:1052AC003A463146FFF74EFA031EEEDB1846F1E79D
:1052BC0030B587B0044601AD6846FFF7D1FC0FCD81
:1052CC0004340FC42B68237007B030BD70B54D6922
:1052DC00054B04468C3544F8043B06460FCD0FC4F1
:1052EC002B682370304670BD40620B002DE9F043F3
:1052FC009846036893B00D460024DB6A06461746B1
:10530C00984728466B46224621460094FFF7F2F94F
:10531C000546002863D1009B002B4BD05B69002B0A
:10532C0048D006A8FFF758FC009B5C696378022BF9
:10533C0004D1211D06A8FFF7BBFF26E00A2B24D1C0
:10534C001122294601A800F0E7FDA368002B38D0F4
:10535C0004F108030DF1040C1834186859686246FE
:10536C0003C20833A3429446F7D1062301A90CA823
:10537C008DF81430FFF73EFC0DF1340CBCE80F0037
:10538C0007AC0FC4DCF80030237006A8FFF744FC10
:10539C0080B1336807ADD3F82090124B0C930FCD2E
:1053AC000DAC0FC42B6823703A4643460CA930460B
:1053BC00C84705460098FFF795F9284613B0BDE895
:1053CC00F083E368002BC3D14FF6FF70D4F8109034
:1053DC00FFF778F98145BBD104F11401AAE7254602
:1053EC00E8E700BF40620B0038B543691A68002A31
:1053FC00054610DAB3F88620B3F884309A420AD105
:10540C0003681B699847044628B92B682846DB6A51
:10541C009847204638BD0120FCE710B54369B3F826
:10542C008620B3F884309A42044605D06369B3F8F9
:10543C0084201344187910BD03681B699847002811
:10544C00F4D14FF0FF30F6E7F8B543691746B3F8DF
:10545C008620B3F884309A4205460E4616D0696908
:10546C00B1F88430B1F88640E41ABC4228BF3C46FF
:10547C00043322461944304600F040FD6A69B2F804
:10548C0084302344A2F884302046F8BD03681B699D
:10549C0098470028E3D14FF0FF34F5E74269002329
:1054AC00A2F884304269A2F8863070472DE9F041A9
:1054BC001F4603680C46DB6A8AB0054616469847B9
:1054CC00237DD5F81480042B0CBF02200A20062261
:1054DC000121FFF73FF9C8F800006B691B68002B2E
:1054EC0008DA2B682846DB6A0024984720460AB065
:1054FC00BDE8F0812846FFF7D1FFB7B1002303A91F
:10550C00F8B20393ADF81030FFF7CCF80028E8D1CF
:10551C00686906230093006803AB41F20B0240F666
:10552C00FF71FFF7EFF80028DBD11C22002103A844
:10553C0000F0F2FC237D042B1DD14FF40773304691
:10554C00ADF80C30FFF7C6F8ADF80E006068FFF749
:10555C00B9F804906B691C22186803A9FFF7E2F8EC
:10556C000028BED104340FCC6D698C350FC523686F
:10557C002B700124BAE740F61C233046ADF80C30F2
:10558C00FFF7A8F805AEADF80E00231D04F11407C3
:10559C0018685968324603C20833BB421646F7D125
:1055AC00D8E7000030B54269B2F886308BB00446BB
:1055BC002BB1B2F884209A4201D1FFF76FFF6169D9
:1055CC000868002818DBB1F886507F2D14D80431F8
:1055DC000823C5F180022944FFF7ACF8002813DD3D
:1055EC006369B3F886200AB9A3F884206369B3F819
:1055FC0086201044A3F886006369B3F88600B3F8DC
:10560C008430C01A0BB030BDFFF700FA03680B2BC7
:10561C00F2D0FFF7FBF903680B2BEDD0202300250C
:10562C00CDE90235FFF7F2F903680193084B0949FC
:10563C00009302AA2B463220FFF724F963691868FD
:10564C00FFF768F863694FF0FF321A60D4E700BFC8
:10565C0093620B008C620B0010B54369044618680A
:10566C00002801DBFFF756F863694FF0FF321A6030
:10567C006069112200218C3000F04EFC2046BDE800
:10568C001040FFF70BBF10B5002304460160C0F8B3
:10569C0084308830FFF7A0FA204610BD73B5002384
:1056AC004FF47A72C0E901320E4A03610260436121
:1056BC000446AC200191FEF7E6FC051E05F10C0634
:1056CC0008D00123C5E90133074B01992B60304603
:1056DC00FFF7D9FF2046C4E90565FFF7DFFE02B0EE
:1056EC0070BD00BFC8620B00AC620B0010B54FF070
:1056FC00FF310446FFF7D2FF204610BD10B504461B
:10570C000068002801DBFFF705F8204610BD0C30BF
:10571C00FFF7F4BF024B1A68024B1A60704700BFC8
:10572C00B8E50320F0E6032070474174704708B5D4
:10573C00007CFFF757F820EAE07008BD08B5007C44
:10574C00FFF728F820EAE07008BD08B5007CFFF7E9
:10575C0031F840EAE07008BD08B5007CFFF722F88C
:10576C0040EAE07008BD007CFFF72CB837B5457CEB
:10577C0004462DB1207C03B0BDE83040FFF702B8E1
:10578C00007C0191FFF72EF800280199F2DC2846E5
:10579C0003B030BD10B514210446FEF778FC20464A
:1057AC0010BD000010B54FF47A730446084611463C
:1057BC000022C4E90123044B236001232074637489
:1057CC00FFF718F8204610BD30630B00417470478A
:1057DC007047704708B50021007CFFF733F840EAAA
:1057EC00E07008BD08B50121007CFFF72BF840EAFA
:1057FC00E07008BD08B5007CFFF71CF820EAE070EB
:10580C0008BD08B5007CFFF70DF820EAE07008BD74
:10581C0013B50446007C0191FFF70CF800280199A0
:10582C0001DC607C20B1207CFFF714F820EAE070EA
:10583C0002B010BD007CFFF715B810B5142104465A
:10584C00FEF725FC204610BD10B54FF47A730446C4
:10585C0008460021C4E90113044B23600123207482
:10586C0063741146FEF7CEFF204610BD60630B003B
:10587C00007C0022FEF7CEBF007CFEF7FBBF10B50C
:10588C0014220446002100F047FB204610BD000006
:10589C0010B50F4C88B003A8FFF7F1FF2178BFF3C8
:1058AC005B8F11F001010FD120460191FEF7F1FB46
:1058BC00019948B103AA0748FFF7C6FF2046FEF737
:1058CC00EDFB054800F014FB024808B010BD00BF0A
:1058DC00F4E60320F8E60320DD570B0000224068B5
:1058EC001146FFF723B8002240681146FFF73EB877
:1058FC00002240681146FFF751B840680022FFF7BC
:10590C0045B84068002281F00101FFF727B8002359
:10591C0040681A461946FFF719B8002340681A4622
:10592C001946FFF70BB8002240681146FEF7EEBF90
:10593C00406800220221FEF7F1BF002340681A469E
:10594C00FEF7DCBF024B04225A60024A1A60704711
:10595C000CE7032090630B0010B5044600F024FB09
:10596C00013823182046834206D90278197800F8AA
:10597C00011B03F80129F6E710BD70B50C46911E0A
:10598C0022291DD8254630B9234430229D4210D2FD
:10599C0005F8012BFAE7B0FBF2F602FB1600C1B2D8
:1059AC00092894BF30315731C9B205F8011B304674
:1059BC00E9E7002320462B70FFF7CEFF204670BD91
:1059CC000020FCE738B5031E0C4615460EDAB3F181
:1059DC00004F4FF02D0214BF5842184601230A7095
:1059EC002A461944FFF7C9FF204638BD0123F9E7C1
:1059FC00014B1860704700BFBCE5032008B50B4B8A
:105A0C0043B1FFF745FF03681B699847002801DD88
:105A1C00AFF30080064B43B100F032F903681B6909
:105A2C009847002801DDAFF3008008BD000000009E
:105A3C000000000008B5FFF7E1FFFEF7DBFD014BAE
:105A4C00186008BD28E703200548064A064908B532
:105A5C00121A00F053FA054B054A1A6008BD00BF34
:105A6C0000F4032004F4032074650B0000F40320FD
:105A7C001E1C279A07B5002300931A466FF0770176
:105A8C00FEF722FF03B05DF804FB000007B5438866
:105A9C000A2B08D0502B0BD1094B1B684BB103B010
:105AAC005DF804EB1847FFF7E5FF03B05DF804FB66
:105ABC00002300931A466FF07701FEF705FFF4E719
:105ACC0018E7032010B512480021FEF7AFFF114B69
:105ADC001A68114B9A42114B0CBF012200221A700A
:105AEC0001D0FFF7B1FFFEF77DFD044600F01CFA74
:105AFC000B4B13B12046AFF3008000210848FEF792
:105B0C00F5FEBDE8104007480021FEF7D3BE00BFEC
:105B1C00FD590B0000F403201E1C279A14E70320E8
:105B2C0000000000995A0B00232813B502D900205D
:105B3C0002B010BDA0F10B03022B1AD8174C217820
:105B4C00BFF35B8F11F001010BD120460191FEF7E1
:105B5C00A0FA019928B11248FFF7E6F92046FEF7A2
:105B6C009DFA0F4B1878FEF705FE0028DFD10120B7
:105B7C00DEE7012809D800F043F80021007CFEF78D
:105B8C0081FD80F00100C0B2D2E709380128EED8BF
:105B9C0000F076F8007CFEF71DFEF2E71CE7032010
:105BAC0020E70320232838B504460D460AD8FF29E0
:105BBC0008D0FFF7B9FF28B129462046BDE8384088
:105BCC00FEF728BD38BDFEF72DBD704738B50A4B22
:105BDC0003600123044643610849202000F074F857
:105BEC00202560600549A560284600F06DF8C4E9E1
:105BFC000305204638BD00BF18000100C4630B002C
:105C0C0030B50E4D2978BFF35B8F11F0010487B0CE
:105C1C0011D12846FEF73DFA68B16846FFF7D6FF6A
:105C2C006A4621460648FEF77FFF2846FEF736FAFD
:105C3C00044800F05DF9024807B030BD2CE70320A2
:105C4C0030E70320D75B0B007047000038B50446E3
:105C5C0014252A46002100F05FF9258040250749CC
:105C6C0025812846258200F02FF8044960602846DB
:105C7C0000F02AF8E060204638BD00BFC4630B007A
:105C8C0030B50E4D2978BFF35B8F11F0010487B04E
:105C9C0011D12846FEF7FDF968B101A8FFF7D6FF30
:105CAC0001AA21460648FFF77DFD2846FEF7F6F9C6
:105CBC00044800F01DF9024807B030BD44E703204A
:105CCC0048E70320555C0B00FEF7DFB9014900F0F3
:105CDC00F9B800BFE0630B007FB500241023CDE9B9
:105CEC000234036815469E6912686B46CDE9004480
:105CFC00B0479DF8043003F00603062B03BF009B4E
:105D0C002B600120204604B070BD0098904214BF57
:105D1C00012006207047000010B5034B03600446B9
:105D2C0000F0CDF8204610BD20640B0010B50446E1
:105D3C00FFF7F2FF20460821FEF7A9F9204610BD17
:105D4C002DE9F0411F46DDE90834DDF8188098454F
:105D5C000646154607D1079900F0B4F818B16571DD
:105D6C000020BDE8F0813946304600F0ABF8002841
:105D7C00F6D00123C4F800802571A371F0E738B583
:105D8C0015461C4600F09EF820B10823E36006235C
:105D9C002560237138BD73B505460C4601921E462D
:105DAC0000F090F850B9032E08D82368019A5B696B
:105DBC002946204602B0BDE87040184702B070BDBD
:105DCC0010B5034B03600446FFF7A6FF204610BD39
:105DDC0080640B0010B50446FFF7F2FF20460C213F
:105DEC00FEF755F9204610BDF7B5089F97420546BA
:105DFC000E4614460AD0A86802680897156A314600
:105E0C002246AC4603B0BDE8F0406047194601930A
:105E1C0000F058F8019B0028EDD0062003B0F0BD2F
:105E2C002DE9F14F0D461946DDE90A4BDDE90CA6CB
:105E3C0081461746984600F045F890B1002D346025
:105E4C00377109DB61198A450CBF06210121B1713B
:105E5C00002001B0BDE8F08F0235F9D10123B371F8
:105E6C00F6E7544506D15946484600F02BF808B1E0
:105E7C007771EDE7D9F808000368CDE90CA6CDE9F8
:105E8C000A4BDC693A4643462946A44601B0BDE8B4
:105E9C00F04F60472DE9F04107460C4615461E466B
:105EAC00FFF76DFF48B9B86803689F692A46334607
:105EBC002146BC46BDE8F0416047BDE8F081704723
:105ECC0000207047814208B50ED0406803782A2B19
:105EDC000CD049680B782A2B08BF013100F052F81E
:105EEC00B0FA80F0400908BD0120FCE70020FAE779
:105EFC00002301461A46184600F05EB80A44914247
:105F0C0000F1FF3300D1704710B511F8014B03F8C5
:105F1C00014F9142F9D110BD02440346934200D186
:105F2C00704703F8011BF9E738B5104B1D68AB6BD4
:105F3C000446B3B91820FEF749FD0246A86320B900
:105F4C000B4B0C484221FEF769FD0B490B4BC0E98A
:105F5C0000130B4B83600B23838100210120C2E9CA
:105F6C000401AB6B00221C615A6138BDBCE50320F7
:105F7C00B9640B00D0640B000E33CDAB34126DE65C
:105F8C00ECDE050010F8012B11F8013B012A28BFAB
:105F9C009A42F7D0D01A7047034611F8012B03F838
:105FAC00012B002AF9D17047034613F8012B002A64
:105FBC00FBD1181A013870472DE9F843DFF8B88087
:105FCC000646D8F800001F460D46914600F056F8DC
:105FDC00254B1C6834B9254C1C60254B13B11B6830
:105FEC00C4F8883063681F2B07DDD8F8000000F078
:105FFC0047F84FF0FF30BDE8F8834EB3D4F8880073
:10600C0088B91C4B23B9D8F8000000F038F8F0E739
:10601C004FF48470FEF7DAFC0028F4D00023C0E9BA
:10602C004033C4F88800636840F8239001229A40FA
:10603C0000EB8301D0F800311343C0F80031022E7D
:10604C00C1F8807002BFD0F804311343C0F804319A
:10605C006368D8F800005A1C0233626044F823507D
:10606C0000F00EF80020C6E7E8E703205CE7032009
:10607C0000000000D9490B0020E603207047704750
:10608C00704700001D400B0059400B0081400B0075
:10609C0085400B00000000004E6F204368616E6766
:1060AC0065202D2043616E63656C6C696E672043BF
:1060BC004D440A007B226F6E223A747275652C2255
:1060CC00736174223A002C22627269223A002C22EB
:1060DC00687565223A007B226F6E223A66616C739A
:1060EC00657D0053656E64696E6720436F6D6D61ED
:1060FC006E6420746F2048756500505554202F61D4
:10610C0070692F002F6C69676874732F002F73747C
:10611C0061746520485454502F312E31006B6565E5
:10612C00702D616C69766500486F73743A2000437A
:10613C006F6E74656E742D4C656E6774683A2000D2
:10614C00436F6E74656E742D547970653A20746566
:10615C0078742F706C61696E3B63686172736574DF
:10616C003D5554462D380046726F6D2048756500BC
:10617C00496F544E6574776F726B002E000A0A00DB
:10618C0073656E736F7272656164004D516C5A7AEF
:10619C0069524F30576169354D734D486C6C387886
:1061AC00415541517177383551727238744D3337CE
:1061BC00463354003139322E3136382E312E3500DB
:1061CC0000000000000000000000000000000000C3
:1061DC00BF4A0B00B54A0B00AB4A0B00A14A0B009F
:1061EC00954A0B00894A0B00DD4C0B00E54C0B006B
:1061FC007D4A0B00754A0B006B4A0B00614A0B0081
:10620C00154D0B000000000000000000DD4A0B00E3
:10621C00274B0B00FF4A0B00DF4A0B00074B0B0010
:10622C000F4B0B00174B0B001F4B0B00000000001B
:10623C0000000000814B0B00714B0B00734B0B00EB
:10624C006170700000000000000000009D4C0B000D
:10625C00A74C0B00B14C0B00BB4C0B00C54C0B00FE
:10626C00D14C0B00DD4C0B00E54C0B00ED4C0B0046
:10627C00F94C0B00014D0B000B4D0B00154D0B0099
:10628C00776972696E670072656376206572726FEA
:10629C0072203D202564000000000000000000007A
:1062AC000D520B0031520B001B570B003F520B00D1
:1062BC0011520B000000000000000000F1400B0028
:1062CC0025410B0089510B00A3510B00B1550B005C
:1062DC00CD510B0027540B0001520B00B9540B008D
:1062EC00F9520B0055540B0065560B00F5530B007F
:1062FC0003520B00B5510B0045520B00D9520B0049
:10630C0025592D256D2D25645425483A254D3A25C2
:10631C0053257A0061736374696D65000000000099
:10632C000000000035570B00A1570B0079570B00EC
:10633C00014E0B0049570B0065570B0057570B00CC
:10634C0073570B0037570B003B570B000000000036
:10635C0000000000DF570B0047580B001D580B00C6
:10636C00014E0B000F580B00E1570B00F1570B00BF
:10637C0041580B0001580B00D9570B0000000000CE
:10638C000000000047590B003D590B0033590B001E
:10639C00E9580B0027590B001B590B00DD4C0B0067
:1063AC00E54C0B000F590B0007590B00FD580B0067
:1063BC00F3580B00154D0B0000537431395F5370BB
:1063CC005F6D616B655F7368617265645F74616753
:1063DC000000000020640B00C5630B0080640B0000
:1063EC00F4630B00A4640B004E31305F5F6378786C
:1063FC00616269763131375F5F636C6173735F74AF
:10640C007970655F696E666F4500000000000000E2
:10641C00E8630B00255D0B00395D0B00CD5E0B00B6
:10642C00CD5E0B00A35D0B00E55C0B008B5D0B00E0
:10643C004D5D0B00175D0B0080640B0050640B006E
:10644C00E8630B004E31305F5F6378786162697688
:10645C003132305F5F73695F636C6173735F747942
:10646C0070655F696E666F450000000000000000FB
:10647C0044640B00CD5D0B00E15D0B00CD5E0B00A9
:10648C00CD5E0B00A35D0B00E55C0B00A15E0B0069
:10649C002D5E0B00F55D0B0020640B00AC640B0053
:1064AC00537439747970655F696E666F0052454537
:1064BC004E54206D616C6C6F6320737563636565FE
:1064CC00646564002F746D702F6A656E6B696E73F2
:1064DC002D4743432D31302D706970656C696E65A5
:1064EC002D34385F32303230313132345F31363026
:1064FC00363138303633392F7372632F6E65776CC3
:10650C0069622F6E65776C69622F6C6962632F7399
:10651C0074646C69622F72616E642E6300000000FB
:10652C0051450B00514A0B00C94A0B008D4C0B0016
:10653C00ED4D0B00294F0B0065510B0021570B0043
:04654C0051590B0096
:10655000040000001400000003000000474E550036
:10656000A300F1216E4448AEB9D804D547109EEB84
:04657000A183E173AF
:046574000000000023
:10657800C8AF0000E45700008CB900008813000081
:1065880050C300001027000008000000307500000C
:1065980020630B00C0E5032000000000000000009D
:1065A80000000000000000000000000000000000E3
:1065B80000000000000000000000000000000000D3
:1065C80000000000000000000000000000000000C3
:1065D80000000000000000000000000000000000B3
:1065E80000000000000000000000000000000000A3
:0C65F8000000000000000000ECE70320A1
:10660400FFFFFFFF00000102030405060708090A53
:106614000B0C0D0E0F101112131415161718191A4E
:086624001B1C1D1E1F20280095
:04662C007856341256
:04000003B000401CED
:00000001FF
