:02000002B0004C
:1040000000400B00E8700B00000006000C000502E9
:084010000401A60F00000000EE
:04401800D46D0B0058
:1040200009480A49884208B505D0094A824202D0A7
:10403000121A02F01DFE0748074A0021121A02F068
:1040400025FE014808BD00BF20E6032048700B0094
:1040500098E6032098E60320EDE7032070B5074EAD
:10406000074C00F071FFA41BA4080025AC4200D14E
:1040700070BD56F8043B98470135F7E7F86F0B0021
:104080001C700B0000F014B808B500F029F8BDE86A
:10409000084000F011BF00F077BA00F07DBA007858
:1040A000B0FA80F0400970470123037070470000A8
:1040B00008B500F07BFE4FF4165100F06BFE054B87
:1040C0000021188800F0B0FF00F0EAF8024B1860F9
:1040D00008BD00BF20E60320B4E603200000000076
:1040E0002DE9F84F2DED028B554B564C1888DFF813
:1040F00070B1002100F0A9FF534B186023681844E9
:10410000206000F0CDF8514B1D68DBF80030C01A7C
:10411000A84240F281802068DFF848A102F0E0F96F
:10412000064628460F4602F0DBF9494B494D00226E
:1041300002F050FA02460B463046394602F074FB54
:1041400002F040FD286002F0EDF99FED351B41ECD7
:10415000100B00F0FDFF95ED008A18EE100A57ECE9
:10416000106B02F0DFF930A3D3E9002380468946C3
:104170003046394602F02EFA424606460F464B4676
:104180004046494602F026FA29A3D3E9002302F06B
:1041900021FA02460B463046394602F063F8DFED5D
:1041A0002E7A68EE277A064617EE900A0F4602F03E
:1041B000B9F902460B463046394602F055F81EA3BF
:1041C000D3E9002302F050F802F0FCFCCAF800002A
:1041D00000F0ECFD0A22216800F0FBFB00F0E6FD98
:1041E0001E4900F0E3FB00F0E1FD95ED000A02211D
:1041F00000F0D6FC00F0DAFD184900F0D7FB00F023
:10420000D5FD9AED000A022100F0E4FC00232360B2
:1042100000F046F8CBF80000BDEC028BBDE8F88F4B
:1042200000000000000008409A9999999999F13F7F
:104230006666666666660E40D7A3703D0AD7E33FA2
:1042400020E60320ACE60320A8E6032024E60320B2
:1042500000002440B0E6032000000244E86D0B009B
:10426000B4E60320A4E60320044B0022C3E90022A5
:10427000A2F580329A60022000F002B998E603208D
:1042800008B5024B1B685B6C019308BD4802030034
:1042900008B5024B1B685B68019308BD1802030058
:1042A00008B5024B1B685B69019308BD1802030047
:1042B00008B5024B1B689B68019308BD2C020300E4
:1042C00008B5024B1B68DB6C019308BD2C02030090
:1042D00008B5024B1B681B6A019308BD2802030046
:1042E00008B5024B1B685B6A019308BD28020300F6
:1042F00008B5024B1B689B6A019308BD28020300A6
:1043000008B5024B1B68DB6A019308BD2802030055
:1043100008B5024B1B681B6B019308BD2802030004
:1043200008B5024B1B685B6B019308BD28020300B4
:1043300008B5024B1B681B6C019308BD28020300E3
:1043400008B5024B1B685B69019308BD640203005A
:1043500008B5024B1B689B68019308BD6802030007
:1043600008B5024B1B68DB68019308BD68020300B7
:1043700008B5024B1B68DB69019308BD30020300DE
:1043800008B5024B1B681B6A019308BD300203008D
:1043900008B5024B1B68DB68019308BD3C020300B3
:1043A00008B5024B1B681B69019308BD3C02030062
:1043B00008B5024B1B685B69019308BD3C02030012
:1043C00008B5024B1B689B69019308BD3C020300C2
:1043D00008B5024B1B68DB69019308BD3C02030072
:1043E00008B5024B1B681B6A019308BD3C02030021
:1043F00008B5024B1B689B6A019308BD3C02030091
:1044000008B5024B1B681B6C019308BD3C020300FE
:1044100008B5024B1B681B68019308BD4C020300E2
:1044200008B5024B1B685B68019308BD4C02030092
:1044300008B5024B1B681B69019308BD4C020300C1
:1044400008B5024B1B685B69019308BD4C02030071
:1044500008B5024B1B689B69019308BD4C02030021
:1044600008B5024B1B68DB69019308BD4C020300D1
:1044700008B5024B1B681B6A019308BD4C02030080
:1044800008B5024B1B685B68019308BD200203005E
:1044900008B5034B1B68D3F88830019308BD0000B2
:1044A0002002030008B5034B1B68D3F89430019336
:1044B00008BD00002002030008B5024B1B68DB6B3F
:1044C000019308BD4402030008B5024B1B685B68FA
:1044D000019308BD4002030008B5024B1B689B68AE
:1044E000019308BD4002030008B5024B1B68DB685E
:1044F000019308BD4002030008B5024B1B681B690D
:10450000019308BD4002030008B5024B1B685B69BC
:10451000019308BD4002030008B5024B1B689B696C
:10452000019308BD4002030008B5024B1B68DB691C
:10453000019308BD4002030008B5024B1B681B6ACB
:10454000019308BD4002030008B5024B1B681B6BBA
:10455000019308BD4002030008B5024B1B685B6B6A
:10456000019308BD4002030008B5024B1B681B6C99
:10457000019308BD4002030008B5024B1B685B6C49
:10458000019308BD4002030008B5024B1B681B687D
:10459000019308BD1C02030008B5024B1B685B6851
:1045A000019308BD1C02030008B5024B1B68DB6BBE
:1045B000019308BD1C02030008B5024B1B681B6C6D
:1045C000019308BD1C02030008B5024B1B685B6C1D
:1045D000019308BD1C020300024800230360FFF79B
:1045E0004FBE00BFB8E60320002240681146FFF727
:1045F000A3BF002240681146FFF7AEBF406800220B
:10460000FFF7A2BF4068002281F00101FFF78CBFD5
:10461000002340681A461946FFF77EBF0023406812
:104620001A461946FFF770BF002240681146FFF78F
:1046300063BF002240681146FFF74EBF406800226A
:104640000221FFF751BF002340681A46FFF73CBF25
:10465000024B03225A60024A1A607047BCE60320EC
:10466000F46D0B007047F8B5064615460C468F18DA
:10467000BC4206D0336814F8011B9B68304698474B
:10468000F6E72846F8BD007C0022FFF721BE007C3B
:104690000021FFF725BE007C0021FFF729BE007C2A
:1046A0000021FFF72DBE007C0021FFF731BE10B5C1
:1046B00014210446FFF7F1FC204610BD38B504462E
:1046C00015464FF47A730022C4E90123094B217483
:1046D000084623602946FFF72BFEBF3008D16B69DF
:1046E000DB0705D56868FFF757FFE868FFF754FF59
:1046F000204638BD306E0B00704710B518210446B7
:10470000FFF7CBFC204610BDF0B5037D062B8DB026
:104710000E4600F104074FF0000412D000F1080526
:1047200015F8011D0A22304600F053F9AF42044447
:1047300019D0002CF4D02E21304600F03BF904446F
:10474000EEE72F236A4639460A208DF80040FFF72E
:10475000F7FD684602F0D0FA33680246DB68694626
:1047600030469847044620460DB0F0BD10B5054BC5
:104770000446112240F8043B002102F087FA20464B
:1047800010BD00BF586E0B000346074A10B543F832
:10479000042B01F1100251F8044B43F8044B9142F1
:1047A000F9D10A781A7010BD586E0B0010B59DF83B
:1047B000084044EA032343EA024242EA0161042337
:1047C0004160037510BD000007B5064B0360CB7850
:1047D00000938B784A780978FFF7E8FF03B05DF81B
:1047E00004FB00BF586E0B00014B024A1A60704771
:1047F000C4E60320646E0B00002340681A46FFF7EE
:1048000063BE406800220221FFF76EBE00224068AE
:104810001146FFF761BE002240681146FFF76CBEEB
:10482000002340681A461946FFF76EBE0023406811
:104830001A461946FFF770BE40680021FFF794BE84
:1048400040680021FFF798BE4068002281F0010116
:10485000FFF76ABE40680022FFF776BE002240687C
:104860001146FFF779BE002240681146FFF764BE8B
:104870002DE9F04395B014460D460746FFF776FF45
:1048800000211C220DA8009102F000FA40230C9395
:1048900020466B460CAA0021FFF762FD0446002863
:1048A0004BD1024601216868FFF726FE02218046AF
:1048B00022466868FFF720FE009E81462146002EB2
:1048C0003BD0002939D17368022B03D00A2B11D0B9
:1048D000F669F4E7B8F1000FFAD0716906A804315F
:1048E00007ADFFF771FF0FCD3C1D0FC42B68237080
:1048F0004146EDE7B9F1000FEAD07469102201A832
:1049000002F0C4F906238DF8143001AD04F1080358
:104910001834186859682A4603C20833A34215465A
:10492000F7D101A906A807ADFFF72EFF0FCD3C1D5B
:104930000FC42B6823704946CAE70098FFF708FDAB
:10494000384615B0BDE8F083024B034A1A600022D6
:104950005A607047C8E60320706E0B00F8B5064633
:104960000D468F180024BD420CD0336815F8011B8A
:104970009B6830469847031E01DB1C44F3E7002C7C
:1049800008BF1C462046F8BD13B50446084659B179
:10499000019102F0B1F923680199DB6802462046D3
:1049A00002B0BDE81040184702B010BD08B5FFF7CF
:1049B000EBFF08BD03689B68184738B50D21054615
:1049C000FFF7F8FF0A2104462846FFF7F3FF2044CB
:1049D00038BD30B58BB00023012A8DF8243098BF44
:1049E0000A2209AC0D46B1FBF2F101FB125303F0B0
:1049F000FF03092B94BF30333733DBB2AA4204F8EC
:104A0000013DEFD92146FFF7BFFF0BB030BD0000DD
:104A10002DE9F74F55EC104B06460F4610EE102AC5
:104A200010EE100A2B46294602F06EF840B15349A9
:104A30003046FFF7A9FF8246504603B0BDE8F08F2D
:104A400025F000494E4B4FF0FF322046494602F018
:104A50005BF848B94A4B4FF0FF322046494602F016
:104A600035F808B94749E3E7474B4FF06042204625
:104A7000294602F03FF808B14449D9E7444B4FF0CA
:104A800060422046294602F017F80028F4D100229F
:104A900000232046294602F00FF8D0B12D213046E0
:104AA000FFF788FF05F1004382461D463949DFF8CC
:104AB000EC904FF0000B00204FF000085FFA8BF3F2
:104AC0009F4208D942464B4601F0AEFE0BF1010B66
:104AD000F4E78246EAE722462B4601F0C5FB0D4685
:104AE000044602F04FF8804601F0FAFC02460B46FD
:104AF0002046294601F0B6FB0A2204460D46304600
:104B00004146FFF766FF8244002F95D02249DFF827
:104B10008C903046FFF738FF4FF000088244002F9A
:104B20008AD042464B462046294601F053FD0446B2
:104B30000D4601F0FFFFB0F1000B1CDA2D213046CD
:104B4000FFF738FFCBF1000103460A2230460193FC
:104B5000FFF73FFF019B18448244584601F0D0FC08
:104B600002460B462046294601F07CFB013F0446E5
:104B70000D46FFB2D3E759460023E6E7A46E0B00CB
:104B8000FFFFEF7FA86E0B00FFFFEF41AC6E0B0045
:104B9000FFFFEFC10000E03FB06E0B0000002440BB
:104BA00038B5044610EE100ACDB201F0BBFC41EC62
:104BB000100B29462046BDE83840FFF729BF38B51D
:104BC000C9B20546FFF724FF04462846FFF7F5FE65
:104BD000204438BD38B5044610EE100A0D4601F0E9
:104BE000A1FC41EC100B29462046BDE83840FFF7F8
:104BF000E6BF0000014B00229A607047D0E6032018
:104C000010B5044608462170FFF7B2FB002363602D
:104C1000204610BD054B02221A60054B054A9A60DA
:104C20000020C3E90000FFF72BBC00BFECE6032027
:104C3000E0E603200000FFFF024B1A68024B1A60F7
:104C4000704700BF28E60320F0E603207047417458
:104C5000704708B5007CFFF7CBFB20EAE07008BD89
:104C600008B5007CFFF79CFB20EAE07008BD08B5A2
:104C7000007CFFF7A5FB40EAE07008BD08B5007CAA
:104C8000FFF796FB40EAE07008BD007CFFF7A0BB91
:104C900037B5457C04462DB1207C03B0BDE83040DB
:104CA000FFF776BB007C0191FFF7A2FB002801997A
:104CB000F2DC284603B030BD10B514210446FFF7DE
:104CC000ECF9204610BD000010B54FF47A7304468D
:104CD000084611460022C4E90123044B2360012346
:104CE00020746374FFF78CFB204610BDD86E0B0058
:104CF000417470477047704708B50021007CFFF78A
:104D0000A7FB40EAE07008BD08B50121007CFFF771
:104D10009FFB40EAE07008BD08B5007CFFF790FB00
:104D200020EAE07008BD08B5007CFFF781FB20EAAF
:104D3000E07008BD13B50446007C0191FFF780FBCD
:104D40000028019901DC607C20B1207CFFF788FB02
:104D500020EAE07002B010BD007CFFF789BB10B5FF
:104D600014210446FFF799F9204610BD10B54FF401
:104D70007A73044608460021C4E90113044B2360FA
:104D80000123207463741146FFF742FB204610BDD7
:104D9000086F0B00007C0022FFF742BB10B5142205
:104DA0000446002101F072FF204610BD10B50F4CE3
:104DB00088B003A8FFF7F2FF2178BFF35B8F11F0F3
:104DC00001010FD120460191FFF769F9019948B11E
:104DD00003AA0748FFF7CAFF2046FFF765F9054811
:104DE00001F040FF024808B010BD00BFF4E6032008
:104DF000F8E60320F54C0B00002240681146FFF74F
:104E00007BBB002240681146FFF796BB002240683A
:104E10001146FFF7A1BB40680022FFF795BB406831
:104E2000002281F00101FFF77FBB002340681A4692
:104E30001946FFF771BB002340681A461946FFF771
:104E400063BB002240681146FFF746BB4068002262
:104E50000221FFF749BB002340681A46FFF734BB25
:104E6000024B04225A60024A1A6070470CE7032082
:104E7000386F0B00014B1860704700BF30E603200D
:104E800008B50B4B43B1FFF791FF03681B699847C7
:104E9000002801DDAFF30080064B43B100F032F98A
:104EA00003681B699847002801DDAFF3008008BD47
:104EB000000000000000000008B5FFF7E1FFFFF769
:104EC000EFF9014B186008BD28E703200548064AA2
:104ED000064908B5121A01F0CBFE054B054A1A60C7
:104EE00008BD00BF00F4032004F4032044700B004D
:104EF00000F403201E1C279A07B5002300931A46CE
:104F00006FF07701FFF7CEFA03B05DF804FB000005
:104F100007B543880A2B08D0502B0BD1094B1B68CF
:104F20004BB103B05DF804EB1847FFF7E5FF03B0A2
:104F30005DF804FB002300931A466FF07701FFF73A
:104F4000B1FAF4E718E7032010B512480021FFF783
:104F50003BFB114B1A68114B9A42114B0CBF0122BB
:104F600000221A7001D0FFF7B1FFFFF791F9044654
:104F700001F094FE0B4B13B12046AFF300800021EB
:104F80000848FFF799FABDE8104007480021FFF7ED
:104F90007FBA00BF754E0B0000F403201E1C279A39
:104FA00014E7032000000000114F0B00232813B565
:104FB00002D9002002B010BDA0F10B03022B1AD8B9
:104FC000174C2178BFF35B8F11F001010BD1204604
:104FD0000191FFF764F8019928B11248FFF710FE1C
:104FE0002046FFF761F80F4B1878FFF7C9F9002842
:104FF000DFD10120DEE7012809D800F043F80021C5
:10500000007CFFF78DF980F00100C0B2D2E70938CB
:105010000128EED800F076F8007CFFF7E1F9F2E71E
:105020001CE7032020E70320232838B504460D465B
:105030000AD8FF2908D0FFF7B9FF28B12946204632
:10504000BDE83840FFF734B938BDFFF739B97047CC
:1050500038B50A4B03600123044643610849202008
:1050600000F074F8202560600549A560284600F02E
:105070006DF8C4E90305204638BD00BF18000100E3
:105080006C6F0B0030B50E4D2978BFF35B8F11F0BC
:10509000010487B011D12846FFF701F868B16846CE
:1050A000FFF7D6FF6A4621460648FFF707FB28466A
:1050B000FEF7FAFF044801F0D5FD024807B030BD05
:1050C0002CE7032030E703204F500B00704700000F
:1050D00038B5044614252A46002101F0D7FD258065
:1050E0004025074925812846258200F02FF80449EC
:1050F0006060284600F02AF8E060204638BD00BF16
:105100006C6F0B0030B50E4D2978BFF35B8F11F03B
:10511000010487B011D12846FEF7C1FF68B101A88C
:10512000FFF7D6FF01AA21460648FFF7CDFD284626
:10513000FEF7BAFF044801F095FD024807B030BD04
:1051400044E7032048E70320CD500B00FEF7A3BF40
:10515000F8B52DED028B57EC106B55EC114B00F0B0
:10516000CBF8634BB0EE408AF0EE608A93F90030E2
:1051700001332AD022462B462046294601F0C4FCA2
:1051800018BB32463B463046394601F0BDFC00288C
:1051900044D1002200233046394601F083FCD8B1C7
:1051A000002200232046294601F07CFC00283DD146
:1051B00045EC104B00F010FF38B120462946002284
:1051C000002301F079FC00285CD1B0EE480AF0EE33
:1051D000680ABDEC028BF8BDB0EE480AF0EE680A32
:1051E00000F0FAFE58B351EC180B0022002301F036
:1051F00059FC0028E9D047EC106B00F0EDFE0028C8
:10520000E3D045EC104B00F0E7FE0028DDD0FFF7BF
:10521000CBF922239FED2E8B0360D6E7204629464B
:105220000022002301F03EFC0028CED09FED2A8B07
:10523000B0EE480AF0EE680ABDEC028BF8BD47EC10
:10524000106B00F0C9FE0028CDD045EC104B00F0EB
:10525000C3FE0028C7D053EC182B18EE100A1946CD
:1052600001F052FC20BBFFF79FF9034622221A608F
:10527000304639460022002301F01EFC48B99FED5C
:10528000188BA2E7FFF790F921239FED178B03609E
:105290009BE745EC104B00F0B3FE224651EC100B9F
:1052A0002B4601F0FFFB0028E9D19FED0F8B8CE727
:1052B000FFF77AF9002200232121016010461946E8
:1052C00001F0B2FA41EC180B7FE700BFAFF30080AA
:1052D0000000000000000000000000000000F03F9F
:1052E000000000000000F07F000000000000F0FF60
:1052F0002CE60320000000002DE9F04F57EC116B65
:105300002DED0C8B27F0004A5AEA060287B03DD0FB
:1053100055EC104B724925F00048884510EE102AD4
:10532000A9462CDC11EE103ABB4636D08A4526DC65
:105330006B498A4521D0B9F1000F39DB002100917A
:10534000002B51D1664B9A4500F0A280654B9A45DF
:1053500000F0B080BBF1804F00F0C084624B9B45F1
:1053600042D1B9F1000F3FDB45EC104B07B0BDEC6B
:105370000C8BBDE8F04F00F059BD002BDBD008F1DD
:10538000404808F5801858EA020309D19FED500BF8
:1053900007B0BDEC0C8BBDE8F08F0CB9C245C7DD82
:1053A000524807B0BDEC0C8BBDE8F04F00F020BEBA
:1053B0004F498A4500F38580A1F154718A450FDD7C
:1053C0004FEA2A51A1F2FF31142940F39B84C1F125
:1053D000340123FA01F000FA01F1994200F0ED8462
:1053E00000210091002BB1D045EC104B029200F04F
:1053F000E9FD029A5ABBB8F1000F04D0394B29F0ED
:1054000040429A4223D1BBF1000F07DA53EC102B34
:105410003449002001F008FA41EC100BB9F1000FFB
:10542000B6DA009B08F1404808F5801858EA0303F3
:1054300040F08D8453EC102B1046194600F012FFFB
:1054400002460B4601F0F0F941EC100BA0E7009A80
:105450004FEAD973013B0493134335D0254B9A454A
:105460004CDD03F104739A45234B40F3DB839845ED
:1054700040F36083BBF1000F40F3608316A3D3E9D0
:1054800000231046194601F0A5F841EC100B7FE708
:1054900008F1404303F5801313433FF477AF164BF5
:1054A000984540F37A83BBF1000FC0F2478347EC85
:1054B000106B6DE7BBF1000FC0F21A8445EC104B86
:1054C00066E7022100913BE722462B46B4E700BF86
:1054D000000000000000F03F9C7500883CE4377E2F
:1054E0000000F07F0000F03F0000E03F706F0B0015
:1054F000FFFF3F430000E041FFFFEF3FE44B09EABD
:105500000303002253B951EC100BE24B01F062F897
:1055100041EC100B10EE908A6FF034024FEA2853E2
:10552000A3F2FF339A18DC4B0592C8F3130848F036
:105530007F54984544F4401407DDD84B984540F318
:10554000148401320592A4F580149FEDB96B9FED90
:10555000BA7B53EC162BB0EE47CAF0EE67CA0025B3
:10556000B0EE47DAF0EE67DA5BEC10ABA3465046DC
:10557000594643EC1A2B00F075FE53EC1A2B80466B
:1055800089465046594600F06FFE02460B46002001
:10559000C34901F049F941EC1B0B404653EC1B2B6E
:1055A000494601F017F841EC180B0A460146CDE9CF
:1055B00002120021029164104BEC19AB44F000542C
:1055C000DDE902AB04F500230020591904460D461D
:1055D00002460B465046594600F0FCFF02460B4679
:1055E0004046494600F03EFE53EC1A2B8046894661
:1055F0002046294600F036FE02460B4651EC190BB8
:1056000000F030FE52465B4600F0E4FF02460B46D7
:105610004046494600F026FE53EC1B2B00F0DAFF13
:1056200053EC182B41EC190B51EC180B00F0D2FF86
:1056300083A3D3E9002304460D4600F0CBFF82A3E9
:10564000D3E9002300F010FE22462B4600F0C2FFF3
:105650007FA3D3E9002300F007FE22462B4600F08B
:10566000B9FF7DA3D3E9002300F0FEFD22462B46BF
:1056700000F0B0FF7AA3D3E9002300F0F5FD224645
:105680002B4600F0A7FF78A3D3E9002300F0ECFD40
:105690002246804689462B462046294600F09AFF3E
:1056A00002460B464046494600F094FF52460446E7
:1056B0000D465B4651EC180B00F0D6FD53EC192B50
:1056C00000F088FF22462B4600F0CEFD5246804671
:1056D00089465B465046594600F07CFF02460B4621
:1056E00043EC1A2B6F4B002200F0BEFD42464B46A6
:1056F00000F0BAFD00240D4622462B46504659467E
:1057000000F068FF674B82468B4600222046294600
:1057100000F0A8FD53EC1A2B00F0A4FD02460B4646
:105720004046494600F09EFD53EC182B00F052FF16
:1057300022462B4604460D4651EC190B00F04AFF59
:1057400002460B462046294600F08EFD80468946DB
:1057500042464B465046594600F086FD44A3D3E9E5
:105760000023002004460D4600F034FF524641EC71
:10577000190B5B462046294600F074FD02460B4695
:105780004046494600F06EFD3BA3D3E9002300F0FC
:1057900021FF02460B462046294614461D4638A3E3
:1057A000D3E9002300F016FF02460B4620462946A7
:1057B00000F05AFD53EC1D2B00F056FD8046059875
:1057C000894600F09DFE424682468B464B4651EC90
:1057D000190B00F049FD53EC1C2B00F045FD52461F
:1057E0005B4600F041FD52465B46002004460D46F4
:1057F00000F038FD53EC1C2B00F034FD53EC192B5A
:1058000000F030FD02460B464046494600F02AFDB6
:10581000009B049A013B134382468B4640F0B681BD
:105820009FED197BB0EE478AF0EE678A3CE000BF3F
:10583000000000000000F03F000000000000000039
:10584000EF4E454A287ECA3F65DBC9934A86CD3F65
:1058500001411DA96074D13F4D268F515555D53F4B
:10586000FFAB6FDBB66DDB3F033333333333E33FE3
:10587000000000E009C7EE3FFD033ADC09C7EE3F38
:10588000F5015B14E02F3EBE000000000000F0BFF9
:105890000000F07F000040438E98030079B60B00B3
:1058A0000000F03F000008400023CDE900670093AE
:1058B000DDE90089304642464B46394600F0D2FCCD
:1058C00022462B4600F086FE32463B4606460F46F1
:1058D0005046594600F07EFE02460B463046394699
:1058E00000F0C2FC42464B4606460F46204629467B
:1058F00000F070FE04460D462B46304639462246DF
:1059000000F0B2FCC24B9942804689468A4640F379
:10591000188101F13F4303F5E003034340F00782A0
:10592000A3A3D3E900233046394600F09DFC02468C
:105930000B46404649469046994622462B4600F083
:1059400091FC02460B464046494601F0D3F8002838
:1059500040F0ED81CAF30A534FF48012A3F2FE33F4
:1059600042FA03F35344AB49C3F30A52A2F2FF32A3
:1059700041FA02FCC3F3130141F48011C2F1140295
:1059800041FA02F2002023EA0C01BAF1000F009262
:105990000B46024602DA0099494200912046294608
:1059A00000F060FC009B1B05029302460B46044678
:1059B0000D463046394600F057FC89464FF0000846
:1059C0007DA3D3E900234046494600F003FE22466A
:1059D0002B4682468B464046494600F043FC024631
:1059E0000B463046394600F03DFC75A3D3E9002351
:1059F00000F0F0FD74A3D3E9002304460D464046B1
:105A0000494600F0E7FD02460B462046294600F0D5
:105A10002BFC06460F4632463B465046594600F0A0
:105A200023FC52465B4604460D4600F01BFC024632
:105A30000B463046394600F015FC22468046894622
:105A40002B462046294600F0C5FD61A3D3E900237B
:105A500006460F4600F0BEFD5FA3D3E9002300F029
:105A600001FC32463B4600F0B5FD5DA3D3E90023BF
:105A700000F0FAFB32463B4600F0ACFD5AA3D3E9F6
:105A8000002300F0EFFB32463B4600F0A3FD58A395
:105A9000D3E9002300F0E8FB32463B4600F09AFDD4
:105AA00002460B462046294600F0DCFB06460F4620
:105AB00032463B462046294600F08CFD02460B4606
:105AC0003046394616461F4600224FF0804300F00C
:105AD000C9FB02460B463046394600F0A5FE424659
:105AE00006460F464B462046294600F073FD4246C7
:105AF0004B4600F0B9FB02460B463046394600F0F3
:105B0000B1FB22462B4600F0ADFB02460B460020BF
:105B1000414900F0A7FB029A0B461344B3F5801FDE
:105B2000C0F24381194653EC182B00F053FD41ECB1
:105B3000100B2DE4BBF1000FFFF6A0AC9FED2E0B78
:105B400026E4DFF8DCC021F00043634540F3E78042
:105B5000324B0B4403430AD122462B4600F082FB12
:105B600032463B4600F0BCFF00283FF4F3AE24A3CE
:105B7000D3E9002351EC180B00F02CFD20A3D3E94E
:105B8000002300F027FD41EC100B01E49FED1E7B8C
:105B9000B0EE478AF0EE678A86E6BBF1000FCDDAF9
:105BA00007F1004300EE106A00EE903AFFF7F0BBF9
:105BB000FE822B654715973C00000000432EE63F10
:105BC000EF39FAFE422EE63F396CA80C615C20BE2C
:105BD000D0A4BE726937663EF16BD2C541BDBB3EF3
:105BE0002CDE25AF6A56113F93BDBE166CC1663FD1
:105BF0003E5555555555C53F0000000000000000BA
:105C000059F3F8C21F6EA501000000000000F03F2C
:105C1000FFFF8F40FFFF0F000000F03F00346F3F99
:105C2000FFCB9040984585DB7D4B98453FF722ACF4
:105C300051EC100B7A4B002200F014FB68A3D3E95F
:105C4000002304460D4600F0C5FC67A3D3E90023FA
:105C500082468B462046294600F0BCFC714B41EC45
:105C6000180B00222046294600F0B4FC02460B46E1
:105C70005FA1D1E9000100F0F5FA22462B4600F0C1
:105C8000A9FC02460B460020674900F0EBFA2246C9
:105C9000804689462B462046294600F09BFC02465A
:105CA0000B464046494600F095FC53A3D3E9002338
:105CB00000F090FC02460B4651EC180B00F0D2FAB3
:105CC0008046894642464B465046594600F0CCFA3B
:105CD000002052465B4604460D4691E522462B467F
:105CE0002046294600F076FC41EC100BFFF750BB34
:105CF0004B49002022462B4600F096FD41EC100B4C
:105D0000FFF746BB002B44D1C1F114014AFA01F060
:105D100000FA01F151455AD00093FFF717BB424AF0
:105D200093425BDCDDE900120291009146E634A368
:105D3000D3E9002351EC180B00F04CFC30A3D3E95D
:105D4000002300F047FC41EC100BFFF721BB009B48
:105D5000012B7FF41DAB10EE901A10EE102A01F10A
:105D6000004343EC102BFFF713BB9FED277BB0EEF6
:105D700047CAF0EE67CA9FED267BB0EE47DAF0EE39
:105D800067DA9FED257B4FF4802553EC172BFFF747
:105D9000EBBB45EC104B009200F014F9009A002A7E
:105DA0007FF492AB0092FFF726BB41EC100B0098FA
:105DB00000F0C2F951EC100BB5E600F00100C0F1A3
:105DC00002010091002B3FF4C1AAFFF70DBB00F0C8
:105DD0000100C0F102030093FFF7B8BA1B15BBE541
:105DE000000000604715F73F44DF5DF80BAE543EFE
:105DF000555555555555D53FFE822B654715F73FEF
:105E00009C7500883CE4377E0000004003B8E23F08
:105E100006D0CF43EBFD4C3E000000000000F83FF1
:105E20000000F03F0000D03F0000E03F2DE9F041CE
:105E3000634A55EC104BAA4300F09F80002D10EEF2
:105E400010CA2B4654DD291563D0C3F31303A1F206
:105E5000FF37C90743F4801304D45B0003EBDC7302
:105E60004FEA4C0C4FEADC72002602EB43037F1032
:105E70004FEA4C0C4FF0160E34464FF40012A118A6
:105E8000994202DC5B1A8C1816445B00BEF1010ECD
:105E900003EBDC734FEA52024FEA4C0CEFD175462C
:105EA00020204FF000420AE044D04FEADC71013874
:105EB00001EB43034FEA4C0C4FEA520243D0A3429A
:105EC00002EB0E01F0DD002901EB020E0ADBA04619
:105ED0001B1B614588BF03F1FF33ACEB010C15447C
:105EE0004446E2E7BEF1000FF1DB04F10108EFE701
:105EF00025F00042224338D0002D4ED129464FEAEA
:105F0000DC22153913464FEA4C5C002AF7D0D60242
:105F100050D400205B00DD02044600F10100F9D5F9
:105F20001A4663460CFA00FCC0F12000C340091B6E
:105F300013438AE76145B8D8002901EB020ED1DB93
:105F400098460023C9E753EA0C0310D16808711082
:105F5000F30701F17F5101F5001148BF40F0004007
:105F600001EB0753024643EC102BBDE8F0816A1C9D
:105F700016BF681C01364008E9E710EE102A10EE43
:105F8000100A2B46294600F025FB22462B4600F03E
:105F90006BF941EC100BBDE8F08110EE102A2046A1
:105FA000294600F05FF902460B4600F03DFC41EC4B
:105FB000100BDAE7634620204FF0FF34B6E700BF4E
:105FC0000000F07F51EC100B10EE102A21F000437E
:105FD00043EC102B704700BF82B08DED000B019891
:105FE00040F0004000F58010C00F02B0704700BFC5
:105FF0009FED010B704700BF000000000000F87F1C
:10600000F0B553EC102BC3F30A5CACF2FF3113294B
:1060100010EE100A83B01C464FEAD37E3ADC00290A
:1060200030DB424D45FA01FC03EA0C0515432DD047
:1060300003EA5C0318434FEA5C0C0CD024EA0C0C16
:106040004FF48024132944FA01F10CBF4FF00040B3
:1060500000204CEA0104364901EBCE0E2346DEE96E
:10606000004502462946204600F0FEF8CDE9000131
:10607000DDE9000122462B4600F0F4F841EC100B5C
:1060800003B0F0BD23F00041114324D143EC102BA9
:1060900003B0F0BD332908DDB1F5806FF6D11946A4
:1060A00000F0E2F841EC100BF2E7ACF2134C4FF0C9
:1060B000FF3121FA0CF10A42E8D010EA51024FEA0E
:1060C0005103C8D020EA03034FF0804040FA0CFC93
:1060D00043EA0C00BFE7C3F313031843144A4342D7
:1060E000034302EBCE0E1B0B620C03F4002352049D
:1060F00043EA02073B46DEE9006710EE102A30460D
:10610000394600F0B1F8CDE9000132463B46DDE901
:10611000000100F0A7F804F0004421F0004102461D
:1061200041EA040343EC102B03B0F0BDFFFF0F0066
:10613000786F0B000000000038B553EC102BC3F350
:106140000A5104469C4689BB10EE101A23F0004CFD
:106150005CEA010129D0194600223D4B3D4D10EE6D
:10616000100A00F037FAAC4202460B4616DB8C46AA
:10617000C1F30A513639214440F2FE70814221DCDC
:10618000002947DC11F1350F34DA4CF250318C42E2
:1061900018DC002B26A1D1E9000144DB24A3D3E9BC
:1061A000002300F017FA41EC100B38BD40F2FF70ED
:1061B0008142E0D110EE100A194600F055F841EC8A
:1061C000100B38BD002B1CA1D1E9000107DB1AA37D
:1061D000D3E9002300F0FEF941EC100B38BD18A103
:1061E000D1E9000114A3D3E9002300F0F3F941EC55
:1061F000100BF3E72CF0FF4C2CF4E00C36314CEA9A
:106200000153104619460022134B00F0E3F941EC0C
:10621000100B38BD2CF0FF4C2CF4E00C4CEA015371
:1062200043EC102B38BD08A1D1E90001B6E700BF4F
:1062300059F3F8C21F6EA5019C7500883CE4377EB7
:106240009C7500883CE437FE59F3F8C21F6EA581A7
:1062500000005043B03CFFFF0000903C81F0004143
:1062600002E000BF83F0004330B54FEA41044FEA3B
:10627000430594EA050F08BF90EA020F1FBF54EAD6
:10628000000C55EA020C7FEA645C7FEA655C00F072
:10629000E2804FEA5454D4EB5555B8BF6D420CDD43
:1062A0002C4480EA020281EA030382EA000083EAC6
:1062B000010180EA020281EA0303362D88BF30BD66
:1062C00011F0004F4FEA01314FF4801C4CEA1131BC
:1062D00002D0404261EB410113F0004F4FEA03331B
:1062E0004CEA133302D0524263EB430394EA050FA6
:1062F00000F0A780A4F10104D5F1200E0DDB02FA15
:106300000EFC22FA05F2801841F1000103FA0EF2A8
:10631000801843FA05F359410EE0A5F120050EF16E
:10632000200E012A03FA0EFC28BF4CF0020C43FA9F
:1063300005F3C01851EBE37101F0004507D54FF0AC
:10634000000EDCF1000C7EEB00006EEB0101B1F5FC
:10635000801F1BD3B1F5001F0CD349085FEA300042
:106360004FEA3C0C04F101044FEA445212F5800F4D
:1063700080F09A80BCF1004F08BF5FEA500C50F1EA
:10638000000041EB045141EA050130BD5FEA4C0CCD
:10639000404141EB0101013C28BFB1F5801FE9D22A
:1063A00091F0000F04BF01460020B1FA81F308BF4D
:1063B0002033A3F10B03B3F120020CDA0C3208DD19
:1063C00002F1140CC2F10C0201FA0CF021FA02F1F4
:1063D0000CE002F11402D8BFC2F1200C01FA02F164
:1063E00020FA0CFCDCBF41EA0C019040E41AA2BF89
:1063F00001EB0451294330BD6FEA04041F3C1CDA51
:106400000C340EDC04F11404C4F1200220FA04F070
:1064100001FA02F340EA030021FA04F345EA03011A
:1064200030BDC4F10C04C4F1200220FA02F001FADC
:1064300004F340EA0300294630BD21FA04F029465E
:1064400030BD94F0000F83F4801306BF81F48011F7
:106450000134013D4EE77FEA645C18BF7FEA655C6A
:1064600029D094EA050F08BF90EA020F05D054EA3C
:10647000000C04BF1946104630BD91EA030F1EBF41
:106480000021002030BD5FEA545C05D14000494145
:1064900028BF41F0004130BD14F580043CBF01F538
:1064A000801130BD01F0004545F0FE4141F470011E
:1064B0004FF0000030BD7FEA645C1ABF19461046F9
:1064C0007FEA655C1CBF0B46024650EA013406BFFA
:1064D00052EA033591EA030F41F4002130BD00BFB9
:1064E00090F0000F04BF0021704730B54FF4806476
:1064F00004F132044FF000054FF0000150E700BFF7
:1065000090F0000F04BF0021704730B54FF4806455
:1065100004F1320410F0004548BF40424FF0000142
:106520003EE700BF42004FEAE2014FEA31014FEA85
:1065300002701FBF12F07F4393F07F4F81F06051D4
:10654000704732F07F4208BF704793F07F4F04BF1F
:1065500041F40021704730B54FF4607401F00045FC
:1065600021F000411CE700BF50EA010208BF70475C
:1065700030B54FF000050AE050EA010208BF70474D
:1065800030B511F0004502D5404261EB41014FF4B6
:10659000806404F132045FEA915C3FF4D8AE4FF0BE
:1065A00003025FEADC0C18BF03325FEADC0C18BFA1
:1065B000033202EBDC02C2F1200300FA03FC20FAF2
:1065C00002F001FA03FE40EA0E0021FA02F114443F
:1065D000BDE600BF70B54FF0FF0C4CF4E06C1CEA58
:1065E00011541DBF1CEA135594EA0C0F95EA0C0FC9
:1065F00000F0DEF82C4481EA030621EA4C5123EA3C
:106600004C5350EA013518BF52EA033541F480116A
:1066100043F4801338D0A0FB02CE4FF00005E1FB1D
:1066200002E506F00042E0FB03E54FF00006E1FB67
:1066300003569CF0000F18BF4EF0010EA4F1FF04AA
:10664000B6F5007F64F5407404D25FEA4E0E6D41EA
:1066500046EB060642EAC62141EA55514FEAC520FB
:1066600040EA5E504FEACE2EB4F1FD0C88BFBCF577
:10667000E06F1ED8BEF1004F08BF5FEA500E50F128
:10668000000041EB045170BD06F0004646EA0101EE
:1066900040EA020081EA0301B4EB5C04C2BFD4EB20
:1066A0000C0541EA045170BD41F480114FF0000E19
:1066B000013C00F3AB8014F1360FDEBF002001F087
:1066C000004170BDC4F10004203C35DA0C341BDC01
:1066D00004F11404C4F1200500FA05F320FA04F0D3
:1066E00001FA05F240EA020001F0004221F0004107
:1066F00010EBD37021FA04F642EB06015EEA430E7A
:1067000008BF20EAD37070BDC4F10C04C4F12005A9
:1067100000FA04F320FA05F001FA04F240EA02005C
:1067200001F0004110EBD37041F100015EEA430E2D
:1067300008BF20EAD37070BDC4F1200500FA05F24D
:106740004EEA020E20FA04F301FA05F243EA0203CC
:1067500021FA04F001F0004121FA04F220EA0200DB
:1067600000EBD3705EEA430E08BF20EAD37070BD21
:1067700094F0000F0FD101F00046400041EB010101
:1067800011F4801F08BF013CF7D041EA060195F0E3
:10679000000F18BF704703F00046520043EB03039D
:1067A00013F4801F08BF013DF7D043EA060370478A
:1067B00094EA0C0F0CEA135518BF95EA0C0F0CD095
:1067C00050EA410618BF52EA4306D1D181EA0301DB
:1067D00001F000414FF0000070BD50EA410606BFD5
:1067E0001046194652EA430619D094EA0C0F02D11A
:1067F00050EA013613D195EA0C0F05D152EA03365F
:106800001CBF104619460AD181EA030101F000417C
:1068100041F0FE4141F470014FF0000070BD41F0C5
:10682000FE4141F4780170BD70B54FF0FF0C4CF49F
:10683000E06C1CEA11541DBF1CEA135594EA0C0FBE
:1068400095EA0C0F00F0A7F8A4EB050481EA030E0B
:1068500052EA03354FEA013100F088804FEA0333F2
:106860004FF0805545EA131343EA12634FEA0222C0
:1068700045EA111545EA10654FEA00260EF0004181
:106880009D4208BF964244F1FD0404F5407402D2D3
:106890005B084FEA3202B61A65EB03055B084FEA64
:1068A00032024FF480104FF4002CB6EB020E75EB61
:1068B000030E22BFB61A754640EA0C005B084FEA89
:1068C0003202B6EB020E75EB030E22BFB61A754606
:1068D00040EA5C005B084FEA3202B6EB020E75EB51
:1068E000030E22BFB61A754640EA9C005B084FEAC9
:1068F0003202B6EB020E75EB030E22BFB61A7546D6
:1069000040EADC0055EA060E18D04FEA051545EAC4
:1069100016754FEA06164FEAC30343EA52734FEA6D
:10692000C2025FEA1C1CC0D111F4801F0BD141EAE6
:1069300000014FF000004FF0004CB6E711F4801F4B
:1069400004BF01430020B4F1FD0C88BFBCF5E06F2B
:106950003FF6AFAEB5EB030C04BFB6EB020C5FEA3B
:10696000500C50F1000041EB045170BD0EF0004E90
:106970004EEA113114EB5C04C2BFD4EB0C0541EAC2
:10698000045170BD41F480114FF0000E013C90E6BF
:1069900045EA060E8DE60CEA135594EA0C0F08BF83
:1069A00095EA0C0F3FF43BAF94EA0C0F0AD150EA82
:1069B00001347FF434AF95EA0C0F7FF425AF104615
:1069C00019462CE795EA0C0F06D152EA03353FF43D
:1069D000FDAE1046194622E750EA410618BF52EABA
:1069E00043067FF4C5AE50EA41047FF40DAF52EA8E
:1069F00043057FF4EBAE12E74FF0FF3C06E000BF2B
:106A00004FF0010C02E000BF4FF0010C4DF804CD37
:106A10004FEA410C7FEA6C5C4FEA430C18BF7FEAF7
:106A20006C5C1BD001B050EA410C0CBF52EA430C25
:106A300091EA030F02BF90EA020F0020704710F1A5
:106A4000000F91EA030F58BF994208BF90422CBF34
:106A5000D8176FEAE37040F0010070474FEA410C2D
:106A60007FEA6C5C02D150EA013C07D14FEA430C4B
:106A70007FEA6C5CD6D152EA033CD3D05DF8040BBC
:106A8000704700BF8446104662468C4619466346EE
:106A900000E000BF01B5FFF7B7FF002848BF10F1C5
:106AA000000F01BD4DF808EDFFF7F4FF0CBF01200A
:106AB00000205DF808FB00BF4DF808EDFFF7EAFF86
:106AC00034BF012000205DF808FB00BF4DF808ED41
:106AD000FFF7E0FF94BF012000205DF808FB00BF36
:106AE0004DF808EDFFF7CEFF94BF012000205DF8C0
:106AF00008FB00BF4DF808EDFFF7C4FF34BF0120CD
:106B000000205DF808FB00BF4FEA410C7FEA6C5C97
:106B100002D150EA013C0AD14FEA430C7FEA6C5C97
:106B200002D152EA033C02D14FF0000070474FF00F
:106B3000010070474FEA410212F5001215D211D53B
:106B40006FF47873B3EB625212D94FEAC12343F06A
:106B5000004343EA505311F0004F23FA02F018BFEC
:106B6000404270474FF00000704750EA013005D1B5
:106B700011F0004008BF6FF0004070474FF0000078
:106B8000704700BF4A0011D212F5001211D20DD584
:106B90006FF47873B3EB62520ED44FEAC12343F023
:106BA000004343EA505323FA02F070474FF00000CD
:106BB000704750EA013002D14FF0FF3070474FF07C
:106BC000000070474FEA4102B2F1E04324BFB3F541
:106BD000001CDCF1FE5C0DD901F0004C4FEAC00254
:106BE0004CEA5070B2F1004F40EB830008BF20F038
:106BF0000100704711F0804F21D113F13872BCBFF2
:106C000001F00040704741F480114FEA5252C2F146
:106C10001802C2F1200C10FA0CF320FA02F018BF8F
:106C200040F001004FEAC1234FEAD32303FA0CFCE2
:106C300040EA0C0023FA02F34FEA4303CCE77FEA71
:106C4000625307D150EA01331EBF4FF0FE4040F4BB
:106C50004000704701F0004040F0FE4040F400006A
:106C6000704700BF002301461A46184600F04CB892
:106C70000A44914200F1FF3300D1704710B511F87A
:106C8000014B03F8014F9142F9D110BD0244034674
:106C9000934200D1704703F8011BF9E738B5104B58
:106CA0001D68AB6B0446B3B91820FDF76DFC0246B6
:106CB000A86320B90B4B0C484221FDF77DFC0B4922
:106CC0000B4BC0E900130B4B83600B238381002126
:106CD0000120C2E90401AB6B00221C615A6138BD7E
:106CE00030E60320886F0B009F6F0B000E33CDAB97
:106CF00034126DE6ECDE0500034613F8012B002A82
:106D0000FBD1181A013870472DE9F843DFF8B88035
:106D10000646D8F800001F460D46914600F056F88A
:106D2000254B1C6834B9254C1C60254B13B11B68DE
:106D3000C4F8883063681F2B07DDD8F8000000F026
:106D400047F84FF0FF30BDE8F8834EB3D4F8880021
:106D500088B91C4B23B9D8F8000000F038F8F0E7E8
:106D60004FF48470FDF710FC0028F4D00023C0E934
:106D70004033C4F88800636840F8239001229A40A9
:106D800000EB8301D0F800311343C0F80031022E2C
:106D9000C1F8807002BFD0F804311343C0F8043149
:106DA0006368D8F800005A1C0233626044F823502C
:106DB00000F00EF80020C6E7E8E703205CE70320B8
:106DC0000000000089450B0094E6032070477047DF
:106DD0007047000021400B005D400B0085400B0018
:106DE00089400B00000000002C00000000000000A3
:106DF0000000000047460B003D460B0033460B00E9
:106E000029460B001D460B0011460B0039480B00AC
:106E100041480B0005460B00FD450B00F3450B00F8
:106E2000E9450B0071480B00000000000000000065
:106E300065460B00AF460B0087460B0067460B000C
:106E40008F460B0097460B009F460B00A7460B0092
:106E5000000000000000000009470B00F9460B008D
:106E6000FB460B0061707000000000000000000095
:106E7000F9470B0003480B000D480B0017480B00A7
:106E800021480B002D480B0039480B0041480B00EE
:106E900049480B0055480B005D480B0067480B0044
:106EA00071480B006E616E00696E66006F76660059
:106EB0002E0025592D256D2D25645425483A254D44
:106EC0003A2553257A0061736374696D650000008B
:106ED00000000000000000004D4C0B00B94C0B00FE
:106EE000914C0B005D490B00614C0B007D4C0B007D
:106EF0006F4C0B008B4C0B004F4C0B00534C0B009A
:106F00000000000000000000F74C0B005F4D0B007C
:106F1000354D0B005D490B00274D0B00F94C0B0064
:106F2000094D0B00594D0B00194D0B00F14C0B0096
:106F30000000000000000000574E0B004D4E0B00FB
:106F4000434E0B00F94D0B00374E0B002B4E0B0040
:106F500039480B0041480B001F4E0B00174E0B0029
:106F60000D4E0B00034E0B0071480B00000000009B
:106F7000000000000000000000000000000030439E
:106F800000000000000030C35245454E54206D61A2
:106F90006C6C6F6320737563636565646564002F53
:106FA000746D702F6A656E6B696E732D4743432D48
:106FB00031302D706970656C696E652D34385F32C3
:106FC000303230313132345F31363036313830366C
:106FD00033392F7372632F6E65776C69622F6E651C
:106FE000776C69622F6C6962632F7374646C696279
:106FF0002F72616E642E630069420B00D9450B004D
:1070000051460B00E9470B0049490B00F54B0B00BB
:10701000154C0B00394C0B00614E0B0000000000BA
:10702000040000001400000003000000474E55005B
:107030007B2A173AE32D6B343F2E0A688134D3360E
:0470400062C2A6F68C
:047044000000000048
:107048000800000030750000C66E0B00FF0000004D
:1070580034E60320000000000000000000000000EB
:107068000000000000000000000000000000000018
:107078000000000000000000000000000000000008
:1070880000000000000000000000000000000000F8
:1070980000000000000000000000000000000000E8
:1070A80000000000000000000000000000000000D8
:0870B80000000000ECE70320DA
:1070C000FFFFFFFF00000102030405060708090A8D
:1070D0000B0C0D0E0F101112131415161718191A88
:0870E0001B1C1D1E1F202800CF
:0470E8007856341290
:04000003B0004020E9
:00000001FF
