:02000002B0004C
:1040000000400B001C530B00000006000C000502D2
:084010000401A60F00000000EE
:044018002C500B001D
:10401C0009480A49884208B505D0094A824202D0AB
:10402C00121A00F04BFF0748074A0021121A00F041
:10403C0053FF014808BD00BF3CE6032088520B002B
:10404C00A8E60320A8E60320EDE7032070B5074E91
:10405C00074C00F013FEA41BA4080025AC4200D1B1
:10406C0070BD56F8043B98470135F7E73C520B00FE
:10407C0060520B0000F021B808B500F02BF8BDE839
:10408C00084000F0B3BD00F0DBB900F0E1B90078F6
:10409C00B0FA80F0400970470123037070470EB4EA
:1040AC0003B503AB002153F8042B019300F00BFC78
:1040BC0002B05DF804EB03B0704708B50021102086
:1040CC0000F04CFE00F00CFDBDE808404FF416511A
:1040DC0000F0FABC10B5102000F051FE064C206028
:1040EC0000F0FEFC22680549FFF7D9FFBDE810403F
:1040FC004FF47A7000F0CCB9B4E6032040500B00BA
:10410C00044B0022C3E90022A2F580329A600220FF
:10411C0000F00AB9A8E6032008B5024B1B685B6CDB
:10412C00019308BD4802030008B5024B1B685B688D
:10413C00019308BD1802030008B5024B1B685B69AC
:10414C00019308BD1802030008B5024B1B685B689D
:10415C00019308BD2C02030008B5024B1B689B6839
:10416C00019308BD2C02030008B5024B1B681B6BA6
:10417C00019308BD2C02030008B5024B1B681B6A97
:10418C00019308BD2802030008B5024B1B685B6A4B
:10419C00019308BD2802030008B5024B1B689B6AFB
:1041AC00019308BD2802030008B5024B1B68DB6AAB
:1041BC00019308BD2802030008B5024B1B681B6B5A
:1041CC00019308BD2802030008B5024B1B685B6B0A
:1041DC00019308BD2802030008B5024B1B681B6C39
:1041EC00019308BD2802030008B5024B1B685B69EC
:1041FC00019308BD6402030008B5024B1B689B6861
:10420C00019308BD6802030008B5024B1B68DB680C
:10421C00019308BD6802030008B5024B1B68DB69FB
:10422C00019308BD3002030008B5024B1B681B6AE2
:10423C00019308BD3002030008B5024B1B68DB6814
:10424C00019308BD3C02030008B5024B1B681B69B7
:10425C00019308BD3C02030008B5024B1B685B6967
:10426C00019308BD3C02030008B5024B1B689B6917
:10427C00019308BD3C02030008B5024B1B68DB69C7
:10428C00019308BD3C02030008B5024B1B681B6A76
:10429C00019308BD3C02030008B5024B1B689B6AE6
:1042AC00019308BD3C02030008B5024B1B681B6C54
:1042BC00019308BD3C02030008B5024B1B681B6848
:1042CC00019308BD4C02030008B5024B1B685B68E8
:1042DC00019308BD4C02030008B5024B1B681B6917
:1042EC00019308BD4C02030008B5024B1B685B69C7
:1042FC00019308BD4C02030008B5024B1B689B6977
:10430C00019308BD4C02030008B5024B1B68DB6926
:10431C00019308BD4C02030008B5024B1B681B6AD5
:10432C00019308BD4C02030008B5024B1B685B6887
:10433C00019308BD2002030008B5024B1B685B69A2
:10434C00019308BD2002030008B5034B1B68D3F88A
:10435C008830019308BD00002002030008B5034B10
:10436C001B68D3F89430019308BD000020020300B1
:10437C0008B5024B1B68DB6B019308BD44020300BC
:10438C0008B5024B1B685B68019308BD4002030033
:10439C0008B5024B1B689B68019308BD40020300E3
:1043AC0008B5024B1B68DB68019308BD4002030093
:1043BC0008B5024B1B681B69019308BD4002030042
:1043CC0008B5024B1B685B69019308BD40020300F2
:1043DC0008B5024B1B689B69019308BD40020300A2
:1043EC0008B5024B1B68DB69019308BD4002030052
:1043FC0008B5024B1B681B6A019308BD4002030001
:10440C0008B5024B1B681B6B019308BD40020300EF
:10441C0008B5024B1B685B6B019308BD400203009F
:10442C0008B5024B1B681B6C019308BD40020300CE
:10443C0008B5024B1B685B6C019308BD400203007E
:10444C0008B5024B1B681B68019308BD1C020300D6
:10445C0008B5024B1B685B68019308BD1C02030086
:10446C0008B5024B1B685B6A019308BD1C02030074
:10447C0008B5024B1B681B6C019308BD1C020300A2
:10448C0008B5024B1B685B6C019308BD1C02030052
:10449C000021FFF751BF0000024800230360FFF723
:1044AC003BBE00BFB8E60320002240681146FFF770
:1044BC009FBF002240681146FFF7AABF4068002248
:1044CC00FFF79EBF4068002281F00101FFF788BF13
:1044DC00002340681A461946FFF77ABF002340684C
:1044EC001A461946FFF76CBF002240681146FFF7C9
:1044FC005FBF002240681146FFF74ABF40680022A8
:10450C000221FFF74DBF002340681A46FFF738BF62
:10451C00024B03225A60024A1A607047BCE6032021
:10452C0060500B007047F8B5064615460C468F18C0
:10453C00BC4206D0336814F8011B9B683046984780
:10454C00F6E72846F8BD007C0022FFF715BE007C7C
:10455C000021FFF719BE007C0021FFF71DBE007C77
:10456C000021FFF721BE007C0021FFF725BE10B50E
:10457C0014210446FFF789FD204610BD38B50446CA
:10458C0015464FF47A730022C4E90123094B2174B8
:10459C00084623602946FFF71FFEBF3008D16B6920
:1045AC00DB0705D56868FFF753FFE868FFF750FF96
:1045BC00204638BD9C500B00704710B5182104469E
:1045CC00FFF763FD204610BDF0B5037D062B8DB0C3
:1045DC000E4600F104074FF0000412D000F108055C
:1045EC0015F8011D0A22304600F04FF9AF42044481
:1045FC0019D0002CF4D02E21304600F037F90444A9
:10460C00EEE72F236A4639460A208DF80040FFF763
:10461C00EBFD684600F096FC33680246DB686946A1
:10462C0030469847044620460DB0F0BD10B5054BFA
:10463C000446112240F8043B002100F04DFC2046BA
:10464C0010BD00BFC4500B000346074A10B543F819
:10465C00042B01F1100251F8044B43F8044B914226
:10466C00F9D10A781A7010BDC4500B0010B59DF822
:10467C00084044EA032343EA024242EA016104236C
:10468C004160037510BD000007B5064B0360CB7885
:10469C0000938B784A780978FFF7E8FF03B05DF850
:1046AC0004FB00BFC4500B00014B024A1A60704758
:1046BC00C4E60320D0500B00002340681A46FFF7D5
:1046CC005FBE406800220221FFF76ABE00224068EC
:1046DC001146FFF75DBE002240681146FFF768BE29
:1046EC00002340681A461946FFF76ABE002340684B
:1046FC001A461946FFF76CBE40680021FFF790BEC2
:10470C0040680021FFF794BE4068002281F001014F
:10471C00FFF766BE40680022FFF772BE00224068B9
:10472C001146FFF775BE002240681146FFF760BEC8
:10473C002DE9F04395B014460D460746FFF776FF7A
:10474C0000211C220DA8009100F0C6FB40230C9305
:10475C0020466B460CAA0021FFF756FD04460028A4
:10476C004BD1024601216868FFF722FE02218046E8
:10477C0022466868FFF71CFE009E81462146002EEB
:10478C003BD0002939D17368022B03D00A2B11D0EE
:10479C00F669F4E7B8F1000FFAD0716906A8043194
:1047AC0007ADFFF771FF0FCD3C1D0FC42B682370B5
:1047BC004146EDE7B9F1000FEAD07469102201A867
:1047CC0000F08AFB06238DF8143001AD04F10803C8
:1047DC001834186859682A4603C20833A342154690
:1047EC00F7D101A906A807ADFFF72EFF0FCD3C1D91
:1047FC000FC42B6823704946CAE70098FFF7FCFCEE
:10480C00384615B0BDE8F083024B034A1A6000220B
:10481C005A607047C8E60320DC500B00F8B506461A
:10482C000D468F180024BD420CD0336815F8011BBF
:10483C009B6830469847031E01DB1C44F3E7002CB1
:10484C0008BF1C462046F8BD13B50446084659B1AE
:10485C00019100F077FB23680199DB680246204642
:10486C0002B0BDE81040184702B010BD03689B6849
:10487C00184738B50D210546FFF7F8FF0A21044605
:10488C002846FFF7F3FF204438BD30B58BB000232A
:10489C00012A8DF8243098BF0A2209AC0D46B1FBD1
:1048AC00F2F101FB125303F0FF03092B94BF3033D9
:1048BC003733DBB2AA4204F8013DEFD92146FFF7AA
:1048CC00C3FF0BB030BD2DE9F04186B000AF0546FB
:1048DC000E46381D142114463B60FFF7C1FD13280A
:1048EC000ED8391D2846FFF7AFFF04461EB12846E7
:1048FC00FFF7BFFF044420461837BD46BDE8F081E2
:10490C0000F1080323F00703E846ADEB030D224644
:10491C00411C3B686846FFF7A3FD69462846FFF734
:10492C0093FF0446C546E1E7014B00229A607047AD
:10493C00D0E6032010B5044608462170FFF76CFC46
:10494C0000236360204610BD054B02221A60054B04
:10495C00054A9A600020C3E90000FFF7E5BC00BFE0
:10496C00ECE60320E0E603200000FFFF024B1A6890
:10497C00024B1A60704700BF3CE60320F0E60320B0
:10498C0070474174704708B5007CFFF785FC20EA3E
:10499C00E07008BD08B5007CFFF756FC20EAE0701B
:1049AC0008BD08B5007CFFF75FFC40EAE07008BD6D
:1049BC0008B5007CFFF750FC40EAE07008BD007CB5
:1049CC00FFF75ABC37B5457C04462DB1207C03B0AB
:1049DC00BDE83040FFF730BC007C0191FFF75CFC78
:1049EC0000280199F2DC284603B030BD10B5142123
:1049FC000446FFF74AFB204610BD000010B54FF4EB
:104A0C007A730446084611460022C4E90123044B7C
:104A1C002360012320746374FFF746FC204610BD0D
:104A2C0034510B00417470477047704708B5002132
:104A3C00007CFFF761FC40EAE07008BD08B501217D
:104A4C00007CFFF759FC40EAE07008BD08B5007C1B
:104A5C00FFF74AFC20EAE07008BD08B5007CFFF7C0
:104A6C003BFC20EAE07008BD13B50446007C0191C4
:104A7C00FFF73AFC0028019901DC607C20B1207C16
:104A8C00FFF742FC20EAE07002B010BD007CFFF79B
:104A9C0043BC10B514210446FFF7F7FA204610BDAD
:104AAC0010B54FF47A73044608460021C4E901138B
:104ABC00044B23600123207463741146FFF7FCFB45
:104ACC00204610BD64510B00007C0022FFF7FCBB9C
:104ADC0010B514220446002100F0FEF9204610BD4A
:104AEC0010B50F4C88B003A8FFF7F2FF2178BFF385
:104AFC005B8F11F001010FD120460191FFF7C7FA2E
:104B0C00019948B103AA0748FFF7CAFF2046FFF7EF
:104B1C00C3FA054800F0CCF9024808B010BD00BF3C
:104B2C00F4E60320F8E60320354A0B000022406827
:104B3C001146FFF73DBC002240681146FFF758BCF8
:104B4C00002240681146FFF763BC40680022FFF763
:104B5C0057BC4068002281F00101FFF741BC0023E3
:104B6C0040681A461946FFF733BC002340681A46C2
:104B7C001946FFF725BC002240681146FFF708BC18
:104B8C00406800220221FFF70BBC002340681A4644
:104B9C00FFF7F6BB024B04225A60024A1A607047B8
:104BAC000CE7032094510B00014B1860704700BFB9
:104BBC0040E6032008B50B4B43B1FFF791FF0368A8
:104BCC001B699847002801DDAFF30080064B43B109
:104BDC0000F048F903681B699847002801DDAFF322
:104BEC00008008BD000000000000000008B5FFF7C1
:104BFC00E1FFFFF7A1FA014B186008BD28E703207D
:104C0C000548064A064908B5121A00F057F9054B33
:104C1C00054A1A6008BD00BF00F4032004F4032009
:104C2C0084520B0000F403201E1C279A07B50023A6
:104C3C0000931A466FF07701FFF790FB03B05DF815
:104C4C0004FB000007B543880A2B08D0502B0BD16E
:104C5C00094B1B684BB103B05DF804EB1847FFF729
:104C6C00E5FF03B05DF804FB002300931A466FF0D8
:104C7C007701FFF773FBF4E718E7032010B5124830
:104C8C000021FFF7FDFB114B1A68114B9A42114B97
:104C9C000CBF012200221A7001D0FFF7B1FFFFF701
:104CAC0043FA044600F020F90B4B13B12046AFF346
:104CBC00008000210848FFF75BFBBDE81040074867
:104CCC000021FFF741BB00BFB54B0B0000F40320E4
:104CDC001E1C279A14E7032000000000514C0B0007
:104CEC00232813B502D9002002B010BDA0F10B038C
:104CFC00022B1AD8174C2178BFF35B8F11F00101EE
:104D0C000BD120460191FFF7C2F9019928B1124845
:104D1C00FFF710FE2046FFF7BFF90F4B1878FFF78F
:104D2C0083FA0028DFD10120DEE7012809D800F042
:104D3C0059F80021007CFFF747FA80F00100C0B25F
:104D4C00D2E709380128EED800F08CF8007CFFF788
:104D5C009BFAF2E71CE7032020E70320232838B551
:104D6C0004460D460AD8FF2908D0FFF7B9FF28B131
:104D7C0029462046BDE83840FFF7EEB938BD0D286E
:104D8C0010B504469CBF0E34A4B22046FFF7A8FF12
:104D9C0050B103212046FFF7D7F9032804D1204650
:104DAC00BDE81040FFF7E0B9002010BD70470000CF
:104DBC0038B50A4B0360012304464361084920209F
:104DCC0000F074F8202560600549A560284600F0C5
:104DDC006DF8C4E90305204638BD00BF180001007A
:104DEC00C8510B0030B50E4D2978BFF35B8F11F015
:104DFC00010487B011D12846FFF749F968B168461C
:104E0C00FFF7D6FF6A4621460648FFF7B7FB284650
:104E1C00FFF742F9044800F04BF8024807B030BDE8
:104E2C002CE7032030E70320B94D0B00704700003E
:104E3C0038B5044614252A46002100F04DF825808B
:104E4C004025074925812846258200F02FF8044982
:104E5C006060284600F02AF8E060204638BD00BFAC
:104E6C00C8510B0030B50E4D2978BFF35B8F11F094
:104E7C00010487B011D12846FFF709F968B101A8E0
:104E8C00FFF7D6FF01AA21460648FFF7B7FD2846D3
:104E9C00FFF702F9044800F00BF8024807B030BDE8
:104EAC0044E7032048E70320394E0B00FFF7EBB82B
:104EBC00002301461A46184600F04CB80A449142A9
:104ECC0000F1FF3300D1704710B511F8014B03F816
:104EDC00014F9142F9D110BD02440346934200D1D7
:104EEC00704703F8011BF9E738B5104B1D68AB6B25
:104EFC000446B3B91820FFF7A3FA0246A86320B9F9
:104F0C000B4B0C484221FFF7B3FA0B490B4BC0E992
:104F1C0000130B4B83600B23838100210120C2E91A
:104F2C000401AB6B00221C615A6138BD40E60320C2
:104F3C00C9510B00E0510B000E33CDAB34126DE6B2
:104F4C00ECDE0500034613F8012B002AFBD1181ADE
:104F5C00013870472DE9F843DFF8B8800646D8F8D9
:104F6C0000001F460D46914600F056F8254B1C6874
:104F7C0034B9254C1C60254B13B11B68C4F8883020
:104F8C0063681F2B07DDD8F8000000F047F84FF0DE
:104F9C00FF30BDE8F8834EB3D4F8880088B91C4BB9
:104FAC0023B9D8F8000000F038F8F0E74FF484701B
:104FBC00FFF746FA0028F4D00023C0E94033C4F8C8
:104FCC008800636840F8239001229A4000EB83012B
:104FDC00D0F800311343C0F80031022EC1F88070B4
:104FEC0002BFD0F804311343C0F804316368D8F819
:104FFC0000005A1C0233626044F8235000F00EF893
:10500C000020C6E7E8E703205CE70320000000006F
:10501C004D440B00A4E60320704770477047000016
:10502C001D400B0059400B0081400B0085400B00CC
:10503C00000000005761746572206C6576656C2009
:10504C0076616C7565203D2025640A000000000027
:10505C000000000013450B0009450B00FF440B003A
:10506C00F5440B00E9440B00DD440B0005470B0035
:10507C000D470B00D1440B00C9440B00BF440B007F
:10508C00B5440B003D470B00000000000000000081
:10509C0031450B007B450B0053450B0033450B0092
:1050AC005B450B0063450B006B450B0073450B0018
:1050BC000000000000000000D5450B00C5450B00AA
:1050CC00C7450B006170700000000000000000007C
:1050DC00C5460B00CF460B00D9460B00E3460B0030
:1050EC00ED460B00F9460B0005470B000D470B0076
:1050FC0015470B0021470B0029470B0033470B00CA
:10510C003D470B0025592D256D2D25645425483A16
:10511C00254D3A2553257A0061736374696D6500DA
:10512C0000000000000000008D490B00F9490B0045
:10513C00D1490B0029480B00A1490B00BD490B00BC
:10514C00AF490B00CB490B008F490B0093490B0067
:10515C000000000000000000374A0B009F4A0B00C3
:10516C00754A0B0029480B00674A0B00394A0B00A3
:10517C00494A0B00994A0B00594A0B00314A0B0063
:10518C000000000000000000974B0B008D4B0B0043
:10519C00834B0B00394B0B00774B0B006B4B0B000D
:1051AC0005470B000D470B005F4B0B00574B0B00DB
:1051BC004D4B0B00434B0B003D470B00005245453C
:1051CC004E54206D616C6C6F632073756363656501
:1051DC00646564002F746D702F6A656E6B696E73F5
:1051EC002D4743432D31302D706970656C696E65A8
:1051FC002D34385F32303230313132345F31363029
:10520C00363138303633392F7372632F6E65776CC5
:10521C0069622F6E65776C69622F6C6962632F739C
:10522C0074646C69622F72616E642E6300000000FE
:10523C000D410B00A5440B001D450B00B5460B00A2
:10524C0015480B0035490B0055490B0079490B00EB
:04525C00A14B0B0057
:10526000040000001400000003000000474E550039
:10527000FBC827DB37495D5CF7F14CFCBA5908796C
:04528000CC7490C892
:045284000000000026
:1052880024510B0044E60320000000000000000049
:105298000000000000000000000000000000000006
:1052A80000000000000000000000000000000000F6
:1052B80000000000000000000000000000000000E6
:1052C80000000000000000000000000000000000D6
:1052D80000000000000000000000000000000000C6
:0C52E8000000000000000000ECE70320C4
:1052F400FFFFFFFF00000102030405060708090A77
:105304000B0C0D0E0F101112131415161718191A71
:085314001B1C1D1E1F202800B8
:04531C007856341279
:04000003B000401CED
:00000001FF
