:02000002B0004C
:1040000000400B0088860B00000006000C00050233
:084010000401A60F00000000EE
:04401800D4790B004C
:1040200009480A49884208B505D0094A824202D0A7
:10403000121A03F01DFC0748074A0021121A03F068
:1040400025FC014808BD00BFF8E10320D8810B0022
:1040500080E6032080E60320EDE7032070B5074EDD
:10406000074C01F07BFDA41BA4080025AC4200D145
:1040700070BD56F8043B98470135F7E788810B007F
:10408000AC810B0000F02EB808B500F059F8BDE87F
:10409000084001F01BBD01F075B801F07BB80000CD
:1040A00008B5034A03490C2000F0D8FFFEE700BF23
:1040B000AD4D0B00E8790B000078B0FA80F04009B4
:1040C00070470123037070470EB403B503AB0021A2
:1040D00053F8042B019301F0B4FA02B05DF804EB3D
:1040E00003B0704710B5134C01F012FE01F00EF949
:1040F0003C220221204600F071FD204600F086FCA3
:104100002046012100F099FA2046012100F09AFA98
:1041100000221146204600F08DFA07492046FFF79D
:10412000D3FF204600F0EAFCBDE81040022000F07A
:104130009DBF00BF84E60320FD790B000000000056
:104140002DE9F8432DED028B574B584C1888584DEC
:10415000002101F0BFFD574B186023681844206010
:1041600000F02CFE544BD3F800802B68C01A404559
:1041700040F28680206802F0FBFF064640460F466C
:1041800002F0F6FF4D4BDFF85081002203F06AF891
:1041900002460B463046394603F08EF903F012FB17
:1041A000C8F8000003F006F89FED371B41EC100B38
:1041B00001F016FE98ED008A18EE100A57EC106B0D
:1041C00002F0F8FF32A3D3E9002380468946304647
:1041D000394603F047F8424606460F464B464046EE
:1041E000494603F03FF82CA3D3E9002303F03AF843
:1041F00002460B463046394602F07CFEDFED307A4F
:1042000068EE277A064617EE900A0F4602F0D2FFB4
:1042100002460B463046394602F06EFE20A3D3E933
:10422000002302F069FE03F0CDFA9FED267A264BBB
:1042300007EE900AF4EEC77AF1EE10FA18601ADB76
:10424000224800F0E3FB2148012100F0F6F91F4865
:10425000012100F0F7F9002211461C4800F0EAF9AC
:104260001B491A48FFF730FF1A491848FFF72CFF7F
:10427000164800F043FC0023236000F09FFD2860F7
:10428000BDEC028BBDE8F883000000000000084090
:104290009A9999999999F13F6666666666660E40A5
:1042A000D7A3703D0AD7E33FF8E10320ACE6032033
:1042B000B4E60320A8E60320FCE10320000024402C
:1042C0000000024400803B4580E6032084E6032092
:1042D000FD790B00077A0B00B0E6032001480021AE
:1042E00000F07EBB84E603202DE9F04F85B01F4629
:1042F000BDF93880BDF83C30A8EB0209A7EB010AF4
:10430000B9F1000FB8BFC9F10009BAF1000FB8BF89
:10431000CAF1000AD14583460C46154604DD3A46EB
:104320002C4647460D469046BC4205DD2A4645468A
:10433000904622463C4617463E1BB2B20092A8EB7E
:10434000050282EAE271A1EBE271C6F3C03202FA21
:1043500086F64545B4BF01224FF0FF320191761039
:104360000292BC421CDCDBF800200393D145D2F85A
:104370001080C7BF294622462A4621465846C047D4
:10438000019A039BB61AB1B236B2002E05DA029A30
:104390001544009A56182DB236B2013424B2E0E723
:1043A00005B0BDE8F08F2DE9F347BDF82C80076814
:1043B000BDF92890CDF800800446FF6916468A466C
:1043C0001D46B8472368CDF8008009F1FF3232441A
:1043D000DF6951462B46204612B2B8472368CDF814
:1043E00000809F6932464B4651462046B8476B1EB7
:1043F00003EB0A012368CDF828809D6932464B46BD
:1044000009B22046AC4602B0BDE8F047604737B578
:10441000013B13440468BDF8185001951BB200938A
:1044200064690B46A04703B030BD37B5BDF81850DE
:104430000468CDE90025013B0B4464691BB2A04729
:1044400003B030BD2DE9F347BDF92890BDF82C80AD
:10445000054692460C46CE18B4420BDA2B68CDF8CE
:1044600000809F6921464B46524628460134B84792
:1044700024B2F1E702B0BDE8F08713B502680191FC
:10448000B0F90E100091546AB0F90C3000221146B8
:10449000A04702B010BD704730B54281C2814FF0D5
:1044A000FF320024054D4261012244600560018114
:1044B000818104610283827630BD00BF1C7F0B00C6
:1044C0002DE9F04F2DED028B8DB007460491BDF81C
:1044D00060100591BDF864100691B0F90C100498B5
:1044E0009DF86850814252DDB7F90E1091424EDDC1
:1044F000062111FB0504002C49DD02EBC504002C4C
:1045000045DD03EB83030B9393B2079308339BB210
:10451000089100240993052C1CBF2C4B0B9A079E75
:1045200016BF1B1900239B5C0393049AABB20A933A
:1045300004FB05F313FA82F31BB204EB020A08EE44
:10454000103AB0460FFA85F90FFA8AFA039BDB0797
:104550002FD5012D3B681FD1D3F810B0059B32B287
:1045600051463846D847039B5B0803930A9B0136A4
:104570009844099BB6B2B3421FFA88F8E6D1089B6B
:10458000013B013413F0FF0364B20893C3D10DB0B3
:10459000BDEC028BBDE8F08F059ACDE9009218EED4
:1045A000101AD3F824B00FFA88F24B463846D84791
:1045B000D9E7DDE905239342D5D0012D3B6803D12E
:1045C000D3F810B0069BCAE7069AE6E7177A0B0005
:1045D00030B50A2985B0044607D1027E638A03EB11
:1045E000C20363820023238221E00D291FD0037EB2
:1045F0000293C38A0193838A0093B0F912200B4679
:10460000B0F91010FFF75CFF207E238A00EB400119
:1046100003EB4103A17E1BB20246238239B1B4F9F8
:104620000C106FF0050505FB00118B42D6DC012054
:1046300005B030BD018242827047012938BF012197
:1046400001767047C18281827047407E7047B0F921
:104650000C007047B0F90E0070470000F0B5457EC1
:10466000BDF81440022D69D0032D00F09980012D72
:104670006CD10589D2432A4412B2002A5DDBB0F91D
:104680000850954259DD0029BEBF5B181BB20021BE
:10469000B0F90A00CD188542C4BF431A1BB2002BE3
:1046A0004BDDC1F3C400DFF820C102EBC01211F0F2
:1046B0000701DBB20CEB02001AD0C1F10805404E35
:1046C000EDB2AB42775D3FBFA5EB030EFF2646FA86
:1046D0000EF637401CF80260012C0CBF3E43BE436F
:1046E000AB420CF8026028D308390B44DBB28030AF
:1046F000072B19D9012C4FF0FF3518BF0025EDB25B
:1047000000F180011A46083AD2B2072A01F8805C0B
:1047100001F18001F7D8A3F10802C2F3C40201320B
:1047200000EBC21003F007033BB1264AD25C0378CA
:10473000012C0CBF134393430370F0BD4589D24352
:104740002A44CD180189491B12B209B2002AF4DBB0
:10475000B0F90A509542F0DD0029BEBF5B181BB2CC
:104760000021B0F90870CE18BE42C4BF6B1A1BB24C
:10477000002BE2DDD010802510FB0511124801440A
:1047800002F0070001228240012CD2B20B440CD16E
:104790008B42D2D011F8010B104301F8010CF7E75E
:1047A000CD184189491B09B267E7D243D2B28B4287
:1047B000C3D011F8010B104001F8010CF7E700BF5E
:1047C00008E2032000E2032010E20320F0B5457E5A
:1047D000BDF81440022D34D0032D00F09B80012D34
:1047E00037D1D5180289521B12B20029C0F291802C
:1047F000B0F90A508D4240F38C80002ABEBF9B184E
:104800001BB20022B0F90870D618BE42C4BFAB1A62
:104810001BB2002B7DDDC810802510FB052245480A
:10482000024401F0070001218140012CC9B2134468
:1048300075D19A426DD012F8010B084302F8010CB1
:10484000F7E70589C9432944D5184289521B09B2A3
:1048500012B200295DDBB0F908508D4259DD002A03
:10486000BEBF9B181BB20022B0F90A00D5188542C2
:10487000C4BF831A1BB2002B4BDDC2F3C400DFF8A8
:10488000B4C001EBC01112F00702DBB20CEB010067
:104890001AD0C2F10805284EEDB2AB42775D3FBF9A
:1048A000A5EB030EFF2646FA0EF637401CF8016012
:1048B000012C0CBF3E43BE43AB420CF8016028D331
:1048C000083A1344DBB28030072B19D9012C4FF082
:1048D000FF3518BF0025EDB200F180011A46083AF5
:1048E000D2B2072A01F8805C01F18001F7D8A3F168
:1048F0000802C2F3C402013200EBC21003F0070346
:104900003BB10E4AD25C0378012C0CBF1343934396
:104910000370F0BD4589C943294409B265E7C9431D
:10492000C9B29A42F5D012F8010B084002F8010C06
:10493000F7E700BF10E2032008E2032000E20320B3
:1049400070470000F8B50D1E064614461F462DDBC5
:10495000FFF77DFEA84229DD002C27DB3046FFF75C
:1049600079FEA04222DD3046FFF76FFE02281ED0FE
:10497000032825D0012804D13389E2431A442C4668
:1049800015B2002C2246B8BFE21DD210802112FBC6
:1049900001550E49012204F007044B5702FA04F4B2
:1049A00064B297420CBF2343A3434B55F8BD3189F2
:1049B00072890139E4434D1B14442DB224B2E0E75F
:1049C0007389013B5B1B25461CB2DAE710E203202A
:1049D00010B524210446FFF760FB204610BD0000FF
:1049E00038B5402204460D468021FFF755FD064BA1
:1049F0002360FF2384F8213063774FF6FF73E3834E
:104A000084F82050204638BD547F0B0002484FF4F4
:104A10008062002102F03ABF10E2032013B50B4C74
:104A20002178BFF35B8F11F001010BD1204601917A
:104A3000FFF742FB019928B1054800F03FFE2046F0
:104A4000FFF73FFB024802B010BD00BFB8E60320ED
:104A5000BCE6032007B590F8223043B10191FFF77F
:104A6000DDFF019903B05DF804EB00F0DBBE0B46FF
:104A7000817F407F012203B05DF804EB01F008B9AB
:104A800038B590F91D30013304460D461DD090F91C
:104A90002100012180B201F0E2F894F91F00002109
:104AA00080B201F0DCF894F92100002180B201F01D
:104AB000D6F829462046FFF7CDFF94F921000121C1
:104AC000BDE8384080B201F0CAB801F021F994F98C
:104AD0001B1000F025FC01F01BF9036800219B6806
:104AE000984701F015F9036829469B68984701F03B
:104AF0000FF9BDE8384000F01ABC0000F8B52121DC
:104B00000446FFF7BDFF00212046FFF7B9FF7F21D4
:104B10002046FFF7B5FF22212046FFF7B1FF002115
:104B20002046FFF7ADFF07212046FFF7A9FF94F9C4
:104B30001D30294F01332AD094F92100012180B280
:104B400001F08DF894F91F00012180B201F087F87F
:104B500094F92100002180B201F081F8012000F0D9
:104B600025F94FF48065013D17F8011B2046ADB2D1
:104B7000FFF770FF002DF6D1012000F017F994F92E
:104B800021000121BDE8F84080B201F068B800259D
:104B900001F0BEF894F91B1000F0C2FB01F0B8F868
:104BA000036840219B68984705F11006B6B201F0F2
:104BB000AFF80368795D9B6898476B1C9DB2AE4265
:104BC000F5D101F0A5F800F0B2FBB6F5806F00D189
:104BD000F8BD3546DCE700BF10E2032038B590F998
:104BE0001D300177013304460D46C27600F0C980BE
:104BF00090F91F00012180B201F020F894F9210002
:104C0000012180B201F01AF894F82230002B00F054
:104C1000A68094F92100012180B201F020F8FFF76D
:104C2000FDFE012100F068FDFFF7F8FE102100F005
:104C3000D3FDFFF7F3FE002100F072FDFFF7EEFE5B
:104C400000F046FD94F92000012180B200F0F6FF4B
:104C500094F92000012180B201F001F8012000F058
:104C6000C1FA94F92000002180B200F0F8FF0A2078
:104C700000F0B8FA94F92000012180B200F0EFFFB3
:104C80002046AE21FFF7FCFE2046D521FFF7F8FEB7
:104C900020468021FFF7F4FE2046A821FFF7F0FE12
:104CA00020463F21FFF7ECFE2046D321FFF7E8FE28
:104CB00020460021FFF7E4FE20464021FFF7E0FEFA
:104CC0008D212046FFF7DCFE012D0CBF10211421A1
:104CD0002046FFF7D5FE20462021FFF7D1FE2046D3
:104CE0000021FFF7CDFE2046A121FFF7C9FE204697
:104CF000C821FFF7C5FE2046DA21FFF7C1FE204696
:104D00001221FFF7BDFE81212046FFF7B9FE012DDC
:104D10000CBF9F21CF212046FFF7B2FED9212046AC
:104D2000FFF7AEFE012D0CBF2221F1212046FFF737
:104D3000A7FE2046DB21FFF7A3FE20464021FFF718
:104D40009FFE2046A421FFF79BFE2046A621FFF7E9
:104D500097FE2046AF21BDE83840FFF791BE94F999
:104D60001D00012180B200F069FF94F91E000121AD
:104D700080B200F063FF94F82230002B3FF462AF62
:104D800047E700F0C5FF00F0C1FA5BE708B5024B4A
:104D90001B685B6C019308BD4802030008B5024B19
:104DA0001B685B68019308BD1802030008B5024B3D
:104DB0001B68DB68019308BD1802030008B5024BAD
:104DC0001B685B69019308BD1802030008B5024B1C
:104DD0001B689B68019308BD2C02030008B5024BB9
:104DE0001B68DB68019308BD2C02030008B5024B69
:104DF0001B681B69019308BD2C02030008B5024B18
:104E00001B68DB6C019308BD2C02030008B5024B44
:104E10001B68DB68019308BD2802030008B5024B3C
:104E20001B689B69019308BD2802030008B5024B6B
:104E30001B68DB69019308BD2802030008B5024B1B
:104E40001B681B6A019308BD2802030008B5024BCA
:104E50001B685B6A019308BD2802030008B5024B7A
:104E60001B689B6A019308BD2802030008B5024B2A
:104E70001B68DB6A019308BD2802030008B5024BDA
:104E80001B681B6B019308BD2802030008B5024B89
:104E90001B685B6B019308BD2802030008B5024B39
:104EA0001B681B6C019308BD2802030008B5024B68
:104EB0001B685B69019308BD6402030008B5024BDF
:104EC0001B689B68019308BD6802030008B5024B8C
:104ED0001B68DB68019308BD6802030008B5024B3C
:104EE0001B681B68019308BD3002030008B5024B24
:104EF0001B689B68019308BD3002030008B5024B94
:104F00001B68DB68019308BD3002030008B5024B43
:104F10001B681B69019308BD3002030008B5024BF2
:104F20001B685B69019308BD3002030008B5024BA2
:104F30001B68DB69019308BD3002030008B5024B12
:104F40001B681B6A019308BD3002030008B5024BC1
:104F50001B685B6A019308BD3002030008B5024B71
:104F60001B681B6C019308BD3002030008B5024B9F
:104F70001B685B6C019308BD3002030008B5024B4F
:104F80001B68DB68019308BD3C02030008B5024BB7
:104F90001B681B69019308BD3C02030008B5024B66
:104FA0001B685B69019308BD3C02030008B5024B16
:104FB0001B689B69019308BD3C02030008B5024BC6
:104FC0001B68DB69019308BD3C02030008B5024B76
:104FD0001B681B6A019308BD3C02030008B5024B25
:104FE0001B689B6A019308BD3C02030008B5024B95
:104FF0001B681B6C019308BD3C02030008B5024B03
:105000001B681B68019308BD4C02030008B5024BE6
:105010001B681B69019308BD4C02030008B5024BD5
:105020001B685B69019308BD4C02030008B5024B85
:105030001B689B69019308BD4C02030008B5024B35
:105040001B68DB69019308BD4C02030008B5024BE5
:105050001B681B6A019308BD4C02030008B5024B94
:105060001B685B6B019308BD6002030008B5024B2F
:105070001B685B68019308BD2002030008B5024B62
:105080001B685B69019308BD2002030008B5034B50
:105090001B68D3F88830019308BD0000200203008C
:1050A00008B5034B1B68D3F89430019308BD00008A
:1050B0002002030008B5024B1B68DB6B019308BD9F
:1050C0004402030008B5024B1B685B68019308BDEE
:1050D0004002030008B5024B1B689B68019308BDA2
:1050E0004002030008B5024B1B68DB68019308BD52
:1050F0004002030008B5024B1B681B69019308BD01
:105100004002030008B5024B1B685B69019308BDB0
:105110004002030008B5024B1B689B69019308BD60
:105120004002030008B5024B1B68DB69019308BD10
:105130004002030008B5024B1B681B6A019308BDBF
:105140004002030008B5024B1B681B6B019308BDAE
:105150004002030008B5024B1B685B6B019308BD5E
:105160004002030008B5024B1B681B6C019308BD8D
:105170004002030008B5024B1B685B6C019308BD3D
:105180004002030008B5024B1B681B68019308BD71
:105190001C02030008B5024B1B685B68019308BD45
:1051A0001C02030008B5024B1B685B6A019308BD33
:1051B0001C02030008B5024B1B68DB6B019308BDA2
:1051C0001C02030008B5024B1B681B6C019308BD51
:1051D0001C02030008B5024B1B685B6C019308BD01
:1051E0001C0203000021FFF749BF00000248002312
:1051F0000360FFF7CBBD00BFC4E603200022406878
:105200001146FFF797BF002240681146FFF7A2BF83
:1052100040680022FFF796BF4068002281F001013C
:10522000FFF780BF002340681A461946FFF772BF98
:10523000002340681A461946FFF764BF0022406801
:105240001146FFF757BF002240681146FFF742BFE3
:10525000406800220221FFF745BF002340681A463C
:10526000FFF730BF024B03225A60024A1A607047B0
:10527000C8E603208C7F0B007047F8B5064615463C
:105280000C468F18BC4206D0336814F8011B9B688B
:1052900030469847F6E72846F8BD007C0022FFF725
:1052A000CDBD007C0021FFF7D1BD007C0021FFF7C0
:1052B000D5BD007C0021FFF7D9BD007C0021FFF7A0
:1052C000DDBD10B514210446FEF7E7FE204610BDF3
:1052D00038B5044615464FF47A730022C4E9012319
:1052E000094B2174084623602946FFF7D7FDBF30DC
:1052F00008D16B69DB0705D56868FFF74BFFE868E5
:10530000FFF748FF204638BDC87F0B000023007C14
:105310001A461946FFF77ABD007C0022FFF77EBDD2
:10532000C9B2FFF7F9BF007C0022FFF77FBD012162
:10533000FFF7F9BF704710B518210446FEF7ADFE20
:10534000204610BDF0B5037D062B8DB00E4600F152
:1053500004074FF0000412D000F1080515F8011DF4
:105360000A22304600F04FF9AF42044419D0002C15
:10537000F4D02E21304600F037F90444EEE72F2315
:105380006A4639460A208DF80040FFF78FFD6846CF
:1053900002F0B2FA33680246DB6869463046984745
:1053A000044620460DB0F0BD10B5054B0446112251
:1053B00040F8043B002102F069FA204610BD00BF0E
:1053C000F07F0B000346074A10B543F8042B01F1A8
:1053D000100251F8044B43F8044B9142F9D10A787A
:1053E0001A7010BDF07F0B0010B59DF8084044EA1C
:1053F000032343EA024242EA016104234160037548
:1054000010BD000007B5064B0360CB7800938B7886
:105410004A780978FFF7E8FF03B05DF804FB00BFA6
:10542000F07F0B00014B024A1A607047D0E6032060
:10543000FC7F0B00002340681A46FFF743BE40681C
:1054400000220221FFF74EBE002240681146FFF7FE
:1054500041BE002240681146FFF74CBE0023406861
:105460001A461946FFF74EBE002340681A461946F1
:10547000FFF750BE40680021FFF774BE406800216E
:10548000FFF778BE4068002281F00101FFF74ABEB5
:1054900040680022FFF756BE002240681146FFF721
:1054A00059BE002240681146FFF744BE2DE9F04383
:1054B00095B014460D460746FFF776FF00211C22E3
:1054C0000DA8009102F0E2F940230C9320466B46B0
:1054D0000CAA0021FFF7FAFC044600284BD1024633
:1054E00001216868FFF706FE0221804622466868AF
:1054F000FFF700FE009E81462146002E3BD000298A
:1055000039D17368022B03D00A2B11D0F669F4E766
:10551000B8F1000FFAD0716906A8043107ADFFF7A2
:1055200071FF0FCD3C1D0FC42B6823704146EDE782
:10553000B9F1000FEAD07469102201A802F0A6F9AF
:1055400006238DF8143001AD04F1080318341868EF
:1055500059682A4603C20833A3421546F7D101A968
:1055600006A807ADFFF72EFF0FCD3C1D0FC42B681B
:1055700023704946CAE70098FFF7A0FC384615B0EB
:10558000BDE8F083024B034A1A6000225A6070475C
:10559000D4E6032008800B00F8B506460D468F18A8
:1055A0000024BD420CD0336815F8011B9B683046BF
:1055B0009847031E01DB1C44F3E7002C08BF1C4680
:1055C0002046F8BD13B50446084659B1019102F0D2
:1055D00093F923680199DB680246204602B0BDE8D2
:1055E0001040184702B010BD03689B68184738B5D3
:1055F0000D210546FFF7F8FF0A2104462846FFF76C
:10560000F3FF204438BD30B58BB00023012A8DF85C
:10561000243098BF0A2209AC0D46B1FBF2F101FB20
:10562000125303F0FF03092B94BF30333733DBB23F
:10563000AA4204F8013DEFD92146FFF7C3FF0BB0A2
:1056400030BD2DE9F04186B000AF05460E46381D4D
:10565000142114463B60FFF7A5FD13280ED8391D11
:105660002846FFF7AFFF04461EB12846FFF7BFFFED
:10567000044420461837BD46BDE8F08100F1080318
:1056800023F00703E846ADEB030D2246411C3B68BF
:105690006846FFF787FD69462846FFF793FF0446F3
:1056A000C546E1E7014B00229A607047DCE6032023
:1056B0000021FFF75BBC0021FFF750BC10B504468A
:1056C00008462170FFF732FC00236360204610BDBE
:1056D00013B504460078FFF7EEFF58B92078019023
:1056E0004FF6FF71FFF7FAFB019802B0BDE81040DA
:1056F000FFF7DEBF02B010BD13B50446007801917C
:10570000FFF7D9FF019948B920780190FFF7EEFB28
:10571000019802B0BDE81040FFF7CABF02B010BD4B
:1057200013B5044600780191FFF7C5FF019948B908
:1057300020780190FFF7E2FB019802B0BDE810402D
:10574000FFF7B6BF02B010BD400830B518600024A6
:1057500018688842E5B206D90134082C02D0400806
:105760001860F5E70725024B5B5D137030BD00BF85
:105770003C800B002DE9F04188B0002304460078FE
:1057800002930E461746FFF796FF054600BB94F8B6
:1057900000800146142203A802F078F80B232A4661
:1057A00003A94046ADF80C30FFF7D0FB04988DF804
:1057B000075002AB0DF1070207FB06F1FFF7C4FF2C
:1057C00020789DF80710FFF7A1FB2078FFF770FF06
:1057D000029808B0BDE8F08138B5044600780D465F
:1057E000FFF769FF0346D0B9616899B10C4A12F816
:1057F000010B854202D00133082BF8D10133DBB213
:105800000122D9402046FFF7B5FF2078BDE8384097
:10581000FFF74EBF20782946FFF778FBF5E738BD44
:105820003C800B0008B50078FFF778FBC0B208BDDC
:10583000054B02221A60054B054A9A600020C3E915
:105840000000FFF713BC00BFF8E60320ECE60320DE
:105850000000FFFF024B1A68024B1A60704700BF3E
:1058600010E60320FCE6032070474174704708B53A
:10587000007CFFF7B3FB20EAE07008BD08B5007CB0
:10588000FFF784FB20EAE07008BD08B5007CFFF755
:105890008DFB40EAE07008BD08B5007CFFF77EFB99
:1058A00040EAE07008BD007CFFF788BB37B5457C57
:1058B00004462DB1207C03B0BDE83040FFF75EBB4D
:1058C000007C0191FFF78AFB00280199F2DC284651
:1058D00003B030BD10B514210446FEF7DEFB2046B0
:1058E00010BD000010B54FF47A7304460846114607
:1058F0000022C4E90123044B236001232074637454
:10590000FFF774FB204610BD68800B0041747047A0
:105910007047704708B50021007CFFF787FB40EA1D
:10592000E07008BD08B50121007CFFF77FFB40EA6D
:10593000E07008BD08B5007CFFF770FB20EAE0705E
:1059400008BD08B5007CFFF761FB20EAE07008BDE8
:1059500013B50446007C0191FFF760FB0028019914
:1059600001DC607C20B1207CFFF768FB20EAE0705E
:1059700002B010BD007CFFF769BB10B514210446CE
:10598000FEF78BFB204610BD10B54FF47A7304462A
:1059900008460021C4E90113044B2360012320744D
:1059A00063741146FFF72AFB204610BD98800B0058
:1059B00010B514220446002101F068FF204610BDF6
:1059C00010B50F4C88B003A8FFF7F2FF2178BFF3A2
:1059D0005B8F11F001010FD120460191FEF76CFBA6
:1059E000019948B103AA0748FFF7CEFF2046FEF70A
:1059F00068FB054801F036FF024808B010BD00BF43
:105A000000E7032004E7032011590B00002240683F
:105A10001146FFF76FBB002240681146FFF78ABBB3
:105A2000002240681146FFF795BB40680022FFF74F
:105A300089BB4068002281F00101FFF773BB00239E
:105A400040681A461946FFF765BB002340681A46AE
:105A50001946FFF757BB002240681146FFF73ABBD3
:105A6000406800220221FFF73DBB002340681A4630
:105A7000FFF728BB024B04225A60024A1A607047A3
:105A800018E70320C8800B00014B1860704700BF67
:105A900018E6032008B50B4B43B1FFF791FF0368ED
:105AA0001B699847002801DDAFF30080064B43B126
:105AB00000F06EF903681B699847002801DDAFF319
:105AC000008008BD000000000000000008B5FFF7DE
:105AD000E1FFFFF773F9014B186008BD28E70320C9
:105AE0000548064A064908B5121A01F0C1FE054BE1
:105AF000054A1A6008BD00BF00F4032004F4032027
:105B0000D4810B0000F403201E1C279A07B5002344
:105B100000931A466FF07701FFF7C2FA03B05DF801
:105B200004FB000007B543880A2B08D0502B0BD18B
:105B3000094B1B684BB103B05DF804EB1847FFF746
:105B4000E5FF03B05DF804FB002300931A466FF0F5
:105B50007701FFF7A5FAF4E724E7032010B5124810
:105B60000021FFF737FB114B1A68114B9A42114B7A
:105B70000CBF012200221A7001D0FFF7B1FFFFF71E
:105B80000DF9044601F08AFE0B4B13B12046AFF32A
:105B9000008000210848FFF78DFABDE81040074853
:105BA0000021FFF773BA00BF895A0B0000F40320ED
:105BB0001E1C279A20E7032000000000255B0B0035
:105BC000232813B502D9002002B010BDA0F10B03A9
:105BD000022B1AD8174C2178BFF35B8F11F001010B
:105BE0000BD120460191FEF767FA019928B11248BE
:105BF000FFF764FD2046FEF764FA0F4B1878FFF7B5
:105C00009DF90028DFD10120DEE7012809D800F046
:105C10007FF80021007CFFF739F980F00100C0B265
:105C2000D2E709380128EED800F0B2F8007CFFF77F
:105C3000CDF9F2E7B8E60320BCE60320232838B507
:105C400004460D460AD8FF2908D0FFF7B9FF28B14E
:105C500029462046BDE83840FFF7B8B838BD38B50A
:105C600004460D46FFF7BAF8FF2810D0062804D8DE
:105C70004D2323FA00F0C30709D42046FFF7A0FF05
:105C800028B129462046BDE83840FFF7AFB838BDF7
:105C90002DE9F04190461F46072406460D46C4F103
:105CA0000701B8F1000F12D147FA01F101F001012B
:105CB0003046FFF7D4FF01212846FFF7D0FF00212F
:105CC0002846FFF7CCFF013CE9D2BDE8F08147FA56
:105CD00004F1EBE7FFF792B87047000038B50A4BC4
:105CE00003600123044643610849202000F074F852
:105CF000202560600549A560284600F06DF8C4E9DC
:105D00000305204638BD00BF18000100FC800B00D1
:105D100030B50E4D2978BFF35B8F11F0010487B0C9
:105D200011D12846FEF7C8F968B16846FFF7D6FFDB
:105D30006A4621460648FFF7CBFA2846FEF7C1F926
:105D4000044801F08FFD024807B030BD2CE7032066
:105D500030E70320D95C0B007047000038B50446DB
:105D600014252A46002101F091FD25804025074990
:105D700025812846258200F02FF8044960602846D6
:105D800000F02AF8E060204638BD00BFFC800B0020
:105D900030B50E4D2978BFF35B8F11F0010487B049
:105DA00011D12846FEF788F968B101A8FFF7D6FFA0
:105DB00001AA21460648FFF795FD2846FEF781F91E
:105DC000044801F04FFD024807B030BD44E703200E
:105DD00048E70320595D0B00FEF75DB900000000A5
:105DE000F8B52DED028B57EC106B55EC114B00F014
:105DF000CBF8634BB0EE408AF0EE608A93F9003046
:105E000001332AD022462B462046294601F0C4FC05
:105E100018BB32463B463046394601F0BDFC0028EF
:105E200044D1002200233046394601F083FCD8B12A
:105E3000002200232046294601F07CFC00283DD1A9
:105E400045EC104B00F010FF38B1204629460022E7
:105E5000002301F079FC00285CD1B0EE480AF0EE96
:105E6000680ABDEC028BF8BDB0EE480AF0EE680A95
:105E700000F0FAFE58B351EC180B0022002301F099
:105E800059FC0028E9D047EC106B00F0EDFE00282B
:105E9000E3D045EC104B00F0E7FE0028DDD0FFF723
:105EA00089F922239FED2E8B0360D6E720462946F1
:105EB0000022002301F03EFC0028CED09FED2A8B6B
:105EC000B0EE480AF0EE680ABDEC028BF8BD47EC74
:105ED000106B00F0C9FE0028CDD045EC104B00F04F
:105EE000C3FE0028C7D053EC182B18EE100A194631
:105EF00001F052FC20BBFFF75DF9034622221A6035
:105F0000304639460022002301F01EFC48B99FEDBF
:105F1000188BA2E7FFF74EF921239FED178B036043
:105F20009BE745EC104B00F0B3FE224651EC100B02
:105F30002B4601F0FFFB0028E9D19FED0F8B8CE78A
:105F4000FFF738F90022002321210160104619468D
:105F500001F0B2FA41EC180B7FE700BFAFF300800D
:105F60000000000000000000000000000000F03F02
:105F7000000000000000F07F000000000000F0FFC3
:105F800014E60320000000002DE9F04F57EC116BE0
:105F90002DED0C8B27F0004A5AEA060287B03DD05F
:105FA00055EC104B724925F00048884510EE102A38
:105FB000A9462CDC11EE103ABB4636D08A4526DCC9
:105FC0006B498A4521D0B9F1000F39DB00210091DE
:105FD000002B51D1664B9A4500F0A280654B9A4543
:105FE00000F0B080BBF1804F00F0C084624B9B4555
:105FF00042D1B9F1000F3FDB45EC104B07B0BDECCF
:106000000C8BBDE8F04F00F059BD002BDBD008F140
:10601000404808F5801858EA020309D19FED500B5B
:1060200007B0BDEC0C8BBDE8F08F0CB9C245C7DDE5
:10603000524807B0BDEC0C8BBDE8F04F00F020BE1D
:106040004F498A4500F38580A1F154718A450FDDDF
:106050004FEA2A51A1F2FF31142940F39B84C1F188
:10606000340123FA01F000FA01F1994200F0ED84C5
:1060700000210091002BB1D045EC104B029200F0B2
:10608000E9FD029A5ABBB8F1000F04D0394B29F050
:1060900040429A4223D1BBF1000F07DA53EC102B98
:1060A0003449002001F008FA41EC100BB9F1000F5F
:1060B000B6DA009B08F1404808F5801858EA030357
:1060C00040F08D8453EC102B1046194600F012FF5F
:1060D00002460B4601F0F0F941EC100BA0E7009AE4
:1060E0004FEAD973013B0493134335D0254B9A45AE
:1060F0004CDD03F104739A45234B40F3DB83984551
:1061000040F36083BBF1000F40F3608316A3D3E933
:1061100000231046194601F0A5F841EC100B7FE76B
:1061200008F1404303F5801313433FF477AF164B58
:10613000984540F37A83BBF1000FC0F2478347ECE8
:10614000106B6DE7BBF1000FC0F21A8445EC104BE9
:1061500066E7022100913BE722462B46B4E700BFE9
:10616000000000000000F03F9C7500883CE4377E92
:106170000000F07F0000F03F0000E03F00810B00D6
:10618000FFFF3F430000E041FFFFEF3FE44B09EA20
:106190000303002253B951EC100BE24B01F062F8FB
:1061A00041EC100B10EE908A6FF034024FEA285346
:1061B000A3F2FF339A18DC4B0592C8F3130848F09A
:1061C0007F54984544F4401407DDD84B984540F37C
:1061D000148401320592A4F580149FEDB96B9FEDF4
:1061E000BA7B53EC162BB0EE47CAF0EE67CA002517
:1061F000B0EE47DAF0EE67DA5BEC10ABA346504640
:10620000594643EC1A2B00F075FE53EC1A2B8046CE
:1062100089465046594600F06FFE02460B46002064
:10622000C34901F049F941EC1B0B404653EC1B2BD1
:10623000494601F017F841EC180B0A460146CDE932
:1062400002120021029164104BEC19AB44F000548F
:10625000DDE902AB04F500230020591904460D4680
:1062600002460B465046594600F0FCFF02460B46DC
:106270004046494600F03EFE53EC1A2B80468946C4
:106280002046294600F036FE02460B4651EC190B1B
:1062900000F030FE52465B4600F0E4FF02460B463B
:1062A0004046494600F026FE53EC1B2B00F0DAFF77
:1062B00053EC182B41EC190B51EC180B00F0D2FFEA
:1062C00083A3D3E9002304460D4600F0CBFF82A34D
:1062D000D3E9002300F010FE22462B4600F0C2FF57
:1062E0007FA3D3E9002300F007FE22462B4600F0EF
:1062F000B9FF7DA3D3E9002300F0FEFD22462B4623
:1063000000F0B0FF7AA3D3E9002300F0F5FD2246A8
:106310002B4600F0A7FF78A3D3E9002300F0ECFDA3
:106320002246804689462B462046294600F09AFFA1
:1063300002460B464046494600F094FF524604464A
:106340000D465B4651EC180B00F0D6FD53EC192BB3
:1063500000F088FF22462B4600F0CEFD52468046D4
:1063600089465B465046594600F07CFF02460B4684
:1063700043EC1A2B6F4B002200F0BEFD42464B4609
:1063800000F0BAFD00240D4622462B4650465946E1
:1063900000F068FF674B82468B4600222046294664
:1063A00000F0A8FD53EC1A2B00F0A4FD02460B46AA
:1063B0004046494600F09EFD53EC182B00F052FF7A
:1063C00022462B4604460D4651EC190B00F04AFFBD
:1063D00002460B462046294600F08EFD804689463F
:1063E00042464B465046594600F086FD44A3D3E949
:1063F0000023002004460D4600F034FF524641ECD5
:10640000190B5B462046294600F074FD02460B46F8
:106410004046494600F06EFD3BA3D3E9002300F05F
:1064200021FF02460B462046294614461D4638A346
:10643000D3E9002300F016FF02460B46204629460A
:1064400000F05AFD53EC1D2B00F056FD80460598D8
:10645000894600F09DFE424682468B464B4651ECF3
:10646000190B00F049FD53EC1C2B00F045FD524682
:106470005B4600F041FD52465B46002004460D4657
:1064800000F038FD53EC1C2B00F034FD53EC192BBD
:1064900000F030FD02460B464046494600F02AFD1A
:1064A000009B049A013B134382468B4640F0B68121
:1064B0009FED197BB0EE478AF0EE678A3CE000BFA3
:1064C000000000000000F03F00000000000000009D
:1064D000EF4E454A287ECA3F65DBC9934A86CD3FC9
:1064E00001411DA96074D13F4D268F515555D53FAF
:1064F000FFAB6FDBB66DDB3F033333333333E33F47
:10650000000000E009C7EE3FFD033ADC09C7EE3F9B
:10651000F5015B14E02F3EBE000000000000F0BF5C
:106520000000F07F000040438E98030079B60B0016
:106530000000F03F000008400023CDE90067009311
:10654000DDE90089304642464B46394600F0D2FC30
:1065500022462B4600F086FE32463B4606460F4654
:106560005046594600F07EFE02460B4630463946FC
:1065700000F0C2FC42464B4606460F4620462946DE
:1065800000F070FE04460D462B4630463946224642
:1065900000F0B2FCC24B9942804689468A4640F3DD
:1065A000188101F13F4303F5E003034340F0078204
:1065B000A3A3D3E900233046394600F09DFC0246F0
:1065C0000B46404649469046994622462B4600F0E7
:1065D00091FC02460B464046494601F0D3F800289C
:1065E00040F0ED81CAF30A534FF48012A3F2FE3358
:1065F00042FA03F35344AB49C3F30A52A2F2FF3207
:1066000041FA02FCC3F3130141F48011C2F11402F8
:1066100041FA02F2002023EA0C01BAF1000F0092C5
:106620000B46024602DA009949420091204629466B
:1066300000F060FC009B1B05029302460B460446DB
:106640000D463046394600F057FC89464FF00008A9
:106650007DA3D3E900234046494600F003FE2246CD
:106660002B4682468B464046494600F043FC024694
:106670000B463046394600F03DFC75A3D3E90023B4
:1066800000F0F0FD74A3D3E9002304460D46404614
:10669000494600F0E7FD02460B462046294600F039
:1066A0002BFC06460F4632463B465046594600F004
:1066B00023FC52465B4604460D4600F01BFC024696
:1066C0000B463046394600F015FC22468046894686
:1066D0002B462046294600F0C5FD61A3D3E90023DF
:1066E00006460F4600F0BEFD5FA3D3E9002300F08D
:1066F00001FC32463B4600F0B5FD5DA3D3E9002323
:1067000000F0FAFB32463B4600F0ACFD5AA3D3E959
:10671000002300F0EFFB32463B4600F0A3FD58A3F8
:10672000D3E9002300F0E8FB32463B4600F09AFD37
:1067300002460B462046294600F0DCFB06460F4683
:1067400032463B462046294600F08CFD02460B4669
:106750003046394616461F4600224FF0804300F06F
:10676000C9FB02460B463046394600F0A5FE4246BC
:1067700006460F464B462046294600F073FD42462A
:106780004B4600F0B9FB02460B463046394600F056
:10679000B1FB22462B4600F0ADFB02460B46002023
:1067A000414900F0A7FB029A0B461344B3F5801F42
:1067B000C0F24381194653EC182B00F053FD41EC15
:1067C000100B2DE4BBF1000FFFF6A0AC9FED2E0BDC
:1067D00026E4DFF8DCC021F00043634540F3E780A6
:1067E000324B0B4403430AD122462B4600F082FB76
:1067F00032463B4600F0BCFF00283FF4F3AE24A332
:10680000D3E9002351EC180B00F02CFD20A3D3E9B1
:10681000002300F027FD41EC100B01E49FED1E7BEF
:10682000B0EE478AF0EE678A86E6BBF1000FCDDA5C
:1068300007F1004300EE106A00EE903AFFF7F0BB5C
:10684000FE822B654715973C00000000432EE63F73
:10685000EF39FAFE422EE63F396CA80C615C20BE8F
:10686000D0A4BE726937663EF16BD2C541BDBB3E56
:106870002CDE25AF6A56113F93BDBE166CC1663F34
:106880003E5555555555C53F00000000000000001D
:1068900059F3F8C21F6EA501000000000000F03F90
:1068A000FFFF8F40FFFF0F000000F03F00346F3FFD
:1068B000FFCB9040984585DB7D4B98453FF722AC58
:1068C00051EC100B7A4B002200F014FB68A3D3E9C3
:1068D000002304460D4600F0C5FC67A3D3E900235E
:1068E00082468B462046294600F0BCFC714B41ECA9
:1068F000180B00222046294600F0B4FC02460B4645
:106900005FA1D1E9000100F0F5FA22462B4600F024
:10691000A9FC02460B460020674900F0EBFA22462C
:10692000804689462B462046294600F09BFC0246BD
:106930000B464046494600F095FC53A3D3E900239B
:1069400000F090FC02460B4651EC180B00F0D2FA16
:106950008046894642464B465046594600F0CCFA9E
:10696000002052465B4604460D4691E522462B46E2
:106970002046294600F076FC41EC100BFFF750BB97
:106980004B49002022462B4600F096FD41EC100BAF
:10699000FFF746BB002B44D1C1F114014AFA01F0C4
:1069A00000FA01F151455AD00093FFF717BB424A54
:1069B00093425BDCDDE900120291009146E634A3CC
:1069C000D3E9002351EC180B00F04CFC30A3D3E9C1
:1069D000002300F047FC41EC100BFFF721BB009BAC
:1069E000012B7FF41DAB10EE901A10EE102A01F16E
:1069F000004343EC102BFFF713BB9FED277BB0EE5A
:106A000047CAF0EE67CA9FED267BB0EE47DAF0EE9C
:106A100067DA9FED257B4FF4802553EC172BFFF7AA
:106A2000EBBB45EC104B009200F014F9009A002AE1
:106A30007FF492AB0092FFF726BB41EC100B00985D
:106A400000F0C2F951EC100BB5E600F00100C0F106
:106A500002010091002B3FF4C1AAFFF70DBB00F02B
:106A60000100C0F102030093FFF7B8BA1B15BBE5A4
:106A7000000000604715F73F44DF5DF80BAE543E61
:106A8000555555555555D53FFE822B654715F73F52
:106A90009C7500883CE4377E0000004003B8E23F6C
:106AA00006D0CF43EBFD4C3E000000000000F83F55
:106AB0000000F03F0000D03F0000E03F2DE9F04132
:106AC000634A55EC104BAA4300F09F80002D10EE56
:106AD00010CA2B4654DD291563D0C3F31303A1F26A
:106AE000FF37C90743F4801304D45B0003EBDC7366
:106AF0004FEA4C0C4FEADC72002602EB43037F1096
:106B00004FEA4C0C4FF0160E34464FF40012A11809
:106B1000994202DC5B1A8C1816445B00BEF1010E30
:106B200003EBDC734FEA52024FEA4C0CEFD175468F
:106B300020204FF000420AE044D04FEADC710138D7
:106B400001EB43034FEA4C0C4FEA520243D0A342FD
:106B500002EB0E01F0DD002901EB020E0ADBA0467C
:106B60001B1B614588BF03F1FF33ACEB010C1544DF
:106B70004446E2E7BEF1000FF1DB04F10108EFE764
:106B800025F00042224338D0002D4ED129464FEA4D
:106B9000DC22153913464FEA4C5C002AF7D0D602A6
:106BA00050D400205B00DD02044600F10100F9D55D
:106BB0001A4663460CFA00FCC0F12000C340091BD2
:106BC00013438AE76145B8D8002901EB020ED1DBF7
:106BD00098460023C9E753EA0C0310D168087110E6
:106BE000F30701F17F5101F5001148BF40F000406B
:106BF00001EB0753024643EC102BBDE8F0816A1C01
:106C000016BF681C01364008E9E710EE102A10EEA6
:106C1000100A2B46294600F025FB22462B4600F0A1
:106C20006BF941EC100BBDE8F08110EE102A204604
:106C3000294600F05FF902460B4600F03DFC41ECAE
:106C4000100BDAE7634620204FF0FF34B6E700BFB1
:106C50000000F07F51EC100B10EE102A21F00043E1
:106C600043EC102B704700BF82B08DED000B0198F4
:106C700040F0004000F58010C00F02B0704700BF28
:106C80009FED010B704700BF000000000000F87F7F
:106C9000F0B553EC102BC3F30A5CACF2FF311329AF
:106CA00010EE100A83B01C464FEAD37E3ADC00296E
:106CB00030DB424D45FA01FC03EA0C0515432DD0AB
:106CC00003EA5C0318434FEA5C0C0CD024EA0C0C7A
:106CD0004FF48024132944FA01F10CBF4FF0004017
:106CE00000204CEA0104364901EBCE0E2346DEE9D2
:106CF000004502462946204600F0FEF8CDE9000195
:106D0000DDE9000122462B4600F0F4F841EC100BBF
:106D100003B0F0BD23F00041114324D143EC102B0C
:106D200003B0F0BD332908DDB1F5806FF6D1194607
:106D300000F0E2F841EC100BF2E7ACF2134C4FF02C
:106D4000FF3121FA0CF10A42E8D010EA51024FEA71
:106D50005103C8D020EA03034FF0804040FA0CFCF6
:106D600043EA0C00BFE7C3F313031843144A43423A
:106D7000034302EBCE0E1B0B620C03F40023520400
:106D800043EA02073B46DEE9006710EE102A304670
:106D9000394600F0B1F8CDE9000132463B46DDE965
:106DA000000100F0A7F804F0004421F00041024681
:106DB00041EA040343EC102B03B0F0BDFFFF0F00CA
:106DC00008810B000000000038B553EC102BC3F312
:106DD0000A5104469C4689BB10EE101A23F0004C61
:106DE0005CEA010129D0194600223D4B3D4D10EED1
:106DF000100A00F037FAAC4202460B4616DB8C460E
:106E0000C1F30A513639214440F2FE70814221DC3F
:106E1000002947DC11F1350F34DA4CF250318C4245
:106E200018DC002B26A1D1E9000144DB24A3D3E91F
:106E3000002300F017FA41EC100B38BD40F2FF7050
:106E40008142E0D110EE100A194600F055F841ECED
:106E5000100B38BD002B1CA1D1E9000107DB1AA3E0
:106E6000D3E9002300F0FEF941EC100B38BD18A166
:106E7000D1E9000114A3D3E9002300F0F3F941ECB8
:106E8000100BF3E72CF0FF4C2CF4E00C36314CEAFD
:106E90000153104619460022134B00F0E3F941EC70
:106EA000100B38BD2CF0FF4C2CF4E00C4CEA0153D5
:106EB00043EC102B38BD08A1D1E90001B6E700BFB3
:106EC00059F3F8C21F6EA5019C7500883CE4377E1B
:106ED0009C7500883CE437FE59F3F8C21F6EA5810B
:106EE00000005043B03CFFFF0000903C81F00041A7
:106EF00002E000BF83F0004330B54FEA41044FEA9F
:106F0000430594EA050F08BF90EA020F1FBF54EA39
:106F1000000C55EA020C7FEA645C7FEA655C00F0D5
:106F2000E2804FEA5454D4EB5555B8BF6D420CDDA6
:106F30002C4480EA020281EA030382EA000083EA29
:106F4000010180EA020281EA0303362D88BF30BDC9
:106F500011F0004F4FEA01314FF4801C4CEA11311F
:106F600002D0404261EB410113F0004F4FEA03337E
:106F70004CEA133302D0524263EB430394EA050F09
:106F800000F0A780A4F10104D5F1200E0DDB02FA78
:106F90000EFC22FA05F2801841F1000103FA0EF20C
:106FA000801843FA05F359410EE0A5F120050EF1D2
:106FB000200E012A03FA0EFC28BF4CF0020C43FA03
:106FC00005F3C01851EBE37101F0004507D54FF010
:106FD000000EDCF1000C7EEB00006EEB0101B1F560
:106FE000801F1BD3B1F5001F0CD349085FEA3000A6
:106FF0004FEA3C0C04F101044FEA445212F5800FB1
:1070000080F09A80BCF1004F08BF5FEA500C50F14D
:10701000000041EB045141EA050130BD5FEA4C0C30
:10702000404141EB0101013C28BFB1F5801FE9D28D
:1070300091F0000F04BF01460020B1FA81F308BFB0
:107040002033A3F10B03B3F120020CDA0C3208DD7C
:1070500002F1140CC2F10C0201FA0CF021FA02F157
:107060000CE002F11402D8BFC2F1200C01FA02F1C7
:1070700020FA0CFCDCBF41EA0C019040E41AA2BFEC
:1070800001EB0451294330BD6FEA04041F3C1CDAB4
:107090000C340EDC04F11404C4F1200220FA04F0D4
:1070A00001FA02F340EA030021FA04F345EA03017E
:1070B00030BDC4F10C04C4F1200220FA02F001FA40
:1070C00004F340EA0300294630BD21FA04F02946C2
:1070D00030BD94F0000F83F4801306BF81F480115B
:1070E0000134013D4EE77FEA645C18BF7FEA655CCE
:1070F00029D094EA050F08BF90EA020F05D054EAA0
:10710000000C04BF1946104630BD91EA030F1EBFA4
:107110000021002030BD5FEA545C05D140004941A8
:1071200028BF41F0004130BD14F580043CBF01F59B
:10713000801130BD01F0004545F0FE4141F4700181
:107140004FF0000030BD7FEA645C1ABF194610465C
:107150007FEA655C1CBF0B46024650EA013406BF5D
:1071600052EA033591EA030F41F4002130BD00BF1C
:1071700090F0000F04BF0021704730B54FF48064D9
:1071800004F132044FF000054FF0000150E700BF5A
:1071900090F0000F04BF0021704730B54FF48064B9
:1071A00004F1320410F0004548BF40424FF00001A6
:1071B0003EE700BF42004FEAE2014FEA31014FEAE9
:1071C00002701FBF12F07F4393F07F4F81F0605138
:1071D000704732F07F4208BF704793F07F4F04BF83
:1071E00041F40021704730B54FF4607401F0004560
:1071F00021F000411CE700BF50EA010208BF7047C0
:1072000030B54FF000050AE050EA010208BF7047B0
:1072100030B511F0004502D5404261EB41014FF419
:10722000806404F132045FEA915C3FF4D8AE4FF021
:1072300003025FEADC0C18BF03325FEADC0C18BF04
:10724000033202EBDC02C2F1200300FA03FC20FA55
:1072500002F001FA03FE40EA0E0021FA02F11444A2
:10726000BDE600BF70B54FF0FF0C4CF4E06C1CEABB
:1072700011541DBF1CEA135594EA0C0F95EA0C0F2C
:1072800000F0DEF82C4481EA030621EA4C5123EA9F
:107290004C5350EA013518BF52EA033541F48011CE
:1072A00043F4801338D0A0FB02CE4FF00005E1FB81
:1072B00002E506F00042E0FB03E54FF00006E1FBCB
:1072C00003569CF0000F18BF4EF0010EA4F1FF040E
:1072D000B6F5007F64F5407404D25FEA4E0E6D414E
:1072E00046EB060642EAC62141EA55514FEAC5205F
:1072F00040EA5E504FEACE2EB4F1FD0C88BFBCF5DB
:10730000E06F1ED8BEF1004F08BF5FEA500E50F18B
:10731000000041EB045170BD06F0004646EA010151
:1073200040EA020081EA0301B4EB5C04C2BFD4EB83
:107330000C0541EA045170BD41F480114FF0000E7C
:10734000013C00F3AB8014F1360FDEBF002001F0EA
:10735000004170BDC4F10004203C35DA0C341BDC64
:1073600004F11404C4F1200500FA05F320FA04F036
:1073700001FA05F240EA020001F0004221F000416A
:1073800010EBD37021FA04F642EB06015EEA430EDD
:1073900008BF20EAD37070BDC4F10C04C4F120050D
:1073A00000FA04F320FA05F001FA04F240EA0200C0
:1073B00001F0004110EBD37041F100015EEA430E91
:1073C00008BF20EAD37070BDC4F1200500FA05F2B1
:1073D0004EEA020E20FA04F301FA05F243EA020330
:1073E00021FA04F001F0004121FA04F220EA02003F
:1073F00000EBD3705EEA430E08BF20EAD37070BD85
:1074000094F0000F0FD101F00046400041EB010164
:1074100011F4801F08BF013CF7D041EA060195F046
:10742000000F18BF704703F00046520043EB030300
:1074300013F4801F08BF013DF7D043EA06037047ED
:1074400094EA0C0F0CEA135518BF95EA0C0F0CD0F8
:1074500050EA410618BF52EA4306D1D181EA03013E
:1074600001F000414FF0000070BD50EA410606BF38
:107470001046194652EA430619D094EA0C0F02D17D
:1074800050EA013613D195EA0C0F05D152EA0336C2
:107490001CBF104619460AD181EA030101F00041E0
:1074A00041F0FE4141F470014FF0000070BD41F029
:1074B000FE4141F4780170BD70B54FF0FF0C4CF403
:1074C000E06C1CEA11541DBF1CEA135594EA0C0F22
:1074D00095EA0C0F00F0A7F8A4EB050481EA030E6F
:1074E00052EA03354FEA013100F088804FEA033356
:1074F0004FF0805545EA131343EA12634FEA022224
:1075000045EA111545EA10654FEA00260EF00041E4
:107510009D4208BF964244F1FD0404F5407402D236
:107520005B084FEA3202B61A65EB03055B084FEAC7
:1075300032024FF480104FF4002CB6EB020E75EBC4
:10754000030E22BFB61A754640EA0C005B084FEAEC
:107550003202B6EB020E75EB030E22BFB61A754669
:1075600040EA5C005B084FEA3202B6EB020E75EBB4
:10757000030E22BFB61A754640EA9C005B084FEA2C
:107580003202B6EB020E75EB030E22BFB61A754639
:1075900040EADC0055EA060E18D04FEA051545EA28
:1075A00016754FEA06164FEAC30343EA52734FEAD1
:1075B000C2025FEA1C1CC0D111F4801F0BD141EA4A
:1075C00000014FF000004FF0004CB6E711F4801FAF
:1075D00004BF01430020B4F1FD0C88BFBCF5E06F8F
:1075E0003FF6AFAEB5EB030C04BFB6EB020C5FEA9F
:1075F000500C50F1000041EB045170BD0EF0004EF4
:107600004EEA113114EB5C04C2BFD4EB0C0541EA25
:10761000045170BD41F480114FF0000E013C90E622
:1076200045EA060E8DE60CEA135594EA0C0F08BFE6
:1076300095EA0C0F3FF43BAF94EA0C0F0AD150EAE5
:1076400001347FF434AF95EA0C0F7FF425AF104678
:1076500019462CE795EA0C0F06D152EA03353FF4A0
:10766000FDAE1046194622E750EA410618BF52EA1D
:1076700043067FF4C5AE50EA41047FF40DAF52EAF1
:1076800043057FF4EBAE12E74FF0FF3C06E000BF8E
:107690004FF0010C02E000BF4FF0010C4DF804CD9B
:1076A0004FEA410C7FEA6C5C4FEA430C18BF7FEA5B
:1076B0006C5C1BD001B050EA410C0CBF52EA430C89
:1076C00091EA030F02BF90EA020F0020704710F109
:1076D000000F91EA030F58BF994208BF90422CBF98
:1076E000D8176FEAE37040F0010070474FEA410C91
:1076F0007FEA6C5C02D150EA013C07D14FEA430CAF
:107700007FEA6C5CD6D152EA033CD3D05DF8040B1F
:10771000704700BF8446104662468C461946634651
:1077200000E000BF01B5FFF7B7FF002848BF10F128
:10773000000F01BD4DF808EDFFF7F4FF0CBF01206D
:1077400000205DF808FB00BF4DF808EDFFF7EAFFE9
:1077500034BF012000205DF808FB00BF4DF808EDA4
:10776000FFF7E0FF94BF012000205DF808FB00BF99
:107770004DF808EDFFF7CEFF94BF012000205DF823
:1077800008FB00BF4DF808EDFFF7C4FF34BF012030
:1077900000205DF808FB00BF4FEA410C7FEA6C5CFB
:1077A00002D150EA013C0AD14FEA430C7FEA6C5CFB
:1077B00002D152EA033C02D14FF0000070474FF073
:1077C000010070474FEA4102B2F1E04324BFB3F534
:1077D000001CDCF1FE5C0DD901F0004C4FEAC00248
:1077E0004CEA5070B2F1004F40EB830008BF20F02C
:1077F0000100704711F0804F21D113F13872BCBFE6
:1078000001F00040704741F480114FEA5252C2F13A
:107810001802C2F1200C10FA0CF320FA02F018BF83
:1078200040F001004FEAC1234FEAD32303FA0CFCD6
:1078300040EA0C0023FA02F34FEA4303CCE77FEA65
:10784000625307D150EA01331EBF4FF0FE4040F4AF
:107850004000704701F0004040F0FE4040F400005E
:10786000704700BF002301461A46184600F04CB886
:107870000A44914200F1FF3300D1704710B511F86E
:10788000014B03F8014F9142F9D110BD0244034668
:10789000934200D1704703F8011BF9E738B5104B4C
:1078A0001D68AB6B0446B3B91820FDF76BFC0246AC
:1078B000A86320B90B4B0C484221FDF783FC0B4910
:1078C0000B4BC0E900130B4B83600B23838100211A
:1078D0000120C2E90401AB6B00221C615A6138BD72
:1078E00018E6032018810B002F810B000E33CDAB5F
:1078F00034126DE6ECDE0500034613F8012B002A76
:10790000FBD1181A013870472DE9F843DFF8B88029
:107910000646D8F800001F460D46914600F056F87E
:10792000254B1C6834B9254C1C60254B13B11B68D2
:10793000C4F8883063681F2B07DDD8F8000000F01A
:1079400047F84FF0FF30BDE8F8834EB3D4F8880015
:1079500088B91C4B23B9D8F8000000F038F8F0E7DC
:107960004FF48470FDF70EFC0028F4D00023C0E92A
:107970004033C4F88800636840F8239001229A409D
:1079800000EB8301D0F800311343C0F80031022E20
:10799000C1F8807002BFD0F804311343C0F804313D
:1079A0006368D8F800005A1C0233626044F8235020
:1079B00000F00EF80020C6E7E8E703205CE70320AC
:1079C0000000000085510B007CE6032070477047E3
:1079D0007047000021400B005D400B0085400B000C
:1079E00089400B000000000043616C6C206F6E202A
:1079F00070757265207669727475616C00534D41C3
:107A0000525453484F5000536D6F6B65206465743A
:107A10006563746564210000000000003E5B4F5BFD
:107A20003E3E6B4F6B3E1C3E7C3E1C183C7E3C1821
:107A30001C577D571C1C5E7F5E1C00183C1800FF05
:107A4000E7C3E7FF0018241800FFE7DBE7FF304833
:107A50003A060E2629792926407F050507407F052D
:107A6000253F5A3CE73C5A7F3E1C1C08081C1C3E24
:107A70007F14227F22145F5F005F5F06097F017F12
:107A8000006689956A606060606094A2FFA29408B5
:107A9000047E040810207E201008082A1C08081CF8
:107AA0002A08081E101010100C1E0C1E0C30383E38
:107AB0003830060E3E0E06000000000000005F0099
:107AC000000007000700147F147F14242A7F2A1265
:107AD000231308646236495620500008070300004B
:107AE0001C2241000041221C002A1C7F1C2A08087D
:107AF0003E08080080703000080808080800006090
:107B0000600020100804023E5149453E00427F407B
:107B10000072494949462141494D331814127F10DA
:107B200027454545393C4A49493141211109073624
:107B300049494936464949291E00001400000040C1
:107B400034000000081422411414141414004122BB
:107B5000140802015909063E415D594E7C1211126A
:107B60007C7F494949363E414141227F4141413E66
:107B70007F494949417F090909013E414151737FCC
:107B80000808087F00417F41002040413F017F08F5
:107B90001422417F404040407F021C027F7F040846
:107BA000107F3E4141413E7F090909063E41512176
:107BB0005E7F09192946264949493203017F01039D
:107BC0003F4040403F1F2040201F3F4038403F6320
:107BD0001408146303047804036159494D43007F7A
:107BE0004141410204081020004141417F0402014B
:107BF00002044040404040000307080020545478ED
:107C0000407F284444383844444428384444287F3A
:107C1000385454541800087E090218A4A49C787F94
:107C20000804047800447D40002040403D007F105F
:107C300028440000417F40007C047804787C0804DC
:107C400004783844444438FC182424181824241890
:107C5000FC7C08040408485454542404043F44247D
:107C60003C4040207C1C2040201C3C4030403C4498
:107C7000281028444C9090907C4464544C44000854
:107C80003641000000770000004136080002010282
:107C900004023C2623263C1EA1A161123A4040204A
:107CA0007A385454555921555579412154547841C5
:107CB000215554784020545579400C1E5272123987
:107CC0005555555939545454593955545458000040
:107CD000457C410002457D420001457C40F029245D
:107CE00029F0F0282528F07C545545002054547C78
:107CF000547C0A097F49324949493232484848325E
:107D0000324A4848303A4141217A3A42402078008C
:107D10009DA0A07D39444444393D4040403D3C2431
:107D2000FF2424487E4943662B2FFC2F2BFF092973
:107D3000F620C0887E090320545479410000447D18
:107D4000413048484A32384040227A007A0A0A7262
:107D50007D0D19317D2629292F282629292926300C
:107D6000484D4020380808080808080808382F102F
:107D7000C8ACBA2F102834FA00007B000008142A7F
:107D8000142222142A1408AA005500AAAA55AA559A
:107D9000AA000000FF00101010FF00141414FF00D0
:107DA0001010FF00FF1010F010F0141414FC001459
:107DB00014F700FF0000FF00FF1414F404FC141477
:107DC00017101F10101F101F1414141F0010101074
:107DD000F0000000001F101010101F10101010F005
:107DE00010000000FF101010101010101010FF10E5
:107DF000000000FF140000FF00FF00001F1017002C
:107E000000FC04F414141710171414F404F4000004
:107E1000FF00F714141414141414F700F7141414B6
:107E2000171410101F101F141414F4141010F01055
:107E3000F000001F101F0000001F14000000FC14C1
:107E40000000F010F01010FF10FF141414FF1410B5
:107E500010101F00000000F010FFFFFFFFFFF0F008
:107E6000F0F0F0FFFFFF0000000000FFFF0F0F0F1A
:107E70000F0F38444438447C2A2A3E147E020206FE
:107E800006027E027E0263554941633844443C0445
:107E9000407E201E2006027E020299A5E7A5991CBD
:107EA0002A492A1C4C7201724C304A4D4D303048E0
:107EB000784830BC625A463D3E494949007E01013E
:107EC000017E2A2A2A2A2A44445F444440514A44D3
:107ED0004040444A51400000FF0103E080FF0000A1
:107EE00008086B6B083612362436060F090F060099
:107EF0000018180000001010003040FF0101001FA2
:107F000001011E00191D1712003C3C3C3C00000002
:107F10000000000000000000000000000000000061
:107F200000000000D1450B0099550B00A1400B004B
:107F3000E9420B000F440B002B440B00A7430B003E
:107F400045440B007B440B0097440B0000000000ED
:107F50000000000041490B00D1490B00D1450B0046
:107F600099550B0045490B00E9420B00CD470B002A
:107F70005D460B00A7430B0045440B007B440B0000
:107F800097440B0000000000000000005B520B0053
:107F900051520B0047520B003D520B0031520B0067
:107FA00025520B0075540B007D540B0019520B0029
:107FB00011520B0007520B00FD510B00AD540B008A
:107FC000000000000000000079520B00C3520B00BB
:107FD0009B520B007B520B00A3520B00AB520B00C9
:107FE000B3520B00BB520B00000000000000000069
:107FF00045530B0035530B0037530B006170700075
:10800000000000000000000035540B003F540B003E
:1080100049540B0053540B005D540B0069540B0082
:1080200075540B007D540B0085540B0091540B00CC
:1080300099540B00A3540B00AD540B00000810180A
:108040002028303825592D256D2D25645425483A92
:10805000254D3A2553257A0061736374696D650077
:10806000000000000000000069580B00D5580B000C
:10807000AD580B0099550B007D580B0099580B001B
:108080008B580B00A7580B006B580B006F580B0058
:10809000000000000000000013590B007B590B008A
:1080A00051590B0099550B0043590B0015590B0002
:1080B00025590B0075590B0035590B000D590B0054
:1080C00000000000000000006B5A0B00615A0B001A
:1080D000575A0B000D5A0B004B5A0B003F5A0B001E
:1080E00075540B007D540B00335A0B002B5A0B00B8
:1080F000215A0B00175A0B00AD540B000000000072
:1081000000000000000000000000000000003043FC
:1081100000000000000030C35245454E54206D6100
:108120006C6C6F6320737563636565646564002FB1
:10813000746D702F6A656E6B696E732D4743432DA6
:1081400031302D706970656C696E652D34385F3221
:10815000303230313132345F3136303631383036CA
:1081600033392F7372632F6E65776C69622F6E657A
:10817000776C69622F6C6962632F7374646C6962D7
:108180002F72616E642E6300DD420B00ED510B0017
:1081900065520B0025540B0085550B00A5560B00AE
:1081A00031580B0055580B00755A0B0000000000A9
:1081B000040000001400000003000000474E5500BA
:1081C0003639715930A65D078CF8B3DD311CAD919D
:0481D000F130F33B5C
:0481D40000000000A7
:1081D8000800000030750000000103070F1F3F7FF3
:1081E8000080C0E0F0F8FCFE000000000000000085
:1081F8000000000000000000000000000000000077
:108208000000000000000000000000000000000066
:108218000000000000000000000000000000000056
:1082280000000000000000808080000000000000C6
:108238000000000000000000008080C0C0000000B6
:108248000000000000000000000000000000000026
:108258000000000000000000000000000000000016
:108268000000000000000000000000000000000006
:1082780000000000000000000000000080C0E0F0E6
:10828800F8FCF8E00000000000000000000000001A
:108298000000000000808080808000808000000056
:1082A80000808080808000FFFFFF00000000808049
:1082B800808000008080000080FFFF808000808038
:1082C80000808080800080800000000000808000A6
:1082D800008C8E84000080F8F8F880000000000010
:1082E8000000000000000000F0F0F0F0F0F0F0F006
:1082F800F0F0F0F0E0E0C08000E0FCFEFFFFFF7F60
:10830800FFFFFFFFFF00000000000000000000006A
:10831800000000FEFFC70101010183FFFF00007C90
:10832800FEC70101010183FFFFFF0038FEC783017B
:10833800010183C7FFFF000001FFFF010100FFFFEC
:108348000701010100007FFF80000000FFFF7F00A0
:1083580000FFFFFF000001FFFFFF01000000000019
:108368000000000000000000030F3F7F7FFFFFFFB9
:10837800FFFFFFFFE7C7C78F8F9FBFFFFFC3C0F097
:10838800FFFFFFFFFFFCFCFCFCFCFCFCFCF8F8F02A
:10839800F0E0C0000103030303030103030000002E
:1083A80000010303030301010301000000010303AB
:1083B800030301010303000000030300000003039B
:1083C8000000000000000001030303030301000094
:1083D8000001030100000003030100000000000089
:1083E800000000000000000000000080C0E0F0F97C
:1083F800FFFFFFFFFF3F1F0F87C7F7FFFF1F1F3D4F
:10840800FCF8F8F8F87C7DFFFFFFFFFFFFFFFF7F18
:108418003F0F07003030000000000000000000009F
:10842800000000000000000000000000FEFEFC004C
:108438000000000000000000000000000000000034
:108448000000000000E0C000000000000000000084
:1084580000003030000000000000000000000000B4
:10846800000000000000000000C0FEFFFFFFFFFF4B
:10847800FFFFFFFF7F7F3F1F0F071F7FFFFFF8F8FA
:10848800FFFFFFFFFFFEF8E0000000010000000012
:1084980000000000FEFE000000FCFEFC0C06060EBC
:1084A800FCF80000F0F81C0E0606060CFFFFFF00A3
:1084B80000FEFE00000000FCFEFC00183C7E66E6A4
:1084C800CE84000006FFFF0606FCFEFC0C0606062E
:1084D8000000FEFE0000C0F8FC4E4646464E7C7882
:1084E80040183C76E6CECC8000000000000000007A
:1084F80000000000000000000000000001070F1F3E
:108508001F3F3F3F3F1F0F03000000000000000017
:10851800000000000F0F0000000F0F0F0000000008
:108528000F0F000003070E0C18180C060F0F0F0092
:1085380000010F0E0C180C0F070100040E0C180C8C
:108548000F070000000F0F00000F0F0F00000000C2
:1085580000000F0F00000007070C0C181C0C060683
:1085680000040E0C180C0F070000000000000000AB
:1085780000000000000000000000000000000000F3
:1085880000000000000000000000000000000000E3
:1085980000000000000000000000000000000000D3
:1085A80000000000000000000000000000000000C3
:1085B80000000000000000000000000000000000B3
:1085C80000000000000000000000000000000000A3
:1085D8000000000000000000000000000000000093
:1085E800000000000000000058800B00FF000000A1
:1085F8001CE603200000000000000000000000004E
:108608000000000000000000000000000000000062
:108618000000000000000000000000000000000052
:108628000000000000000000000000000000000042
:108638000000000000000000000000000000000032
:108648000000000000000000000000000000000022
:0886580000000000ECE7032024
:10866000FFFFFFFF00000102030405060708090AD7
:108670000B0C0D0E0F101112131415161718191AD2
:088680001B1C1D1E1F20280019
:0486880078563412DA
:04000003B0004020E9
:00000001FF
